:020000040800F2
:10000000D00B0020B57000080571000809710008C8
:100010000D71000811710008157100080000000042
:10002000000000000000000000000000AD6E0008AD
:100030001971000800000000AF6E0008B16E0008E2
:100040001D71000821710008257100082971000840
:100050002D71000831710008B96E00083571000873
:10006000397100083D7100084171000845710008B0
:10007000497100084D710008517100085571000860
:10008000597100085D7100086171000800000000EE
:10009000000000000000000000000000C36E000827
:1000A00065710008697100086D71000871710008C0
:1000B00075710008797100087D7100088171000870
:1000C00085710008897100088D7100089171000820
:1000D00095710008997100089D71000800000000EA
:1000E000CD6E0008A1710008A57100080000000095
:1000F000000000000000000000000000A9710008DE
:1001000000000000AD710008B1710008B571000871
:1001100000000000000000000000000000000000DF
:10012000B9710008BD710008C1710008C5710008EF
:10013000C97100080000000000000000000000007D
:10014000000000000000000000000000CD71000869
:10015000D1710008D5710008D9710008DD7100085F
:10016000E1710008E57100080000000000000000D7
:10017000000000000000000000000000000000007F
:1001800000000000E971000800000000000000000D
:10019000ED71000870B40822082391FBF3F30824E2
:1001A00091FBF4F4045D012591FBF2F602FB1612BB
:1001B00015FA02F22243C25470BC704770B4082290
:1001C000082391FBF3F3082491FBF4F4045D01256B
:1001D00091FBF2F602FB161215FA02F234EA020261
:1001E000C25470BC704710B40822082391FBF3F38B
:1001F000C05C012391FBF2F402FB141113FA01F12C
:10020000084201D0012000E00020C0B210BC7047BD
:1002100010B5DFF86C4BDFF86C2B4FF480712000C9
:1002200001F0A6FA200001F0C5FA020041F288337D
:1002300092B22100DFF8500B01F02FFB10BD7CB50E
:10024000FF208DF801008DF80000DFF8404B0FF61D
:10025000812020600FF6AD206060DFF8346BA6606F
:100260000C2001F0AFFD05000FF6C51068600FF619
:1002700029102860AE606946280001F0AAFE9DF8AA
:100280000000B32800D0FEE70DF10101200002F0CC
:100290000CFA9DF801006C2800D0FEE70121200037
:1002A00002F00DFA0DF10201200002F023FA9DF890
:1002B00002000028F6D18021200002F02AFA122143
:1002C000280001F045FE73BD70B52DED048BB0EE36
:1002D000408AF0EE608A04000D009FED559A38EEDA
:1002E000680AB4EE490AF1EE10FA2DDBAC4215DAD9
:1002F000DFF88C6ADFF89C2A4FF48071300001F03F
:1003000037FA300001F056FA020041F2883392B217
:100310003100DFF85C0D01F0C0FA2AE0DFF8606A16
:10032000DFF8742A4FF48071300001F021FA3000B8
:1003300001F040FA41F28833020092B23100DFF856
:10034000300D01F0AAFA14E0DFF8346ADFF84C2A25
:100350004FF48071300001F00BFA300001F02AFAFE
:1003600041F28833020092B23100DFF8040D01F04F
:1003700094FABDEC048B70BD2DE9F34F81B00500FC
:10038000160000208DF800000027300001F012FA5E
:100390008046DFF8ECB9029BDFF8DC2C4FF480716B
:1003A000584601F0E5F9584601F004FADFF8D8990B
:1003B00041F2883A5346020092B25946484601F04B
:1003C0006CFA4FF47A7301226946280001F0D5FADD
:1003D0000028F6D19DF800000D2823D1002004004C
:1003E000444506D23800315DC0B2884201D0641C59
:1003F000F6E7444513D13B00DBB2DFF8802C4FF425
:100400008071584601F0B4F9584601F0D3F95346CB
:10041000020092B25946484601F03FFAD1E738004F
:10042000C0B203E09DF800000700CAE7BDE8FE8FF8
:10043000CDCC4C3D2DE9F84384B004000D005FF0B5
:1004400010085FF000096E464A464146300002F04F
:1004500009FF00260027042F39DA5FF01408A0698D
:1004600008FB07F10844007C2900C9B2884206D184
:10047000390014F11400FFF7B6FE002800D124E083
:10048000A06908FB07F840449DED000AD0ED000A82
:1004900030EE200A8DED000A9DED010AD0ED010A33
:1004A00030EE200A8DED010A9DED020AD0ED020A20
:1004B00030EE200A8DED020A9DED030AD0ED030A0D
:1004C00030EE200A8DED030A761C7F1CC3E700EE98
:1004D000106AB8EEC00ADDED000A80EE800A8DEDEC
:1004E000000A00EE106AB8EEC00ADDED010A80EEE7
:1004F000800A8DED010A00EE106AB8EEC00ADDED4B
:10050000020A80EE800A8DED020A00EE106AB8EE53
:10051000C00ADDED030A80EE800A8DED030A68460D
:1005200090EC040A05B0BDE8F0832DE9F8432DED09
:10053000048B84B00400B0EE408AF0EE608AB0EE26
:10054000419AF0EE619A0D005FF010085FF000092B
:100550006E464A464146300002F084FE00260027DF
:10056000042F49DA5FF01408A06908FB07F108447A
:10057000007C2900C9B2884206D1390014F1140068
:10058000FFF731FE002800D134E0A06908FB07F82E
:10059000804498ED000A30EE480A00F069FCDDED79
:1005A000000A30EE800A8DED000A98ED010A30EE67
:1005B000680A00F05DFCDDED010A30EE800A8DED89
:1005C000010A98ED020A30EE490A00F051FCDDED17
:1005D000020A30EE800A8DED020A98ED030A30EE31
:1005E000690A00F045FCDDED030A30EE800A8DED6E
:1005F000030A761C7F1CB3E7022E5BDB701E00EE45
:10060000100AB8EEC00ADDED000A80EE800A8DED1A
:10061000000A701E00EE100AB8EEC00ADDED010AF5
:1006200080EE800A8DED010A701E00EE100AB8EE11
:10063000C00ADDED020A80EE800A8DED020A701E0E
:1006400000EE100AB8EEC00ADDED030A80EE800A63
:100650008DED030A009802F045FE41EC100B02F00C
:1006600065FE51EC100B02F0E3FE0090019802F0E1
:1006700039FE41EC100B02F059FE51EC100B02F068
:10068000D7FE0190029802F02DFE41EC100B02F013
:100690004DFE51EC100B02F0CBFE0290039802F0DD
:1006A00021FE41EC100B02F041FE51EC100B02F068
:1006B000BFFE0390684690EC040A04B0BDEC048BC6
:1006C000BDE8F1832DE9F847C1B0102400250AAE3A
:1006D0002A002100300002F0C5FDDFF8B066DFF827
:1006E000A4793868010089B2300002F090FA012143
:1006F000300002F0EFFA0321300002F03AFA11A9BB
:10070000300002F0A8F99DF8440050F008008DF880
:10071000440011A9300002F034F80121300002F049
:100720009EFB0321300002F0D4FC0121300002F0D6
:1007300099FA0121300002F0B0FA5D208DF83800FE
:1007400027208DF8390006208DF83A000EA93000D8
:1007500002F023FD0021300002F069FC012130008D
:1007600002F08EFC0021300001F076FC0621300002
:1007700001F0D9FD0121300001F03CFF01213000E2
:1007800001F085FC0121300001F0E8FD0020ADF80A
:1007900022000020ADF82400002400250DF12101E5
:1007A000300002F0D2FA9DF821000028EED00DF1C1
:1007B0002201300002F0A9FABDF82200411EADF876
:1007C000221080B2002800F08B8009A9300002F0CE
:1007D0009CFA08A9300002F0C7FA9DF82000012811
:1007E00038D0022802D00E2844D069E05FF0060815
:1007F0005FF000090DF14C0A4A464146504602F0AE
:1008000031FD13A9300001F029FF3868032190FB66
:10081000F1F02100C9B28142CEDA5FF00008404613
:10082000C0B2032814DA19A82100C9B2090108448A
:100830004146C9B200EB810913A84146C9B230F95B
:10084000110001F0FDFB89ED000A18F10108E6E74F
:10085000641CB1E75FF006085FF000090DF15C0A67
:100860004A464146504602F0FDFC17A9300001F00F
:10087000F5FEA1E75FF008085FF000090DF13C0A02
:100880004A464146504602F0EDFC0FA9300001F007
:10089000E5FE00208DF83C003868032190FBF1F064
:1008A0002900C9B2814287DA0F9801F045FB19A8E7
:1008B0002900C9B20901084480ED030A6D1C7BE7D9
:1008C0005FF006085FF000090DF1540A4A46414600
:1008D000504602F0C7FC15A9300001F0BFFE6BE7DF
:1008E00028002100C0B2C9B2884201D22E0000E027
:1008F0002600002738003100C0B2C9B2884257D262
:1009000019A83900C9B2090100EB0109DFF87084A8
:10091000D9F80C0002F0E6FCCDE90601D9F8080090
:1009200002F0E0FCCDE90401D9F8040002F0DAFCA1
:10093000CDE90201D9F8000002F0D4FCCDE90001B4
:100940003B00DBB25B1CDFF87C2A4FF48071404631
:1009500000F00EFF404600F02DFF020041F2883308
:1009600092B24146DFF8080700F097FF9DED0A0AB2
:10097000D9ED000A30EE200A8DED0A0A9DED0B0A32
:10098000D9ED010A30EE200A8DED0B0A9DED0C0A1F
:10099000D9ED020A30EE200A8DED0C0A9DED0D0A0C
:1009A000D9ED030A30EE200A8DED0D0A7F1CA1E778
:1009B0003000C0B200EE100AB8EE400ADDED0A0ABF
:1009C00080EE800A8DED0A0A3000C0B200EE100AF7
:1009D000B8EE400ADDED0B0A80EE800A8DED0B0AC1
:1009E0003000C0B200EE100AB8EE400ADDED0C0A8D
:1009F00080EE800A8DED0C0A3000C0B200EE100AC5
:100A0000B8EE400ADDED0D0A80EE800A8DED0D0A8C
:100A1000DFF86C730D9802F065FCCDE906010C98C7
:100A200002F060FCCDE904010B9802F05BFCCDE91B
:100A300002010A9802F056FCCDE90001DFF8AC2B68
:100A40004FF48071380000F093FE380000F0B2FEE1
:100A500041F28833020092B23900DFF8140600F048
:100A60001CFF0AA890EC040A42B0BDE8F08770476A
:100A7000704710B586B0040000200090DFF8200C0D
:100A8000016851F400310160006810F400300090FA
:100A9000009800200090DFF80C0C016851F0010173
:100AA0000160006810F00100009000980C20019097
:100AB000022002900020039003200490072005905C
:100AC00001A9DFF84C0C02F0E7FC06B010BD38B508
:100AD000050000242800C0B2022803D37FF00100E3
:100AE000040014E0DFF8C01BDFF8280C2A00D2B2A3
:100AF00050F822202B00DBB240204343CA502A008A
:100B0000D2B24020424301EB0200FFF7B2FF2000C7
:100B100032BD7CB502F0EEFD00F06AFD02F004FE8D
:100B200002F06AFE02F01EFF02F09AFFFFF7A0FF3C
:100B30000020FFF7CCFF924CDFF8E42B4FF48071DC
:100B4000200000F015FE200000F034FE02008E4D63
:100B500041F28836330092B22100280000F09DFE59
:100B6000FFF76DFBFFF783FFDFF8B82B4FF48071C1
:100B7000200000F0FDFD200000F01CFE330002000C
:100B800092B22100280000F088FE012269460F2061
:100B900002F03AFF73BD00002DE9F84384B0040071
:100BA0000D0016001F005D208DF804008DF8055023
:100BB00030788DF80600DFF8D49101A9484602F09C
:100BC000B3FA80460021484601F061FA0121484607
:100BD00002F056FA0421484601F059FA02A94846A3
:100BE00001F032FD142002F095FF0DF1010148469D
:100BF00001F01BFD9DF801000028F3D0142002F045
:100C000089FF6946484602F013FB9DF8000010F08A
:100C100001000028F2D00021484602F031FA0021FC
:100C2000484601F034FA404605B0BDE8F0830000C4
:100C30002DE9F84384B004000D0016001F00DFF812
:100C40004C810021404601F022FA5D208DF804001D
:100C50008DF8055038008DF8060001A9404602F0D5
:100C60009CFA81460021404602F0E1F9012140460C
:100C700002F006FA0421404601F009FA02A94046B2
:100C800001F0E2FC142002F045FF0DF101014046A5
:100C900001F0CBFC9DF801000028F3D069464046E6
:100CA00002F0C6FA9DF8000010F001000028F5D00F
:100CB0000021404602F0E4F90021404601F0E7F946
:100CC0003100404602F099F9484605B0BDE8F0838E
:100CD000FEB504000D0016001F002D4884420ED101
:100CE0004FF47A700290380080B201900096012390
:100CF0002A00D2B292B2D721200003F009F80020D6
:100D0000FEBD0000FEB504000D0016001F002048C7
:100D100084420ED14FF47A700290380080B2019074
:100D2000009601232A00D2B292B2D721200003F00C
:100D3000A7F80020FEBD0000F4EE400AF1EE10FA24
:100D40000BD5F0EE402AB0EE600AF0EE620AB0EE8B
:100D5000412AB0EE611AF0EE421A30EEC03A71EE5E
:100D6000212ADFEDC43AF4EE632AF1EE10FA02D53F
:100D7000B6EE002A01E081EE222A02EE030A704755
:100D800090010020C4700008E4020020A4030020A9
:100D90009002002020700008B06F0008CC6F00089F
:100DA00038B594B0040001212000FFF743FB04A8EC
:100DB00080EC040A00212000FFF73CFB684680EC31
:100DC000040A012104A890EC040A2000FFF7ADFBFF
:100DD00010A880EC040A0021684690EC040A200068
:100DE000FFF7A3FB0CA880EC040A0025032D1CDAF6
:100DF0000CA800EB8500D0ED001A10A800EB8500D0
:100E000090ED001A684600EB8500D0ED000A04A8BA
:100E100000EB850090ED000AFFF78EFF08A800EBBD
:100E2000850080ED000A6D1CE0E7DDED0F1A9DEDF9
:100E3000131ADDED030A9DED070AFFF77DFF8DED27
:100E40000B0A08A890EC040A15B030BD0A00002A6D
:100E5000022A02D9D21E05D007E000EB810090EDF6
:100E6000000A04E090ED030A01E0BFEE000A7047BB
:100E700020EE000A704700002DE9F24F2DED048BA3
:100E800084B08346B0EE408A0025002600275FF03C
:100E9000000800245FF00009B9F1040F31DA494677
:100EA0001BF11400FFF79FF9002827D0641C5FF0A6
:100EB000140A0899DBF818000AFB09F21044FFF73E
:100EC000C5FFB4EE480AF1EE10FA0BD5DBF81800B6
:100ED0000AFB09FA5044007C012801D16D1C0DE089
:100EE000761C0BE0DBF818000AFB09FA5044007C82
:100EF000012801D17F1C01E018F1010819F1010955
:100F0000CAE7DFF8249800964346DFF820284FF41C
:100F10008071484600F02CFC484600F04BFC020073
:100F200041F2883A534692B24946DFF8040800F08D
:100F3000B4FC00953B00DFF8FC274FF48071484675
:100F400000F016FC484600F035FC5346020092B211
:100F50004946DFF8DC0700F0A0FC16EB0800039020
:100F6000DFED478A0398012819DB039896FBF0F020
:100F700000EE100AB8EEC00AFFF77AFFF7EE000A9B
:100F800030EEC09A039898FBF0F000EE100AB8EE2D
:100F9000C00AFFF76DFF39EE400AF0EE408A18EE06
:100FA000900A02F09FF9CDE90001DFF88C274FF499
:100FB0008071484600F0DCFB484600F0FBFB5346DE
:100FC000020092B24946DFF8680700F066FCE819B3
:100FD00002909FED2B9A0298012819DB029895FB4D
:100FE000F0F000EE100AB8EEC00AFFF741FFF7EE8E
:100FF000000A70EEC09A029897FBF0F000EE100A1B
:10100000B8EEC00AFFF734FF39EEC00AB0EE409ADE
:1010100019EE100A02F066F9CDE90001DFF81C278D
:101020004FF48071484600F0A3FB484600F0C2FB35
:101030005346020092B24946DFF8F40600F02DFC58
:101040009DED020AB8EEC00A20EE090ADDED030AA2
:10105000F8EEE00A00EEA80A00EE904AF8EEE00A88
:1010600080EE200A04B0BDEC048BBDE8F18F0000D7
:10107000E402002095BFD633DC700008E86F00085A
:101080000000000000710008F8B5040000250026EB
:101090000027042F13DA390014F11400FFF7A3F826
:1010A00000280AD0A069142101FB07F10844007C44
:1010B000002801D1761C00E06D1C7F1CE9E7AE42E0
:1010C00001DA012000E000206071AE4201DA300058
:1010D00000E02800711990FBF1F000EE100AB8EE64
:1010E000C00A84ED020AE5602661F1BD2DE9F84FE2
:1010F0002DED028B86B004002000FFF751FE01A801
:1011000080EC040AB7EE008AFF250326002E12D4D5
:10111000310001A8FFF79AFE31002000FFF7ACFE76
:10112000B4EE480AF1EE10FA03D5B0EE408A300072
:101130000500761EEAE725712900C9B201A8FFF76C
:1011400085FE84ED000A00202062206AE0612420F0
:1011500000F038FE06000020F061F06930620020E7
:10116000306000203071A069B0615FF0010814F1B7
:10117000140A16F1140742465146380003F070FA7B
:101180005FF000090027042F1FDA2179B0691422CB
:1011900002FB07F21044FFF759FED4ED000AB4EE4B
:1011A000600AF1EE10FA05DB390016F11400FFF7C2
:1011B00005F808E0390016F11400FFF714F80028CC
:1011C00001D019F101097F1CDDE74846C0B20028B3
:1011D00004D0E6613000FFF757FF04E0300003F071
:1011E00092FA00200600242000F0ECFD0700002009
:1011F000F861F86938620020386000203871A06911
:10120000B8615FF0010A14F11400009017F114089E
:1012100052460099404603F023FA5FF000085FF061
:10122000000BBBF1040F20DA2179B869142202FB0C
:101230000BF21044FFF70AFED4ED000AB4EE600A88
:10124000F1EE10FA05D5594617F11400FEF7B6FF76
:1012500008E0594617F11400FEF7C5FF002801D039
:1012600018F101081BF1010BDBE74046C0B2002872
:1012700004D027623800FFF707FF04E0380003F0CE
:1012800042FA00200700B5EE408AF1EE10FA1BD0BA
:10129000E06900280AD0E06990ED020AB5EE400A44
:1012A000F1EE10FA02DDE069FFF720FF206A002866
:1012B0000AD0206A90ED020AB5EE400AF1EE10FA6B
:1012C00002DD206AFFF712FF06B0BDEC028BBDE81D
:1012D000F18F2DE9F0410400242000F073FD05009A
:1012E00024275FF000082E0042463900300001F04C
:1012F000B9FFAC610026042E06DA310015F11400A6
:10130000FEF748FF761CF6E72800FFF7BDFE280031
:10131000FFF7ECFE2800BDE8F08170B58EB0040048
:10132000002C4DD00025042D0DDA290014F11400F5
:10133000FEF759FF002801D0592000E04E200CA9EB
:1013400048556D1CEFE700208DF8340060790028C7
:1013500001D0A5A601E0DFF8E863DFF8CC53A06870
:1013600001F0C0FFCDE90A010996207908902068B4
:1013700001F0B8FFCDE906010CA8049020690390A4
:10138000E0680290206A0190E06900902300DFF895
:10139000B4234FF48071280000F0EAF9280000F02F
:1013A00009FA020041F2883392B22900DFF8800383
:1013B00000F073FAE069FFF7B0FF206AFFF7ADFFB6
:1013C0000EB070BD946D00082DE9F0472DED028B35
:1013D000A2B0FFF79EFB502500260EAC320029007C
:1013E000200001F03FFF0024042C3BDAFFF76AF9EC
:1013F00014250EA805FB04F1084480EC040ACC4E29
:10140000D14AD2493000FEF7B7FF07003800C0B21A
:1014100003F07BF9752805D101200EA905FB04F224
:10142000114408740EA805FB04F52844007C00282C
:1014300001D06DA300E0C24BBB4DC54A4FF4807193
:10144000280000F095F9280000F0B4F941F2883343
:10145000020092B22900300000F01FFAFFF707FBEC
:10146000641CC1E70EA8FFF734FF04000025042D1B
:101470003EDAAD4E14270EA807FB05F10844007CA8
:1014800008900EA807FB05F10844C06801F02AFF88
:10149000CDE906010EA807FB05F10844806801F0BC
:1014A00021FFCDE904010EA807FB05F108444068BF
:1014B00001F018FFCDE902010EA807FB05F7C0599E
:1014C00001F010FFCDE900012B00A24A4FF480711A
:1014D000300000F04DF9300000F06CF9020041F2EC
:1014E000883392B23100924800F0D7F96D1CBEE704
:1014F0002000FFF712FFFFF7BAFA974D287800286F
:10150000FBD05FF030095FF0000A02AE5246494658
:10151000300001F0A7FE9FED808ADFED808A002673
:1015200000275FF00008B8F1030F32DAFFF7CAF8BE
:1015300002A85FEA0811084480EC040A02A85FEAE6
:101540000811084490ED030AF4EE408AF1EE10FA17
:1015500008D502A85FEA0811084490ED030AF0EEEE
:10156000408A474602A85FEA0811084490ED030A42
:10157000B4EE480AF1EE10FA08D502A85FEA0811A5
:10158000084490ED030AB0EE408A464618F101087F
:10159000C9E7DFF8948138EEC80A10EE100A01F0AE
:1015A000A1FECDE900016D4A4FF48071404600F084
:1015B000DFF8404600F0FEF841F28833020092B2B4
:1015C00041465B4800F069F931003800F0EE480A06
:1015D000B0EE680AFEF778FE0021614801F07AFB60
:1015E0000020287089E7000055700000E06D0008B9
:1015F00010B592B03021002206AC200001F032FE7E
:101600001421002201AC200001F02CFE00200090EB
:101610002348016851F080510160006810F080504B
:1016200000900098002000904E48016831F440413D
:1016300051F400410160006810F4404000900098AF
:10164000022006900120099010200A9002200C90A0
:1016500000200D9010200E904FF4A8700F900420E1
:1016600010900720119006A803F05AF8002801D026
:10167000FEF7CEFD0F200190022002900020039083
:101680004FF48050049000200590022101A803F03F
:1016900007FA002801D0FEF7BBFD12B010BD000014
:1016A00040380240303802402403002080B503F067
:1016B00009FB02BDF8B50500280080B2B0F5005F57
:1016C00023D10024284E3068002809D1274800681B
:1016D000002805D1FFF7EAFF3060012004000EE08A
:1016E000224FFFF7E3FF386038683168411A40F253
:1016F0002D12914203D33968316001210C00002C76
:1017000005D001201449087001E0FEF781FDF1BD0C
:101710000000024000000020002474490000000086
:10172000546E0008806E00089001002004700008CC
:10173000E402002038700008687000087C7000081F
:10174000E47000082C6C0008EC7000085C6F000866
:1017500090700008206E0008CC0300205070000834
:10176000A403002000700040B8030020BC03002048
:1017700008B438B585B009AC002504940395002958
:101780000EBF01950190491E0291009504AB01A97D
:10179000074878441A3003F09BFA019901B10D70A3
:1017A000002858BF039806B030BC5DF808FB00BFA6
:1017B0001B1B000000F10103810704D010F8011B7E
:1017C000820781B1FAD10268A2F10131914311F08F
:1017D000803104BF50F8042FF6E709BAB1FA81F15D
:1017E00000EBD100401CC01A704730B4002513E054
:1017F00050F8042BD30744BFA9F101039A18091F1D
:10180000042942F8045BFAD213468C0744BF1580C2
:101810009B1CC90748BF1D7050F8041B0029E7D165
:1018200030BC704710B50400002C01D1012033E01A
:10183000A0690028FFD194F83900002805D10020C4
:1018400084F83800200002F025F9242084F83900BB
:101850002068C06830F400502168C860200000F0A3
:1018600038F92068006930F49040216808612068E8
:10187000406930F02A00216848612068C06850F44F
:1018800000502168C8600020E063202084F83900FF
:10189000202084F83A00002010BD2DE9FC47050007
:1018A0000C0016001F005FF0000A95F83900202890
:1018B00060D1002C03D0300080B2002801D101207B
:1018C00059E095F83800012801D1022053E00120A9
:1018D00085F838000020E863212085F8390003F0FE
:1018E000F1F98146AE84EE84E88C00282FD0E88C94
:1018F000401EE884A868B0F5805F18D100974B4679
:1019000000228021280000F0ADF8002801D003203B
:1019100031E0A046B8F80000C005C00D2968486055
:101920002869002801D1A41CDEE7641CDCE70097CD
:101930004B4600228021280000F094F8002801D0B6
:10194000032018E0207829684860641CCCE70097E1
:101950004B4600224021280000F084F8002801D0E6
:10196000032008E0202085F83900002085F83800A1
:10197000002000E00220BDE8F6872DE9FC470500C5
:101980000C0016001F005FF0000A95F83A002028AE
:1019900065D1002C03D0300080B2002801D1012095
:1019A0005EE095F83800012801D1022058E00120BE
:1019B00085F838000020E863222085F83A0003F01B
:1019C00081F98146AE85EE85E88D00283FD0E88D0F
:1019D000401EE885A868B0F5805F1ED100974B4691
:1019E00000222021280000F03DF8002801D003202B
:1019F00036E0A0462869002807D128684068C0055D
:101A0000C00DA8F80000A41CDEE72868406800F0BC
:101A1000FF00A8F80000641CD6E700974B460022A0
:101A20002021280000F01EF8002801D0032017E034
:101A30002869002804D1286840682070641CC3E726
:101A40002868406810F07F002070641CBCE72020EC
:101A500085F83A00002085F83800002000E00220D8
:101A6000BDE8F6872DE9F04105000E0090461F0005
:101A7000069C286800683040B04201D1012000E097
:101A800000204146C9B2884220D114F1010FF0D0A4
:101A9000002C04D003F016F9C01B8442E9D2286858
:101AA000C06830F4D0702968C86028684069400870
:101AB000400029684861202085F83900202085F8F9
:101AC0003A00002085F83800032000E00020BDE83F
:101AD000F0812DE9F84304002068016931F4405198
:101AE000E068014320680161A568206905436069D9
:101AF0000543E06905432068C168AF4801402943B8
:101B00002068C1602068416931F44071A0690143D7
:101B100020684161E069B0F5004F40F0A680206880
:101B2000A649884203D02068A54988424ED103F0D7
:101B300064F8060003F061F8070003F05EF88046E1
:101B400003F05BF8814603F058F8642119225643EC
:101B500063685B00B6FBF3F36426B3FBF6F357430D
:101B600066687600B7FBF6F602FB08F867687F0048
:101B7000B8FBF7F75FF0640CB7FBFCF701FB1766E7
:101B8000F60032366427B6FBF7F6760016F4F876E0
:101B900016EB031602FB09F963685B00B9FBF3F36C
:101BA00002FB00F260684000B2FBF0F06422B0FB80
:101BB000F2F001FB1031C80032306421B0FBF1F0CB
:101BC00010F00700861920688660F1E003F00AF83B
:101BD000060003F007F8070003F004F8804603F05E
:101BE00001F8814602F0FEFF642119225643636822
:101BF0005B00B6FBF3F36426B3FBF6F3574366686A
:101C00007600B7FBF6F602FB08F867687F00B8FBC2
:101C1000F7F75FF0640CB7FBFCF701FB1766F60003
:101C200032366427B6FBF7F6760016F4F87616EB34
:101C3000031602FB09F963685B00B9FBF3F302FBCF
:101C400000F260684000B2FBF0F06422B0FBF2F0FA
:101C500001FB1031C80032306421B0FBF1F010F00C
:101C60000700861920688660A2E0206853498842F0
:101C700003D02068524988424DD102F0BEFF0600D1
:101C800002F0BBFF070002F0B8FF804602F0B5FF8C
:101C9000814602F0B2FF64211922564363689B001B
:101CA000B6FBF3F36426B3FBF6F357436668B6005E
:101CB000B7FBF6F602FB08F86768BF00B8FBF7F75A
:101CC0005FF0640CB7FBFCF701FB17663601323698
:101CD0006427B6FBF7F616F0F00616EB031602FBC8
:101CE00009F963689B00B9FBF3F302FB00F260683B
:101CF0008000B2FBF0F06422B0FBF2F001FB103187
:101D0000080132306421B0FBF1F010F00F008619A9
:101D1000206886604CE002F065FF060002F062FF7A
:101D2000070002F05FFF804602F05CFF814602F090
:101D300059FF64211922564363689B00B6FBF3F3F5
:101D40006426B3FBF6F357436668B600B7FBF6F6B6
:101D500002FB08F86768BF00B8FBF7F75FF0640C98
:101D6000B7FBFCF701FB1766360132366427B6FB7A
:101D7000F7F616F0F00616EB031602FB09F9636896
:101D80009B00B9FBF3F302FB00F260688000B2FB3A
:101D9000F0F06422B0FBF2F001FB103108013230A8
:101DA0006421B0FBF1F010F00F0086192068866006
:101DB000BDE8F18300000000F369FFFF001001405F
:101DC0000014014010B50446AFF30080204600F037
:101DD00005F80446AFF30080204610BD70B500F151
:101DE0000F04E408E400A0422CD2082C04D20824FA
:101DF00002E0083000F046F8DFF8FC201368190014
:101E000005D1002007E00568A5420DD2011D086834
:101E10000028F8D11868111D00E0191D0B688342D5
:101E20000CD01D68A542F8D361B10B681868A0F109
:101E30000805A54208D2586808600DE003F0ACFF21
:101E40000028D6D1002070BD1D190D60001B5E68F2
:101E50006E600D6828601C60096800291DBF486815
:101E60000028081D0020106003F1080070BD10B5A7
:101E7000040006D0AFF30080204600F003F8AFF373
:101E8000008010BD002800D1704770B4A0F1080296
:101E90001368072B2ED913F0070F2BD1DFF858400A
:101EA000616809B18A4203D25160626015E001465F
:101EB000486808B19042FAD308680E18B24219D3A4
:101EC000964203D11B180B600A4606E0486810B121
:101ED000134498420ED350604A60506850B1136862
:101EE000D518854206D1002626600168CB181360FC
:101EF0004068506070BC7047B0030020F8B5040023
:101F00000D0016001F003B009BB232002900C9B231
:101F1000A068D4F804C0E047F2BDF8B504000D0095
:101F200016001F003B009BB232002900C9B2A06816
:101F3000D4F800C0E047F2BD00EE100AB8EEC00AC7
:101F4000DFED020A80EE200A7047000000008045A5
:101F50007CB505000E0001230DF1010210212800BF
:101F6000FFF7CCFF0400002C06D101236A461121A3
:101F70002800FFF7C3FF0400002C0DD19DF80100DD
:101F800066F306108DF8010001230DF10102102106
:101F90002800FFF7C2FF0400002C18D13000C0B2A7
:101FA00000099DF8001060F341018DF80010300029
:101FB000C0B2C0089DF8001060F300018DF8001059
:101FC00001236A4611212800FFF7A7FF0400200023
:101FD00076BD38B504000D0001232A000F21200032
:101FE000FFF78CFF32BDB1F5807F02D34FF0FF3099
:101FF00070470170012070470078401E8041C04347
:10200000C00F7047F8B504000D0016001F003B001C
:102010009BB232002900C9B2A068D4F804C0E047DE
:10202000F2BDF8B504000D0016001F003B009BB286
:1020300032002900C9B2A068D4F800C0E047F2BD60
:1020400000B200EE100AB8EEC00ADFED020A20EE80
:10205000200A704723DB793D7CB505000E00012383
:102060006A4610212800FFF7CDFF0400002C0CD198
:102070009DF8000066F383008DF8000001236A4696
:1020800010212800FFF7CDFF0400200076BDFEB52B
:1020900005000E0037006946280000F009FF040023
:1020A000002C40F0B3809DF8001011F001019DF864
:1020B0000000C0F3400001439DF80000C0F3800021
:1020C00001439DF80000C0F3C00001439DF80000EB
:1020D000C0F3001001439DF80000C0F3401001431D
:1020E0009DF80000C0F3801001439DF80000C0B2CD
:1020F00051EAD0119DF8010010F0010001439DF854
:102100000100C0F3400001439DF80100C0F38000CE
:1021100001439DF80100C0F3C00001439DF8010098
:10212000C0F3001001439DF80100C0F340100143CB
:102130009DF80100C0F3801001439DF80100C0B27A
:1021400051EAD011C9B2012960D10DF10501280071
:1021500000F0C8FE0400002C58D19DF805000028AE
:1021600005D002281CD00BD3032830D04DE030001E
:10217000C0B2002802D10120070000E0370045E08E
:102180003000C0B2002802D10220070007E0300072
:10219000C0B2012802D10220070000E0370035E07C
:1021A0003000C0B2002802D1032007000EE030004A
:1021B000C0B2012802D10320070007E03000C0B2FE
:1021C000022802D10320070000E037001EE03000A3
:1021D000C0B2002802D10420070015E03000C0B2D0
:1021E000012802D1042007000EE03000C0B202280E
:1021F00002D10420070007E03000C0B2032802D15A
:102200000420070000E0370000E0370000208DF8D0
:102210000300002C69D10DF10301280000F098FEA5
:1022200004009DF8030001285FD101A9280000F0F7
:10223000AEFE0400002C58D19DF80400002805D003
:1022400002281CD00BD3032830D04DE03000C0B2A0
:10225000002802D10120070000E0370045E03000EF
:10226000C0B2002802D10220070007E03000C0B24F
:10227000012802D10220070000E0370035E03000DD
:10228000C0B2002802D1032007000EE03000C0B227
:10229000012802D10320070007E03000C0B2022865
:1022A00002D10320070000E037001EE03000C0B27A
:1022B000002802D10420070015E03000C0B2012838
:1022C00002D1042007000EE03000C0B2022802D183
:1022D0000420070007E03000C0B2032802D1042028
:1022E000070000E0370000E03700002C07D1012391
:1022F0000DF1020210212800FFF784FE0400002CDB
:102300000FD19DF8020010F00F0050EA07108DF871
:10231000020001230DF1020210212800FFF781FEC7
:1023200004002000FEBD7CB505000E0001236A46B6
:1023300011212800FFF766FE0400002C0CD19DF847
:10234000000066F343008DF8000001236A46112166
:102350002800FFF766FE0400200076BDFEB50500EC
:102360000E0037006946280000F0A2FD0400002C92
:1023700040F0B3809DF8001011F001019DF80000BD
:10238000C0F3400001439DF80000C0F3800001430A
:102390009DF80000C0F3C00001439DF80000C0F3A9
:1023A000001001439DF80000C0F3401001439DF868
:1023B0000000C0F3801001439DF80000C0B251EA54
:1023C000D0119DF8010010F0010001439DF80100BB
:1023D000C0F3400001439DF80100C0F380000143B9
:1023E0009DF80100C0F3C00001439DF80100C0F357
:1023F000001001439DF80100C0F3401001439DF817
:102400000100C0F3801001439DF80100C0B251EA01
:10241000D011C9B2012960D10DF10501280000F0E9
:1024200061FD0400002C58D19DF80500002805D05E
:1024300002281CD00BD3032830D04DE03000C0B2AE
:10244000002802D10120070000E0370045E03000FD
:10245000C0B2002802D10220070007E03000C0B25D
:10246000012802D10220070000E0370035E03000EB
:10247000C0B2002802D1032007000EE03000C0B235
:10248000012802D10320070007E03000C0B2022873
:1024900002D10320070000E037001EE03000C0B288
:1024A000002802D10420070015E03000C0B2012846
:1024B00002D1042007000EE03000C0B2022802D191
:1024C0000420070007E03000C0B2032802D1042036
:1024D000070000E0370000E0370000208DF803001F
:1024E000002C69D10DF10301280000F031FD04003A
:1024F0009DF8030001285FD101A9280000F047FDE5
:102500000400002C58D19DF80400002805D00228B2
:102510001CD00BD3032830D04DE03000C0B20028CF
:1025200002D10120070000E0370045E03000C0B2D2
:10253000002802D10220070007E03000C0B20128C5
:1025400002D10220070000E0370035E03000C0B2C1
:10255000002802D1032007000EE03000C0B201289D
:1025600002D10320070007E03000C0B2022802D1E8
:102570000320070000E037001EE03000C0B2002852
:1025800002D10420070015E03000C0B2012802D1BA
:10259000042007000EE03000C0B2022802D104205F
:1025A000070007E03000C0B2032802D10420070072
:1025B00000E0370000E03700002C07D101230DF1C7
:1025C000020211212800FFF71DFD0400002C0FD18D
:1025D0009DF8020010F00F0050EA07108DF802007D
:1025E00001230DF1020211212800FFF71AFD04005A
:1025F0002000FEBD7CB505000E0001236A461221B5
:102600002800FFF7FFFC0400002C0CD19DF800000F
:1026100066F386108DF8000001236A461221280017
:10262000FFF7FFFC0400200076BD38B504000D0064
:1026300001236A461E212000FFF7E4FC9DF80010EC
:1026400011F00101297032BD38B504000D000623D8
:102650002A0028212000FFF7D5FC32BD38B5040040
:102660000D0006232A0079212000FFF7CBFC32BDA4
:102670007CB505000E0001236A4601212800FFF702
:10268000C1FC0400002C0ED19DF8000010F03F00AA
:1026900050EA86108DF8000001236A4601212800C7
:1026A000FFF7BFFC0400200076BD38B504000D0024
:1026B00001232A000F212000FFF7A4FC32BD7CB5C6
:1026C00005000E0001236A4612212800FFF79AFC3C
:1026D0000400002C0CD19DF8000066F300008DF87A
:1026E000000001236A4612212800FFF79AFC04002B
:1026F000200076BD38B504000D0001236A46122182
:102700002000FFF77FFC9DF8001011F001012970F7
:1027100032BD7CB505000E0001236A461821280051
:10272000FFF770FC0400002C0FD13000C0B2C009CC
:102730009DF8001060F341018DF8001001236A46F6
:1027400018212800FFF76DFC0400002C07D101239D
:102750000DF1010262212800FFF754FC0400002C57
:102760000DD19DF8010066F3C4008DF8010001232E
:102770000DF1010262212800FFF753FC0400200044
:1027800076BD7FB505000E0002212800FFF770FF1F
:102790000400002C06D10123721D0D212800FFF733
:1027A00040FC0400002C06D10123B21C0A212800A1
:1027B000FFF737FC0400002C06D10123F21C0B218B
:1027C0002800FFF72EFC0400002C06D10123321D47
:1027D0000C212800FFF725FC0400002C04D1002167
:1027E0002800FFF745FF0400002C40F08280B078FD
:1027F000C0B2B178C1F3401151EAD011B078C0F342
:10280000C0000143B078C0F300100143F07810F02D
:1028100001000143F078C0F340000143F078C0F3B9
:1028200080000143F078C0F3C0000143F078C0F3AA
:1028300000100143F078C0F340100143F078C0F37A
:1028400080100143F078C0B251EAD011307910F015
:10285000010001433079C0F3400001433079C0F3F7
:10286000800001433079C0F3C00001433079C0F3E8
:10287000001001433079C0F3401001433079C0F3B8
:10288000801001433079C0B251EAD011707910F054
:10289000010001437079C0F3400001437079C0F337
:1028A000800001437079C0F3C00001437079C0F328
:1028B000001001437079C0F3401001437079C0F3F8
:1028C000801001437079C0B251EAD011C9B2002919
:1028D00004D0707850F00200707003E0707810F04F
:1028E000FD007070012332000D212800FFF799FBD5
:1028F0000400002C06D10123721C5E212800FFF782
:1029000090FB0400002C06D101236A4658212800C0
:10291000FFF778FB0400002C04D101A9280000F087
:10292000E1F80400002C40F093809DF80400C0F30F
:1029300080119DF80400C0F3400001439DF804009D
:10294000C0F3800001439DF8040010F00100014332
:102950009DF80400C0F3401001439DF80400C0F34B
:10296000001001439DF80400C0F3C00001439DF82E
:102970000500C0F3800001439DF80500C0F3C000CE
:1029800001439DF80500C0F3001001439DF80500C8
:10299000C0F3401001439DF80500C0F380100143CF
:1029A0009DF80500C0B251EAD0113078C0B251EAAA
:1029B000D0113078C0F3800001433078C0F380102C
:1029C00001433078C0F340000143307810F001003B
:1029D00001433078C0F3401001433078C0F3001059
:1029E00001433078C0F3C0000143707810F001005B
:1029F00001437078C0F3800001437078C0F3C000D9
:102A000001437078C0F3001001437078C0F34010A8
:102A100001437078C0F3801001437078C0B251EA6E
:102A2000D011C9B2002906D09DF8000050F08000F6
:102A30008DF8000005E09DF8000010F07F008DF893
:102A4000000001236A4658212800FFF7EAFA040033
:102A5000200004B070BD70B505000E0002212800F2
:102A6000FFF706FE0400002C06D10123721D0D2184
:102A70002800FFF7C7FA0400002C06D10123B21C7E
:102A80000A212800FFF7BEFA0400002C06D101231A
:102A9000F21C0B212800FFF7B5FA0400002C06D128
:102AA0000123321D0C212800FFF7ACFA0400002C92
:102AB00004D100212800FFF7DBFD0400002C06D123
:102AC000012332000D212800FFF79CFA0400002C9E
:102AD00006D10123721C5E212800FFF793FA04003F
:102AE000200070BD70B505000E0002212800FFF720
:102AF000BFFD0400002C06D10123721D1121280006
:102B0000FFF780FA0400002C06D10123B21C0E212D
:102B10002800FFF777FA0400002C06D10123F21CED
:102B20000F212800FFF76EFA0400002C06D10123C4
:102B3000321D10212800FFF765FA0400002C04D193
:102B400000212800FFF794FD0400002C06D101238A
:102B500032000E212800FFF755FA0400002C06D1A0
:102B60000123721C5F212800FFF74CFA04002000AB
:102B700070BD7CB505000E0001236A465621280071
:102B8000FFF740FA0400002C12D19DF8000066F314
:102B900000008DF800009DF8000066F386108DF8A7
:102BA000000001236A4656212800FFF73AFA040084
:102BB000002C04D102212800FFF75AFD0400002C4C
:102BC00007D101230DF1010217212800FFF71AFA9E
:102BD0000400002C12D19DF8010010F07F0031009C
:102BE000C9B2490850EAC1108DF8010001230DF166
:102BF000010217212800FFF714FA0400002C04D169
:102C000000212800FFF734FD0400200076BD7CB5CC
:102C100005000E0001236A4608212800FFF7F2F99B
:102C20000400002C13D130008DF80100300080B278
:102C3000000A9DF8001060F300018DF800100123D8
:102C40000DF1010207212800FFF7EBF90400002C29
:102C500006D101236A4608212800FFF7E2F90400A3
:102C6000200076BD7CB505000E0001236A460921CF
:102C70002800FFF7C7F90400002C0CD19DF80000D4
:102C800066F303008DF8000001236A46092128003D
:102C9000FFF7C7F90400200076BD7CB505000E00E3
:102CA00001236A4609212800FFF7ACF90400002C33
:102CB0000ED19DF8000010F00F0050EA06108DF8BC
:102CC000000001236A4609212800FFF7AAF9040041
:102CD000200076BD7CB505000E0001236A460A215E
:102CE0002800FFF78FF90400002C0CD19DF800009C
:102CF00066F302008DF8000001236A460A212800CD
:102D0000FFF78FF90400200076BD7CB505000E00AA
:102D100001230DF101023A212800FFF773F90400A5
:102D2000002C10D101236A463B212800FFF76AF9E5
:102D300004009DF8000010F0030000029DF801104F
:102D400050FA81F03080200076BD38B504000D00C7
:102D500001236A463B212000FFF754F99DF800103B
:102D6000C9B2C909297032BD38B504000D0001236C
:102D70006A4678212000FFF745F99DF80010C9B296
:102D8000C908C9B2012928D0022929D003292AD08B
:102D900005292BD006292CD007292DD008292ED083
:102DA00009292FD00A2930D00B2931D00C2932D053
:102DB0000D2933D00E2934D00F2935D0102936D023
:102DC000112937D0122938D0132939D014293AD0F3
:102DD00015293BD019293CD03EE0012129703DE066
:102DE000022129703AE00321297037E0052129707A
:102DF00034E00621297031E0072129702EE00821F6
:102E000029702BE00921297028E00A21297025E08A
:102E10000B21297022E00C2129701FE00D2129705F
:102E20001CE00E21297019E00F21297016E01021F5
:102E3000297013E01121297010E0122129700DE092
:102E4000132129700AE01421297007E01521297047
:102E500004E01921297001E00121297032BD7CB5FF
:102E600005000E0001212800FFF702FC0400002CE1
:102E700006D101236A4617212800FFF7C3F8040092
:102E8000002C0CD19DF8000066F3C3008DF8000003
:102E900001236A4617212800FFF7C3F80400002C1D
:102EA00004D100212800FFF7E3FB0400200076BDD9
:102EB00070B505000E0002212800FFF7D9FB0400C1
:102EC000002C06D10223320046212800FFF79AF891
:102ED0000400002C04D100212800FFF7C9FB0400E6
:102EE000200070BD7CB505000E0002212800FFF710
:102EF000BFFB0400002C06D101236A465F21280095
:102F0000FFF780F80400002C20D19DF80000C0B22B
:102F1000C00810F00300002805D0022809D005D30E
:102F2000032809D00BE0002030700AE00120307047
:102F300007E00220307004E00320307001E0002040
:102F4000307000212800FFF793FB0400200076BDBD
:102F50007CB505000E0002212800FFF789FB040064
:102F6000002C06D101236A4605212800FFF74AF804
:102F70000400002C09D100212800FFF779FB040090
:102F80009DF80000C0F300103070200076BD7CB5C5
:102F900005000E0002212800FFF76AFB0400002C48
:102FA00006D101236A4660212800FFF72BF80400B0
:102FB000002C20D19DF80000C0B2000910F00300E1
:102FC000002805D0022809D005D3032809D00BE03A
:102FD000002030700AE00120307007E002203070DD
:102FE00004E00320307001E0002030700021280050
:102FF000FFF73EFB0400200076BD70B505000E0013
:1030000001212800FFF734FB0400002C06D1122315
:10301000320002212800FEF7F5FF0400002C04D145
:1030200000212800FFF724FB0400200070BD7CB5C0
:1030300005000E0001212800FFF71AFB0400002CF8
:1030400006D101236A4614212800FEF7DBFF0400A5
:10305000002C0CD19DF8000066F301008DF80000F3
:1030600001236A4614212800FEF7DBFF0400002C30
:1030700004D100212800FFF7FBFA0400200076BDF0
:103080007CB505000E0001212800FFF7F1FA0400CD
:10309000002C06D101236A4614212800FEF7B2FF56
:1030A0000400002C0CD19DF8000066F382008DF81E
:1030B000000001236A4614212800FEF7B2FF040035
:1030C000002C04D100212800FFF7D2FA04002000D0
:1030D00076BD7CB505000E0001212800FFF7C8FA77
:1030E0000400002C06D101236A461A212800FEF7AD
:1030F00089FF0400002C0ED19DF8000010F03F0065
:1031000050EA86108DF8000001236A461A21280033
:10311000FEF787FF0400002C04D100212800FFF7F0
:10312000A7FA0400200076BD7CB505000E00012141
:103130002800FFF79DFA0400002C13D130789DF889
:103140000010490840418DF800009DF8000010F083
:10315000FE008DF8000001236A4615212800FEF7C5
:1031600060FF0400002C06D10123721C16212800E8
:10317000FEF757FF0400002C06D10123B21C2121C9
:103180002800FEF74EFF0400002C04D10021280087
:10319000FFF76EFA0400200076BD7CB505000E0036
:1031A00001212800FFF764FA0400002C13D13078C5
:1031B0009DF80010490840418DF800009DF800007E
:1031C00050F001008DF8000001236A461521280007
:1031D000FEF727FF0400002C06D10123721C1621E4
:1031E0002800FEF71EFF0400002C07D101230DF17B
:1031F000010217212800FEF705FF0400002C0ED164
:10320000B0789DF8011060F302018DF801100123E0
:103210000DF1010217212800FEF703FF0400002C26
:1032200004D100212800FFF723FA0400200076BD16
:1032300070B505000E0001212800FFF719FA0400FF
:10324000002C06D10123320022212800FEF7DAFEED
:103250000400002C04D100212800FFF709FA040023
:10326000200070BD62F30F2262F31F42401810F07D
:10327000030308D0C91A1FD3DB0748BF00F8012D8C
:1032800028BF20F8022D130030B41446154610391B
:1032900028BF20E93C00FAD8490728BF20E90C00E4
:1032A00048BF40F8042D890028BF20F8022D48BFF0
:1032B00000F8012D30BC7047C91818BF00F8012D67
:1032C000CB0728BF00F8012D70478268521C82602E
:1032D000426832B10268531C036011704168491E94
:1032E00041607047C0F3C75181B1FF2906D0C110BA
:1032F000400721F0E04101F16051704741020CBFED
:1033000040F4E0016FF000410020704700F0004100
:1033100000020AD0B0FA80FC00FA0CF001F1605112
:10332000A1EB0C5101EBD0214005704751EC100B83
:1033300000B500F003F841EC100B00BD40F2FF7C3B
:103340000B0D4DD0634566D230B421EA035141F4F0
:10335000801103F2FD3C5FEA5C0C01D30018494187
:10336000890041EA907180004FF440140023E2028A
:10337000D50AB1F5100107D46D081DD2091B6419D7
:1033800000184941491BF7D56D080AD20919641B79
:1033900000184941491BEFD56D08F7D301E05208E9
:1033A00017D0C01861419B1AAC4100184941801ADE
:1033B000A941F4D452080AD0C01AA1419B186C410B
:1033C00000184941801AA941E9D45208F4D15B1C84
:1033D0006C4161084FEA330001EB0C5130BC70477F
:1033E00050EA0103FBD030B4B1FA81F311B9B0FA5D
:1033F00080F41B190B3BB3F120042FBF00FA04F13A
:103400009940C3F1200420FA04F438BF21439840C6
:10341000D3F101039DE7634514BF50EA410CDEE799
:1034200011F5801FDBD8D943AFF3008070472E0021
:1034300001F000428B1AA3F16051B1F5801F0ADB45
:10344000B1F17F6F1FD242EAC102C10071F10041A8
:1034500042EB507070470B15C3F10903212B10D2BA
:10346000890241EA905180020128494141F000411E
:1034700021FA03F0C3F12003994071F1004150415A
:103480007047100070476FF0000013EB103F5CBFF7
:10349000000E42EAC05070472DE9F8410023002495
:1034A00000260025102D80F0ED80012717FA05F287
:1034B00013000A681A4014009C4240F0E1804A68F8
:1034C000022A02D04A68122A1FD12A00D20800EB31
:1034D0008202D2F820C05FF00F0E15F00702D2B2C0
:1034E00092001EFA02FE3CEA0E0CD1F810E015F034
:1034F0000702D2B292001EFA02FE5EEA0C0C664689
:103500002A00D20800EB82021662D0F800C05FF0F9
:10351000030E2A00D2B252001EFA02F23CEA020C5A
:1035200091F8048018F003082A00D2B2520018FA69
:1035300002F858EA0C0CC0F800C04A68012A08D00A
:103540004A68022A05D04A68112A02D04A68122A1B
:103550001BD186682A00D2B252001EFA02F29643AC
:10356000D1F80C802A00D2B2520018FA02F858EAB8
:10357000060686604268AF40BA434F68C7F300173B
:10358000AF403A439446C0F804C0C6682A00D2B29D
:1035900052001EFA02FE36EA0E068F682A00D2B2E8
:1035A000520097403E43C6604A68D20068D5002268
:1035B0000092444A176857F480471760126812F463
:1035C00080420092009ADFF800C12A0092085CF85D
:1035D00022705FF00F0E15F00302D2B292001EFAB5
:1035E00002FE37EA0E07394A904201D1002614E064
:1035F000374A904201D101260FE0364A904201D16C
:1036000002260AE0344A904201D1032605E0334AFB
:10361000904201D1042600E00726F6B215F003021D
:10362000D2B29200964037432A0092084CF822709A
:103630002B4E3268A243D1F804C05FEACC3C00D5DF
:1036400022433260274F3E68A643D1F804C05FEAA8
:103650008C3C00D526433E60234F3A68A243D1F804
:1036600004C05FEACC2C00D522433A601F4F3E686D
:10367000A643D1F804C05FEA8C2C00D526433E60F7
:103680006D1C0FE7BDE8F1811300DBB2002B03D006
:103690000B009BB2836103E00B009BB21B048361B0
:1036A000704710B5040012480168220092B211421E
:1036B00006D0210089B20160200080B2FDF7FAFF38
:1036C00010BD0000443802400838014000000240AC
:1036D0000004024000080240000C024000100240BA
:1036E000003C0140043C0140083C01400C3C0140CE
:1036F000143C014080B50B48016851F40071016031
:10370000016851F480610160016851F480710160C9
:10371000032002F0CBFB002002F000FC02F024FCAE
:10372000002002BD003C024010B586B00020009091
:103730002A48016851F001010160016811F001019E
:103740000091009900210091016851F00101016090
:10375000006810F0010000900098002000902048C0
:10376000016851F400310160006810F400300090ED
:10377000009804200190022002900020039007206E
:103780000590184C01A92000FFF786FE0820019043
:103790000720059001A92000FFF77EFE124C134878
:1037A00020601348006860600020A0600020E06096
:1037B000002020610020A0610C2060612000FEF745
:1037C00031F8002800D0FEE70A48A0624FF480706C
:1037D000A0850020E06306B010BD00BF3038024075
:1037E0004038024000000240E40200200044004053
:1037F000FC70000890000020F8B586B0142100226B
:103800006C462000FFF72EFD002005904F48016810
:1038100051F004010160016811F00401059105995E
:1038200000210591016851F080010160016811F0EB
:1038300080010591059900210591016851F0010170
:103840000160016811F001010591059900210591C0
:10385000016851F002010160006810F0020005905B
:1038600005983B4C002220212000FFF70DFF394D29
:10387000012280212800FFF707FF01224FF4C061D9
:103880002000FFF701FF344E012240213000FFF7F6
:10389000FBFE4FF400500090304801900020029051
:1038A00069462800FFF7F8FD012000902C4F019792
:1038B0000020029069462800FFF7EEFD4FF4C46037
:1038C00000900120019000200290002003906946A2
:1038D0002000FFF7E1FD80200090012001900020F2
:1038E00002900020039069462800FFF7D5FD2020B4
:1038F000009001970020029069463000FFF7CCFD50
:1039000040200090012001900020029000200390B0
:1039100069463000FFF7C0FD00220021062002F0BA
:10392000CBFA062002F0DDFA00220021172002F077
:10393000C3FA172002F0D5FA00220021282002F055
:10394000BBFA282002F0CDFA07B0F0BD30380240B3
:103950000000024000080240000402400000211064
:103960000000111080B53748374901603749416080
:10397000002181600021C1604FF48041016100217C
:103980004161002181610021C1610021016200F0DB
:10399000D5F8002801D0FCF73BFC01BD38B586B056
:1039A00004001421002201AD2800FFF75BFC206811
:1039B0002549884226D1002000902548016851F011
:1039C00002010160006810F00200009000984FF4BE
:1039D0004070019012200290012003900320049077
:1039E0000420059001A91B48FFF756FD0020009018
:1039F0001948016851F400110160006810F40010CA
:103A00000090009807B030BDFEB504000D00160010
:103A1000012741F288300290300080B20190009579
:103A200001232200D2B292B20C48017889B2054833
:103A300000F026FA002801D1002007003800C0B2AB
:103A4000FEBD00009002002000540040801A0600D5
:103A50003038024000040240403802408C00002010
:103A600080B52748274901605FF4E13141600021BA
:103A700081600021C160002101610C2141610021B0
:103A800081610021C161FDF7CDFE002801D0FCF766
:103A9000BFFB01BD38B586B004001421002201AD82
:103AA0002800FFF7DFFB20681649884225D1002057
:103AB00000901548016851F400310160006810F46D
:103AC000003000900098002000901048016851F0EC
:103AD00001010160006810F00100009000980C20C6
:103AE0000190022002900020039000200490072003
:103AF000059001A90648FFF7CFFC07B030BD0000D4
:103B00006403002000440040403802403038024046
:103B10000000024070B5040001F0D4F80500260052
:103B200016F1010F02D004480078361801F0CAF8E7
:103B3000401BB042FAD370BD8D00002070B5040068
:103B4000002C01D10120D5E094F83D00002805D1DA
:103B5000002084F83C002000FFF720FF242084F898
:103B60003D0020680068400840002168086001F0BE
:103B700039F80100DFF880016268824208D2DFF87C
:103B80007C21914201D2012200E00022D2B207E062
:103B9000DFF86C21914201D2012200E00022D2B272
:103BA000012A01D10120A5E0DFF85821B1FBF2F292
:103BB00023685B689B099B01134325686B6023683E
:103BC0001B6A6568854201D2551C08E04FF4967562
:103BD00005FB02F54FF47A76B5FBF6F56D1C9B09F3
:103BE0009B012B4325682B622368DB69656885424E
:103BF00014D2481E65686D00B0FBF5F0401C00054E
:103C0000000D042801D204253EE0481E65686D00C1
:103C1000B0FBF5F56D1C2D052D0D35E0A0680028D5
:103C200009D14D1E666803204643B5FBF6F0401CE3
:103C30000005000D0AE04D1E666819204643B5FBDD
:103C4000F6F0401C0005000D50F48040000501D145
:103C5000012519E0A068002809D14D1E66680320DF
:103C60004643B5FBF6F56D1C2D052D0D0AE04D1EE6
:103C7000666819204643B5FBF6F56D1C2D052D0D24
:103C800055F4804555F40045DFF87C0003402B4394
:103C90002068C3612068036833F0C003E069034310
:103CA000206A03432068036020688368DFF85C00B3
:103CB000034020690343E068034320688360206871
:103CC000C3681B0A1B02A569606905432B43206872
:103CD000C3602068006850F001002368186000206D
:103CE0002064202084F83D0000202063002084F818
:103CF0003E00002070BD0000A186010080841E00EF
:103D000000093D0040420F000030FFFF007CFFFF34
:103D10002DE9FE4F05000E0017009846DDF83090A3
:103D20000D9CDDF838A000F0CDFF834695F83D00EE
:103D3000202840F0A180CDF800B019230122DFF83F
:103D40004414280000F03CFB002801D0022094E03D
:103D500095F83C00012801D102208EE0012085F871
:103D60003C0028680068C00705D42868006850F047
:103D70000100296808602868006830F4006029683C
:103D80000860212085F83D00402085F83E00002095
:103D90002864C5F824906C85688D2885DFF8E003D9
:103DA000E862CDF804B0CDF800A043469BB23A00DB
:103DB00092B2310089B2280000F0E8F9002801D061
:103DC00001205AE0288D002833D05A465146280059
:103DD00000F098FB00280AD0286C042805D1286838
:103DE000006850F4007029680860012045E0686AA6
:103DF000007829680861686A401C6862288D401E46
:103E00002885688D401E6885286840694007D9D597
:103E1000288D0028D6D0686A007829680861686A09
:103E2000401C6862288D401E2885688D401E68856C
:103E3000C8E75A465146280000F090FB00280AD0F7
:103E4000286C042805D12868006850F4007029689F
:103E50000860012011E02868006850F400702968AB
:103E60000860202085F83D00002085F83E000020F5
:103E700085F83C00002000E00220BDE8FE8F000035
:103E80002DE9F24F82B0050016001F00DDF83080EA
:103E90000D9CDDF8389000F015FF824695F83D0046
:103EA000202840F06A81CDF800A019230122DFF814
:103EB000D412280000F084FA002801D002205DE12D
:103EC00095F83C00012801D1022057E1012085F836
:103ED0003C0028680068C00705D42868006850F0D6
:103EE0000100296808602868006830F400602968CB
:103EF0000860222085F83D00402085F83E00002023
:103F00002864C5F824806C85688D2885DFF87002E8
:103F1000E862CDF804A0CDF800903B009BB23200DF
:103F200092B2BDF80810280000F09EF9002801D0D8
:103F3000012023E1288D00280FD10020009028685F
:103F4000406900902868806900900098286800689F
:103F500050F40070296808603AE0288D012815D1D6
:103F60002868006830F480602968086000200090AC
:103F70002868406900902868806900900098286847
:103F8000006850F400702968086021E0288D02283C
:103F900015D12868006830F48060296808602868B6
:103FA000006850F4006029680860002000902868CC
:103FB00040690090286880690090009808E000201F
:103FC00000902868406900902868806900900098F7
:103FD000288D002800F0C680288D042880F0998064
:103FE000288D012816D152464946280000F0E2FAF1
:103FF000002801D00120C1E028680069696A0870C2
:10400000686A401C6862288D401E2885688D401EA5
:104010006885DDE7288D02282DD1CDF800A04B461C
:104020000022DFF86411280000F0CAF9002801D04E
:104030000120A3E02868006850F400702968086037
:1040400028680069696A0870686A401C6862288D7F
:10405000401E2885688D401E688528680069696A49
:104060000870686A401C6862288D401E2885688D2B
:10407000401E6885ACE7DFF810B1CDF800A04B46D4
:1040800000225946280000F09BF9002801D00120A9
:1040900074E02868006830F4806029680860286847
:1040A0000069696A0870686A401C6862288D401E51
:1040B0002885688D401E6885CDF800A04B460022FB
:1040C0005946280000F07CF9002801D0012055E075
:1040D0002868006850F40070296808602868006942
:1040E000696A0870686A401C6862288D401E2885CD
:1040F000688D401E688528680069696A0870686A6A
:10410000401C6862288D401E2885688D401E688589
:104110005EE752464946280000F04CFA002801D0DC
:1041200001202BE028680069696A0870686A401CF1
:104130006862288D401E2885688D401E6885286825
:10414000406940077FF544AF28680069696A0870D4
:10415000686A401C6862288D401E2885688D401E54
:10416000688535E7202085F83D00002085F83E0071
:10417000002085F83C00002000E00220BDE8FE8F12
:104180000000FFFF02001000040001002DE9F843C9
:1041900004000D0016001F00DDF82080DDF82490DB
:1041A0002068006850F4807021680860CDF80090A5
:1041B000434600225FF00111200000F001F90028C1
:1041C00001D001204EE015F0FE00216808614B4649
:1041D00042467A49200000F038F9002801D0012039
:1041E00040E00020009020684069009020688069CD
:1041F000009000984A464146200000F083F90028CC
:104200000AD0206C042805D12068006850F40070A2
:1042100021680860012025E0380080B2012804D11F
:104220003000C0B2216808611BE0300080B2000A93
:10423000C0B2216808614A464146200000F062F998
:1042400000280AD0206C042805D12068006850F4AA
:10425000007021680860012004E03000C0B22168CD
:1042600008610020BDE8F2832DE9FC4704000D0041
:1042700016001F00DDF82880DDF82C90206800680B
:1042800050F48060216808602068006850F48070F5
:1042900021680860CDF80090434600225FF00111CC
:1042A000200000F08DF8002801D0012084E015F0F6
:1042B000FE0021680861DFF804A14B4642465146E2
:1042C000200000F0C2F8002801D0012074E0002096
:1042D00000902068406900902068806900900098F4
:1042E0004A464146200000F00DF900280AD0206C13
:1042F000042805D12068006850F400702168086027
:10430000012059E0380080B2012804D13000C0B249
:10431000216808611BE0300080B2000AC0B2216849
:1043200008614A464146200000F0ECF800280AD017
:10433000206C042805D12068006850F400702168C2
:104340000860012038E03000C0B2216808614A46A8
:104350004146200000F0D6F800280AD0206C04283E
:1043600005D12068006850F40070216808600120C1
:1043700022E02068006850F4807021680860CDF861
:104380000090434600225FF00111200000F018F871
:10439000002801D001200FE055F00100C0B22168D3
:1043A00008614B4642465146200000F04EF8002876
:1043B00001D0012000E00020BDE8F68702000100E6
:1043C0002DE9F04105000E0017001C00DDF81880F3
:1043D0003000000CC0B201280AD128684069304082
:1043E00080B2B1B2884201D101200BE0002009E087
:1043F00028688069304080B2B1B2884201D1012082
:1044000000E000203900C9B288421BD114F1010F2D
:10441000DED000F057FCB0EB0800844201D3002C42
:10442000D6D100202863202085F83D00002085F8A3
:104430003E00286C50F020002864002085F83C00E5
:10444000012000E00020BDE8F081F8B505000E0075
:1044500014001F003000000CC0B201280AD12868E7
:104460004069304080B2B1B2884201D101200BE0F6
:10447000002009E028688069304080B2B1B28842EB
:1044800001D1012000E00020002839D128684069CE
:1044900040051AD52868006850F400702968086043
:1044A0007FF480602968486100202863202085F817
:1044B0003D00002085F83E00286C50F00400286480
:1044C000002085F83C0001201BE014F1010FC1D051
:1044D00000F0F8FBC01B844201D3002CBAD10020AD
:1044E0002863202085F83D00002085F83E00286CD8
:1044F00050F020002864002085F83C00012000E0F6
:104500000020F2BD70B505000C0016002868406957
:10451000000621D4280000F086F8002801D00120F0
:104520001BE014F1010FF1D000F0CCFB801B8442A2
:1045300001D3002CEAD100202863202085F83D001B
:10454000002085F83E00286C50F0200028640020F0
:1045500085F83C00012000E0002070BD70B505002A
:104560000C00160028684069400721D4280000F09C
:104570005AF8002801D001201BE014F1010FF1D0FE
:1045800000F0A0FB801B844201D3002CEAD1002064
:104590002863202085F83D00002085F83E00286C27
:1045A00050F020002864002085F83C00012000E045
:1045B000002070BD70B505000C0016002868406929
:1045C00040062ED428684069C00612D57FF010003E
:1045D0002968486100202863202085F83D000020DC
:1045E00085F83E00286C2864002085F83C000120F6
:1045F00018E000F067FB801B844201D3002CDDD162
:1046000000202863202085F83D00002085F83E002A
:10461000286C50F020002864002085F83C00012020
:1046200000E0002070BD010008684069400514D515
:104630007FF480600A68506100200863202081F8C0
:104640003D00002081F83E00086C50F00400086432
:10465000002081F83C00012000E00020704743006A
:1046600062B38B0708D0521E11F8013B00F8013BE2
:1046700000F024808B07F6D1830740F0208000BF34
:10468000103A07D330B4B1E83810103AA0E8381027
:10469000F9D230BC530724BFB1E80810A0E80810D5
:1046A00044BF51F8043B40F8043BD20724BF31F823
:1046B000022B20F8022B44BF0B7803707047121FA7
:1046C00017D35B0009D151F8043B20F8023B1B0CC7
:1046D000121F20F8023BF6D20BE051F8043B00F821
:1046E000013B1B0A20F8023B1B0C121F00F8013B88
:1046F000F3D238BF121D521E24BF11F8013B00F83F
:10470000013BF8D87047FDF7B2BB10B5044601F085
:1047100057FC01462046896ABDE810400847000062
:104720002DE9FC410400002C01D10120A2E12078F8
:10473000C0075CD5DFF84003016811F00C010429C3
:1047400009D0006810F00C0008280ED1DFF82C0307
:104750000068400209D5DFF828030068800346D5C9
:104760006068002843D1012084E16068B0F5803F93
:1047700006D1DFF80C03016851F48031016017E0C5
:104780006068B0F5A02F0AD1DFF8F402016851F497
:1047900080210160016851F48031016008E0B8486F
:1047A000016831F480310160016831F480210160D9
:1047B000606800280DD000F085FA0500B048006858
:1047C000800314D400F07EFA401B6528F6D3032042
:1047D00050E100F077FA0500A9480068800306D58B
:1047E00000F070FA401B6528F6D3032042E12078E0
:1047F00080074BD5A048016811F00C0F08D0006865
:1048000010F00C00082814D19C480068400210D415
:104810009B480168890704D5E168012901D001207E
:1048200028E1016831F0F801226951EAC201016012
:104830002CE0E068002818D001209249086000F0C0
:1048400041FA05008E480168890706D400F03AFA5B
:10485000401B0328F6D303200CE1016831F0F80176
:10486000226951EAC201016010E000208549086018
:1048700000F028FA050082480068800706D500F09D
:1048800021FA401B0328F6D30320F3E02078000729
:1048900024D56069002810D001207B49086000F011
:1048A00011FA050079480068800717D400F00AFA69
:1048B000401B0328F6D30320DCE000207249086087
:1048C00000F000FA050071480068800706D500F086
:1048D000F9F9401B0328F6D30320CBE020784007EA
:1048E00075D500266A4F3868C0000CD400200090AF
:1048F000386850F080503860386810F08050009070
:10490000009801200600DFF88C81D8F80000C0056F
:1049100013D4D8F8000050F48070C8F8000000F0FC
:10492000D1F90500D8F80000C00506D400F0CAF996
:10493000401B0328F6D303209CE0A068012805D182
:104940005548016851F00101016015E0A068052893
:1049500009D15148016851F004010160016851F02A
:104960000101016008E04C48016849084900016004
:10497000016831F004010160A06800280FD000F048
:10498000A1F9050044480068800718D400F09AF99E
:10499000401B41F289318842F4D303206AE000F0E1
:1049A00091F905003C480068800708D500F08AF9B5
:1049B000401B41F289318842F4D303205AE0300091
:1049C000C0B2012803D1386830F080503860A06947
:1049D00000284ED02848006810F00C00082846D067
:1049E000A069022832D12D4E0020306000F06AF913
:1049F0000700DFF88C80D8F80000800106D500F0B1
:104A000061F9C01B0328F4D3032033E0E169206A75
:104A10000143606A51EA8011A06A4008401E51EAD1
:104A20000041E06A51EA00611448016001203060F1
:104A300000F048F90500D8F80000800119D400F012
:104A400041F9401B0328F6D3032013E0002013494B
:104A5000086000F037F9050009480068800108D5B2
:104A600000F030F9401B0328F6D3032002E00120B8
:104A700000E00020BDE8F68108380240043802401A
:104A80000038024000004742800E4742743802401E
:104A900040380240007000407038024060004742D9
:104AA0002DE9F04104000D00002C01D1012094E01B
:104AB000574F386810F00F00A84207D23D70386891
:104AC00010F00F00A84201D0012086E02078800776
:104AD00016D52078400704D54E48016851F4E051BE
:104AE00001602078000704D54A48016851F460410C
:104AF000016048490A6832F0F002A06802430A6087
:104B00002078C00738D56068012805D14248006880
:104B1000800313D4012060E06068022802D060683E
:104B2000032805D13C480068800107D4012054E0E7
:104B300039480068800701D401204EE0DFF8D480B6
:104B4000D8F800108908890060680143C8F800108F
:104B500000F0B8F80600D8F8000010F00C0061680A
:104B6000B0EB810F08D000F0ADF8801B41F2893125
:104B70008842F0D3032030E0386810F00F008542FF
:104B800007D23D70386810F00F00A84201D0012014
:104B900023E02078400706D51E490A6832F4E05227
:104BA000E06802430A602078000707D519480168C9
:104BB00031F46041226951EAC201016000F034F829
:104BC0001649144A1268C2F30312895CC84014499A
:104BD0000860002001F0A2F90020BDE8F081104833
:104BE0000068704780B5FFF7FAFF0E49094A12685E
:104BF000C2F38222895CC84002BD80B5FFF7EFFF97
:104C00000849044A1268C2F34232895CC84002BDB6
:104C1000003C02400838024000380240A4700008FE
:104C200008000020F47000082DE9F0410024002560
:104C3000002600271F48006810F00C00002804D050
:104C4000042804D0082804D031E01B4830E01B4879
:104C50002EE0DFF86C80D8F8000010F03F00040070
:104C6000D8F8000040020CD5D8F80000C0F3881036
:104C70001249A1FB00012200002301F0DFF9050029
:104C80000BE0D8F80000C0F388100B49A1FB00012D
:104C90002200002301F0D2F90500D8F80000C0F38B
:104CA0000140401C40000600B5FBF6F000E0024861
:104CB000BDE8F081083802400024F40000127A00B8
:104CC0000438024001480068704700BFC00300205C
:104CD0002DE9F14FB2B09946924600230691CDE9F5
:104CE00000333C9A0F930DF14A0114914A7011E080
:104CF000329E57462C4617F8011B0698B0470028ED
:104D0000069000F026810F98401C641E0F90F2D18F
:104D10003296AA449AF80000252808D100210022E2
:104D200009910A920B910C920D910E920FE06A4636
:104D30004FF0FF31504601F077F9050002D10F988E
:104D400000F066BED4D50125E3E741F001011AF871
:104D5000010F2028F9D023280CD02B2804D02D288F
:104D600005D0302809D00BE041F00201EFE741F017
:104D70000401ECE741F00801E9E741F01001E6E742
:104D80002A280FD1D9F8002052F8040BC9F80020C6
:104D90000028119003D54042119041F004010AF11E
:104DA000010A14E01192DFF8EC3B0AE011989842F6
:104DB00005DA00EB800402EB4402303A11920AF16A
:104DC000010A9AF80020A2F130000A28EED39AF8DE
:104DD00000002E2803D04FF0FF32109229E01AF87D
:104DE000010F2A2809D1D9F8000050F8042BC9F87E
:104DF000000010920AF1010A1BE02D280CBF0AF1F5
:104E0000010A002000221092DFF8882B0BE040B945
:104E1000109B934205DA03EB830504EB4504303C19
:104E200010940AF1010A9AF80040A4F130030A2B09
:104E3000EDD3ADF848100FF660309AF8001001F08D
:104E400015FA08B11AF8010B8DF84A009DF84A00CE
:104E5000682805D19AF8000068280CD1622106E084
:104E60006C2804BF9AF800006C2804D171218DF8D9
:104E70004A100AF1010A1FA808901AF801BBBBF1F9
:104E800025012DD01C3900F06181091F022940F253
:104E90005D810E392AD0491F00F0B384093900F032
:104EA0005581891E00F04985491E00F0F584491E90
:104EB000022940F24B81091F00F0EE84491F00F0E7
:104EC000BA80491E00F09D84491E65D0C91E21D0BC
:104ED000891E00F09684C91E00F0938400F04CBD3A
:104EE00025238DF87C30012109912AE06C208DF872
:104EF0004A00D9F8000050F8042BC9F80000002A35
:104F000043D11499487800283DD04FF0FF340FF674
:104F1000902012E09DF84A006C28EAD0D9F80000F1
:104F200050F8044BC9F800000794D4B91499487894
:104F300098B14FF0FF340FF6842001F0A3F9201A46
:104F400007D132981FAA04A900F065FD00287FF55B
:104F5000E1AE4FF0FF3000F05BBD0FF67C20079014
:104F6000EFE7109D002D04D52046FCF723FC0446F6
:104F700007E02A46204601F0A5F9002814BF041BCB
:104F80002C460A94DDE70FF65422329804A900F06B
:104F9000C8FD0028D5D5DCE7D9F8001051F8040B7E
:104FA000C9F8001020F00004002121F0FF351FABEC
:104FB000CDE904450793DDE9042308993C2413B99E
:104FC0000AB9109898B102F00F053035641EEEB2A0
:104FD0003A2EA8BF2735120942EA03721B090D5564
:104FE00008BF002A03D007980D19A842EBD308196F
:104FF0000790C4F13C0210980A92824209DABDF887
:105000004810821A4FF6EF7001400C92ADF848102C
:1050100097E7002895D59DF8480000F01400102867
:105020008FD1119B09990C985B1A1B1A9A1A002AA6
:1050300087DD0C9285E71499487820B14FF0FF3452
:105040000FF69C1079E79DF84A00622862D0682824
:1050500019D06A2840D06C2806D071284DD0742809
:105060002DD07A281ED064E0D9F8001051F8040B36
:10507000C9F8001020B94FF0FF340FF67C105CE740
:105080000F9901605DE7D9F8001051F8040BC9F8D9
:10509000001020B94FF0FF340FF65C104DE70F9968
:1050A00001804EE7D9F8001051F8040BC9F8001040
:1050B0000028E5D14FF0FF340FF63C103DE7D9F85A
:1050C000001051F8040BC9F800100028D8D14FF097
:1050D000FF340FF6241030E7D9F8001051F8040B14
:1050E000C9F8001020B94FF0FF340FF60C1024E778
:1050F0000F9AD317C0E9002323E7D9F8001051F81D
:10510000040BC9F800100028F2D14FF0FF340FF65D
:10511000E80012E7D9F8001051F8040BC9F80010A4
:1051200020B94FF0FF340FF6D00006E70F99017059
:1051300007E7D9F8001051F8040BC9F8001000284F
:105140009ED14FF0FF340FF6B000F6E6D9F80020FC
:10515000D21D22F00702C9F80020D2E9000108326E
:10516000C9F80020CDE90401C80F02D009982D210B
:105170000AE0BDF84800810702D509982B2103E019
:10518000C00705D5099820211FAA1154401C099079
:10519000DDE9042309991FA8CDE92E2308444BF02B
:1051A00020016129079015AC0BD01099002902D578
:1051B0000621109105E001BF4BF020016729012273
:1051C0001092DDE9042359004915491C10D11A0336
:1051D0000ED0ABF1610503211A2D0A9102D20FF610
:1051E000A43101E00FF6A0310322FFF739FAA8E657
:1051F00059004915491C0AD11A0308D1ABF16105C0
:1052000003211A2D0A9116D30FF68431ECE7DDE95C
:105210000401CDE93001DDE9302323F00047B7F583
:10522000801F22F000060DD20022002F08BF002EA2
:10523000029203D116E00FF65431D5E702AA01F02D
:105240006DF80FE0DFF8EC0ADFF8EC1A00EB17500E
:105250000290DDE930234FF0FF301940DFF8DC7AAF
:1052600010403943CDE904014BF0200061280DD1F5
:10527000079830210170821CBBF1610F07920CBFAF
:105280007821582141700998801C0990DDE90401BA
:1052900020F0000231F0004308BF002A02D10026AE
:1052A000002571E14BF02008B8F1610F40F0BE809D
:1052B0001098002847BF21210391401C0390039FB1
:1052C000DDE92E017F1C00220023DDE9044501F009
:1052D0005DF802998DF8542038BF85F00045091F0C
:1052E000002F02910DF155065DDDDFF8541ACDE96E
:1052F000302140F2FF732E932046294600220023DE
:1053000001F05CF84FD24800400D00F11C0215D0AE
:10531000002A13DD2E9B9A420ADBDDE9300121F0E1
:10532000004205F000400243DDE93001114611E082
:105330006FF31E5141EA025120460BE024F00000B9
:1053400035F0004108BF00280FBF29461C2229461E
:1053500001F04CF804460D4601F0E6F8FF1F002F5F
:10536000804609DD01F0FEF802460B46204629463C
:1053700001F00AF904460D46F01D0721B8F1000FAF
:105380000CDD491E5EBF08F00F0200F8012D4FEA48
:105390002818F3D502E0002200F8012D491EFAD5A5
:1053A000C61D002FA8DC0DF15500361A0398864261
:1053B000D8BF304600280DF1550430D4B04206DA8B
:1053C0000DF155010A5C082AA8BF0F2100DA00215F
:1053D000024615AB134400E0401E13F80159521E5B
:1053E0008D42F9D00F2904D10DF155018B5C5B1C66
:1053F0008B54002A04D50299091D15AC401C02915A
:10540000411E0CD46218ABF13A0613783033DDB28A
:105410003A2DA8BFF318491E02F80139F5D51099A5
:10542000002940F1AF80421E1092ABE00299DFF8F4
:10543000142947F29750414391FBF2F2DDE92E45E2
:10544000029225F00045D2F1070204DD20462946EC
:1054500000F04CFC0BE052420020DFF8EC1800F0AA
:1054600045FC02460B462046294601F0FFF804465B
:10547000B8F1660F109806BF029F0A3706273F183B
:10548000142FC8BF142730208DF854000D4600207B
:10549000DFF8B818CDE92E010DF15506002F33DDE8
:1054A0002046294601F006FA01460A4606F108039D
:1054B00004200A26B2FBF6F606EB860EA2EB4E029D
:1054C000303203F8012C0A22B6FBF2F202EB820E14
:1054D000A6EB4E063036401E03F8026DE9D1083FB8
:1054E000002F03F10806D9DD084601F0F7F902465E
:1054F0000B462046294601F047F8DDE92E2301F04E
:10550000FBF904460D46CBE70DF15500361A0DF1B7
:10551000550404E00298401E761E0290641C207818
:105520003028F7D0B8F1660F02D10299491C04E087
:10553000B8F1650F0CBF01210021109808188642B0
:10554000B8BF701E00281DD4B04204DA215C342993
:10555000C8BF392100DC30210246631E9D1800E0DF
:10556000401E15F80169521E8E42F9D0392902D128
:10557000A15C491CA154002A04D50299491C1C466F
:10558000401C02910646029D00F052FD406A0778D9
:10559000DDF8408030B2002802DC01260FF2F474FE
:1055A0004BF02000662808BF6D1C16D0672846D136
:1055B00028B210F1040F48DB404546DA9DF8480058
:1055C0006D1C010703D430B24045B8BF804628B2F5
:1055D000B8EB000848BF4FF000080FFA85FB0798AA
:1055E0000A99BBF1000F00F3B2804A1C0A923023E3
:1055F0004354B8F1000F03DC9DF84800010704D5BF
:105600000A98411C0A9107990F5418EB0B0FB8BF69
:10561000C8F100052DB268420D90A84432B2904501
:10562000B8BF4646079B0A9836B20B9632462146CB
:105630001844FFF715F8A8EB06000E90CBE0BBF17D
:10564000610F17D14FF0700B19E030B2404504DA0A
:105650009DF848100A0758BF8046B8F1010848BFB6
:105660004FF00008BBF1670F14BF4FF0450B4FF030
:10567000650B04E0BBF1410F08BF4FF0500B0A98D7
:10568000411C0A91B8F1000F079914F8012B0A5434
:1056900003DC9DF8480001071AD50A98411C0A91BD
:1056A000B8F1000F07990F5412DD761E30B2804515
:1056B00007980A9BB8BF464632B221461844FEF707
:1056C000CFFF0A9936B271180A91A8EB06000D9027
:1056D00007980A9908442AB2002A80F800B003D437
:1056E0002B224270811C04E02D2141701546811C43
:1056F0006D4200202EAA0A2409E02B4693FBF4F504
:1057000005EB8506A3EB460302F8013B401C2DB2D6
:10571000002DF2DC012806DC4BF02002652A04BFD4
:10572000302201F8012B00282EAA08D1302001F8E0
:10573000010B06E0401E135C303301F8013B0028EA
:10574000F8DC079A0A981044091A0B9143E00844C0
:1057500031B22AB2914219DA32B22146FEF780FF05
:105760000A9936B27118ABEB0606B8F1000F0A9130
:105770000D9603DC9DF84800020704D507984754AE
:105780000B99491C0B91CDF8388024E02146FEF797
:1057900067FF0A98761B5844B8F1000F0A9003DCA3
:1057A0009DF848100A0703D5411C0A9107990F5428
:1057B00030B2804507980A9BB8BF464632B204EB28
:1057C0000B011844FEF74CFF0A9836B230180A90C5
:1057D000A8EB06000D909DF8480000F0140010287A
:1057E0007FF4AFAB099A0A990D988A180B99821821
:1057F0000E988A18821811988242BFF6A2AB821ABC
:1058000017E49DF84A00622808D068280ED06A285C
:1058100014D06C281FD0712810D01CE0D9F80010CB
:1058200051F8040BC9F80010C0B21AE0D9F8001002
:1058300051F8040BC9F8001080B212E0D9F800202A
:10584000D21D22F00702C9F80020D2E90001083277
:10585000C9F8002006E0D9F8001051F8040BC9F887
:1058600000100021CDE904019DF8480001075AD538
:10587000DDE90423002B08BF002A54D04BF02000A0
:10588000782850D109981FA930220A54401C431C83
:10589000099301F800B046E09DF84A00622808D05C
:1058A00068280ED06A2814D06C281FD0712810D018
:1058B0001CE0D9F8001051F8040BC9F8001040B2F0
:1058C0001AE0D9F8001051F8040BC9F8001000B222
:1058D00012E0D9F80020D21D22F00702C9F80020FA
:1058E000D2E900010832C9F8002006E0D9F800101A
:1058F00051F8040BC9F80010C117CDE904010029C3
:1059000002D509982D210AE0BDF84800810702D58B
:1059100009982B2103E0C00705D5099820211FAA6B
:105920001154401C09901FA809990144079104A82B
:10593000594600F056F9FFF704BB9DF84A006C2861
:105940000BD001210991D9F8000050F8041BC9F8C7
:1059500000008DF87C10FFF7F4BAD9F8000050F879
:10596000041BC9F8000015914FF0FF32109200217E
:10597000169115AAFFF709BB25210122BBF1000FE3
:105980008DF87C1009923FF4DCAA8DF87DB00221DD
:10599000FFF7AABACBCCCC0C686A6C747A4C0000C6
:1059A0007072696E74665F733A2062616420256C60
:1059B0007320617267756D656E7400007072696E38
:1059C00074665F733A206261642025732061726798
:1059D000756D656E7400000000000000000000009E
:1059E0007072696E74665F733A20256E2064697305
:1059F000616C6C6F776564007072696E74663A20D2
:105A000062616420256E20617267756D656E740039
:105A100033B0BDE8F08F2DE9FC410F4606469046B5
:105A20007A6B7869396ABC6A121AB869521A796A4B
:105A3000121AF869521A121A97F83800141B410703
:105A40000FD42020002C8DF800000ADD254601230C
:105A50006A463946304600F07DF900285DD16D1E5A
:105A6000F5D17B6942463946304600F073F900288B
:105A700053D130208DF800003D6A002D09DD01234F
:105A80006A463946304600F065F9002845D16D1E5A
:105A9000F5D1BB69FA683946304600F05BF9002859
:105AA0003BD130208DF800007D6A002D08DD0123F8
:105AB0006A463946304600F04DF970BB6D1EF6D18E
:105AC000F868B969FB6942183946304600F042F976
:105AD00018BB30208DF80000BD6A002D08DD0123C1
