:020000040800F2
:10000000D00B0020316B0008896B00088D6B000855
:10001000916B0008956B0008996B000800000000C8
:10002000000000000000000000000000456900081A
:100030009D6B00080000000047690008496900083E
:10004000A16B0008A56B0008A96B0008AD6B000848
:10005000B16B0008B56B000851690008B96B000866
:10006000BD6B0008C16B0008C56B0008C96B0008B8
:10007000CD6B0008D16B0008D56B0008D96B000868
:10008000DD6B0008E16B0008E56B00080000000074
:100090000000000000000000000000005B69000894
:1000A000E96B0008ED6B0008F16B0008F56B0008C8
:1000B000F96B0008FD6B0008016C0008056C000876
:1000C000096C00080D6C0008116C0008156C000824
:1000D000196C00081D6C0008216C0008000000006D
:1000E00065690008256C0008296C00080000000004
:1000F0000000000000000000000000002D6C00085F
:1001000000000000316C0008356C0008396C0008F4
:1001100000000000000000000000000000000000DF
:100120003D6C0008416C0008456C0008496C0008F3
:100130004D6C0008000000000000000000000000FE
:10014000000000000000000000000000516C0008EA
:10015000556C0008596C00085D6C0008616C000863
:10016000656C0008696C00080000000000000000D9
:10017000000000000000000000000000000000007F
:10018000000000006D6C000800000000000000008E
:10019000716C0008F8B504000D0016001F003B004C
:1001A0009BB232002900C9B2A068D4F804C0E0476D
:1001B000F2BDF8B504000D0016001F003B009BB215
:1001C00032002900C9B2A068D4F800C0E047F2BDEF
:1001D00000B200EE100AB8EEC00ADFED020A20EE0F
:1001E000200A704723DB793D7CB505000E00012312
:1001F0006A4610212800FFF7CDFF0400002C0CD127
:100200009DF8000066F383008DF8000001236A4624
:1002100010212800FFF7CDFF0400200076BDFEB5B9
:1002200005000E0037006946280000F009FF0400B1
:10023000002C40F0B3809DF8001011F001019DF8F2
:100240000000C0F3400001439DF80000C0F38000AF
:1002500001439DF80000C0F3C00001439DF8000079
:10026000C0F3001001439DF80000C0F340100143AB
:100270009DF80000C0F3801001439DF80000C0B25B
:1002800051EAD0119DF8010010F0010001439DF8E2
:100290000100C0F3400001439DF80100C0F380005D
:1002A00001439DF80100C0F3C00001439DF8010027
:1002B000C0F3001001439DF80100C0F3401001435A
:1002C0009DF80100C0F3801001439DF80100C0B209
:1002D00051EAD011C9B2012960D10DF10501280000
:1002E00000F0C8FE0400002C58D19DF8050000283D
:1002F00005D002281CD00BD3032830D04DE03000AD
:10030000C0B2002802D10120070000E0370045E01C
:100310003000C0B2002802D10220070007E0300000
:10032000C0B2012802D10220070000E0370035E00A
:100330003000C0B2002802D1032007000EE03000D8
:10034000C0B2012802D10320070007E03000C0B28C
:10035000022802D10320070000E037001EE0300031
:10036000C0B2002802D10420070015E03000C0B25E
:10037000012802D1042007000EE03000C0B202289C
:1003800002D10420070007E03000C0B2032802D1E8
:100390000420070000E0370000E0370000208DF85F
:1003A0000300002C69D10DF10301280000F098FE34
:1003B00004009DF8030001285FD101A9280000F086
:1003C000AEFE0400002C58D19DF80400002805D092
:1003D00002281CD00BD3032830D04DE03000C0B22F
:1003E000002802D10120070000E0370045E030007E
:1003F000C0B2002802D10220070007E03000C0B2DE
:10040000012802D10220070000E0370035E030006B
:10041000C0B2002802D1032007000EE03000C0B2B5
:10042000012802D10320070007E03000C0B20228F3
:1004300002D10320070000E037001EE03000C0B208
:10044000002802D10420070015E03000C0B20128C6
:1004500002D1042007000EE03000C0B2022802D111
:100460000420070007E03000C0B2032802D10420B6
:10047000070000E0370000E03700002C07D101231F
:100480000DF1020210212800FFF784FE0400002C69
:100490000FD19DF8020010F00F0050EA07108DF800
:1004A000020001230DF1020210212800FFF781FE56
:1004B00004002000FEBD7CB505000E0001236A4645
:1004C00011212800FFF766FE0400002C0CD19DF8D6
:1004D000000066F343008DF8000001236A461121F5
:1004E0002800FFF766FE0400200076BDFEB505007B
:1004F0000E0037006946280000F0A2FD0400002C21
:1005000040F0B3809DF8001011F001019DF800004B
:10051000C0F3400001439DF80000C0F38000014398
:100520009DF80000C0F3C00001439DF80000C0F337
:10053000001001439DF80000C0F3401001439DF8F6
:100540000000C0F3801001439DF80000C0B251EAE2
:10055000D0119DF8010010F0010001439DF8010049
:10056000C0F3400001439DF80100C0F38000014347
:100570009DF80100C0F3C00001439DF80100C0F3E5
:10058000001001439DF80100C0F3401001439DF8A5
:100590000100C0F3801001439DF80100C0B251EA90
:1005A000D011C9B2012960D10DF10501280000F078
:1005B00061FD0400002C58D19DF80500002805D0ED
:1005C00002281CD00BD3032830D04DE03000C0B23D
:1005D000002802D10120070000E0370045E030008C
:1005E000C0B2002802D10220070007E03000C0B2EC
:1005F000012802D10220070000E0370035E030007A
:10060000C0B2002802D1032007000EE03000C0B2C3
:10061000012802D10320070007E03000C0B2022801
:1006200002D10320070000E037001EE03000C0B216
:10063000002802D10420070015E03000C0B20128D4
:1006400002D1042007000EE03000C0B2022802D11F
:100650000420070007E03000C0B2032802D10420C4
:10066000070000E0370000E0370000208DF80300AD
:10067000002C69D10DF10301280000F031FD0400C8
:100680009DF8030001285FD101A9280000F047FD73
:100690000400002C58D19DF80400002805D0022841
:1006A0001CD00BD3032830D04DE03000C0B200285E
:1006B00002D10120070000E0370045E03000C0B261
:1006C000002802D10220070007E03000C0B2012854
:1006D00002D10220070000E0370035E03000C0B250
:1006E000002802D1032007000EE03000C0B201282C
:1006F00002D10320070007E03000C0B2022802D177
:100700000320070000E037001EE03000C0B20028E0
:1007100002D10420070015E03000C0B2012802D148
:10072000042007000EE03000C0B2022802D10420ED
:10073000070007E03000C0B2032802D10420070000
:1007400000E0370000E03700002C07D101230DF155
:10075000020211212800FFF71DFD0400002C0FD11B
:100760009DF8020010F00F0050EA07108DF802000B
:1007700001230DF1020211212800FFF71AFD0400E8
:100780002000FEBD7CB505000E0001236A46122143
:100790002800FFF7FFFC0400002C0CD19DF800009E
:1007A00066F386108DF8000001236A4612212800A6
:1007B000FFF7FFFC0400200076BD38B504000D00F3
:1007C00001236A461E212000FFF7E4FC9DF800107B
:1007D00011F00101297032BD38B504000D00062367
:1007E0002A0028212000FFF7D5FC32BD38B50400CF
:1007F0000D0006232A0079212000FFF7CBFC32BD33
:100800007CB505000E0001236A4601212800FFF790
:10081000C1FC0400002C0ED19DF8000010F03F0038
:1008200050EA86108DF8000001236A460121280055
:10083000FFF7BFFC0400200076BD38B504000D00B2
:1008400001232A000F212000FFF7A4FC32BD7CB554
:1008500005000E0001236A4612212800FFF79AFCCA
:100860000400002C0CD19DF8000066F300008DF808
:10087000000001236A4612212800FFF79AFC0400B9
:10088000200076BD38B504000D0001236A46122110
:100890002000FFF77FFC9DF8001011F00101297086
:1008A00032BD7CB505000E0001236A4618212800E0
:1008B000FFF770FC0400002C0FD13000C0B2C0095B
:1008C0009DF8001060F341018DF8001001236A4685
:1008D00018212800FFF76DFC0400002C07D101232C
:1008E0000DF1010262212800FFF754FC0400002CE6
:1008F0000DD19DF8010066F3C4008DF801000123BD
:100900000DF1010262212800FFF753FC04002000D2
:1009100076BD7FB505000E0002212800FFF770FFAD
:100920000400002C06D10123721D0D212800FFF7C1
:1009300040FC0400002C06D10123B21C0A2128002F
:10094000FFF737FC0400002C06D10123F21C0B2119
:100950002800FFF72EFC0400002C06D10123321DD5
:100960000C212800FFF725FC0400002C04D10021F5
:100970002800FFF745FF0400002C40F08280B0788B
:10098000C0B2B178C1F3401151EAD011B078C0F3D0
:10099000C0000143B078C0F300100143F07810F0BC
:1009A00001000143F078C0F340000143F078C0F348
:1009B00080000143F078C0F3C0000143F078C0F339
:1009C00000100143F078C0F340100143F078C0F309
:1009D00080100143F078C0B251EAD011307910F0A4
:1009E000010001433079C0F3400001433079C0F386
:1009F000800001433079C0F3C00001433079C0F377
:100A0000001001433079C0F3401001433079C0F346
:100A1000801001433079C0B251EAD011707910F0E2
:100A2000010001437079C0F3400001437079C0F3C5
:100A3000800001437079C0F3C00001437079C0F3B6
:100A4000001001437079C0F3401001437079C0F386
:100A5000801001437079C0B251EAD011C9B20029A7
:100A600004D0707850F00200707003E0707810F0DD
:100A7000FD007070012332000D212800FFF799FB63
:100A80000400002C06D10123721C5E212800FFF710
:100A900090FB0400002C06D101236A46582128004F
:100AA000FFF778FB0400002C04D101A9280000F016
:100AB000E1F80400002C40F093809DF80400C0F39E
:100AC00080119DF80400C0F3400001439DF804002C
:100AD000C0F3800001439DF8040010F001000143C1
:100AE0009DF80400C0F3401001439DF80400C0F3DA
:100AF000001001439DF80400C0F3C00001439DF8BD
:100B00000500C0F3800001439DF80500C0F3C0005C
:100B100001439DF80500C0F3001001439DF8050056
:100B2000C0F3401001439DF80500C0F3801001435D
:100B30009DF80500C0B251EAD0113078C0B251EA38
:100B4000D0113078C0F3800001433078C0F38010BA
:100B500001433078C0F340000143307810F00100C9
:100B600001433078C0F3401001433078C0F30010E7
:100B700001433078C0F3C0000143707810F00100E9
:100B800001437078C0F3800001437078C0F3C00067
:100B900001437078C0F3001001437078C0F3401037
:100BA00001437078C0F3801001437078C0B251EAFD
:100BB000D011C9B2002906D09DF8000050F0800085
:100BC0008DF8000005E09DF8000010F07F008DF822
:100BD000000001236A4658212800FFF7EAFA0400C2
:100BE000200004B070BD70B505000E000221280081
:100BF000FFF706FE0400002C06D10123721D0D2113
:100C00002800FFF7C7FA0400002C06D10123B21C0C
:100C10000A212800FFF7BEFA0400002C06D10123A8
:100C2000F21C0B212800FFF7B5FA0400002C06D1B6
:100C30000123321D0C212800FFF7ACFA0400002C20
:100C400004D100212800FFF7DBFD0400002C06D1B1
:100C5000012332000D212800FFF79CFA0400002C2C
:100C600006D10123721C5E212800FFF793FA0400CD
:100C7000200070BD70B505000E0002212800FFF7AE
:100C8000BFFD0400002C06D10123721D1121280094
:100C9000FFF780FA0400002C06D10123B21C0E21BC
:100CA0002800FFF777FA0400002C06D10123F21C7C
:100CB0000F212800FFF76EFA0400002C06D1012353
:100CC000321D10212800FFF765FA0400002C04D122
:100CD00000212800FFF794FD0400002C06D1012319
:100CE00032000E212800FFF755FA0400002C06D12F
:100CF0000123721C5F212800FFF74CFA040020003A
:100D000070BD7CB505000E0001236A4656212800FF
:100D1000FFF740FA0400002C12D19DF8000066F3A2
:100D200000008DF800009DF8000066F386108DF835
:100D3000000001236A4656212800FFF73AFA040012
:100D4000002C04D102212800FFF75AFD0400002CDA
:100D500007D101230DF1010217212800FFF71AFA2C
:100D60000400002C12D19DF8010010F07F0031002A
:100D7000C9B2490850EAC1108DF8010001230DF1F4
:100D8000010217212800FFF714FA0400002C04D1F7
:100D900000212800FFF734FD0400200076BD7CB55B
:100DA00005000E0001236A4608212800FFF7F2F92A
:100DB0000400002C13D130008DF80100300080B207
:100DC000000A9DF8001060F300018DF80010012367
:100DD0000DF1010207212800FFF7EBF90400002CB8
:100DE00006D101236A4608212800FFF7E2F9040032
:100DF000200076BD7CB505000E0001236A4609215E
:100E00002800FFF7C7F90400002C0CD19DF8000062
:100E100066F303008DF8000001236A4609212800CB
:100E2000FFF7C7F90400200076BD7CB505000E0071
:100E300001236A4609212800FFF7ACF90400002CC1
:100E40000ED19DF8000010F00F0050EA06108DF84A
:100E5000000001236A4609212800FFF7AAF90400CF
:100E6000200076BD7CB505000E0001236A460A21EC
:100E70002800FFF78FF90400002C0CD19DF800002A
:100E800066F302008DF8000001236A460A2128005B
:100E9000FFF78FF90400200076BD7CB505000E0039
:100EA00001230DF101023A212800FFF773F9040034
:100EB000002C10D101236A463B212800FFF76AF974
:100EC00004009DF8000010F0030000029DF80110DE
:100ED00050FA81F03080200076BD38B504000D0056
:100EE00001236A463B212000FFF754F99DF80010CA
:100EF000C9B2C909297032BD38B504000D000123FB
:100F00006A4678212000FFF745F99DF80010C9B224
:100F1000C908C9B2012928D0022929D003292AD019
:100F200005292BD006292CD007292DD008292ED011
:100F300009292FD00A2930D00B2931D00C2932D0E1
:100F40000D2933D00E2934D00F2935D0102936D0B1
:100F5000112937D0122938D0132939D014293AD081
:100F600015293BD019293CD03EE0012129703DE0F4
:100F7000022129703AE00321297037E00521297008
:100F800034E00621297031E0072129702EE0082184
:100F900029702BE00921297028E00A21297025E019
:100FA0000B21297022E00C2129701FE00D212970EE
:100FB0001CE00E21297019E00F21297016E0102184
:100FC000297013E01121297010E0122129700DE021
:100FD000132129700AE01421297007E015212970D6
:100FE00004E01921297001E00121297032BD7CB58E
:100FF00005000E0001212800FFF702FC0400002C70
:1010000006D101236A4617212800FFF7C3F8040020
:10101000002C0CD19DF8000066F3C3008DF8000091
:1010200001236A4617212800FFF7C3F80400002CAB
:1010300004D100212800FFF7E3FB0400200076BD67
:1010400070B505000E0002212800FFF7D9FB04004F
:10105000002C06D10223320046212800FFF79AF81F
:101060000400002C04D100212800FFF7C9FB040074
:10107000200070BD7CB505000E0002212800FFF79E
:10108000BFFB0400002C06D101236A465F21280023
:10109000FFF780F80400002C20D19DF80000C0B2BA
:1010A000C00810F00300002805D0022809D005D39D
:1010B000032809D00BE0002030700AE001203070D6
:1010C00007E00220307004E00320307001E00020CF
:1010D000307000212800FFF793FB0400200076BD4C
:1010E0007CB505000E0002212800FFF789FB0400F3
:1010F000002C06D101236A4605212800FFF74AF893
:101100000400002C09D100212800FFF779FB04001E
:101110009DF80000C0F300103070200076BD7CB553
:1011200005000E0002212800FFF76AFB0400002CD6
:1011300006D101236A4660212800FFF72BF804003E
:10114000002C20D19DF80000C0B2000910F003006F
:10115000002805D0022809D005D3032809D00BE0C8
:10116000002030700AE00120307007E0022030706B
:1011700004E00320307001E00020307000212800DE
:10118000FFF73EFB0400200076BD70B505000E00A1
:1011900001212800FFF734FB0400002C06D11223A4
:1011A000320002212800FEF7F5FF0400002C04D1D4
:1011B00000212800FFF724FB0400200070BD7CB54F
:1011C00005000E0001212800FFF71AFB0400002C87
:1011D00006D101236A4614212800FEF7DBFF040034
:1011E000002C0CD19DF8000066F301008DF8000082
:1011F00001236A4614212800FEF7DBFF0400002CBF
:1012000004D100212800FFF7FBFA0400200076BD7E
:101210007CB505000E0001212800FFF7F1FA04005B
:10122000002C06D101236A4614212800FEF7B2FFE4
:101230000400002C0CD19DF8000066F382008DF8AC
:10124000000001236A4614212800FEF7B2FF0400C3
:10125000002C04D100212800FFF7D2FA040020005E
:1012600076BD7CB505000E0001212800FFF7C8FA05
:101270000400002C06D101236A461A212800FEF73B
:1012800089FF0400002C0ED19DF8000010F03F00F3
:1012900050EA86108DF8000001236A461A212800C2
:1012A000FEF787FF0400002C04D100212800FFF77F
:1012B000A7FA0400200076BD7CB505000E000121D0
:1012C0002800FFF79DFA0400002C13D130789DF818
:1012D0000010490840418DF800009DF8000010F012
:1012E000FE008DF8000001236A4615212800FEF754
:1012F00060FF0400002C06D10123721C1621280077
:10130000FEF757FF0400002C06D10123B21C212157
:101310002800FEF74EFF0400002C04D10021280015
:10132000FFF76EFA0400200076BD7CB505000E00C4
:1013300001212800FFF764FA0400002C13D1307853
:101340009DF80010490840418DF800009DF800000C
:1013500050F001008DF8000001236A461521280095
:10136000FEF727FF0400002C06D10123721C162172
:101370002800FEF71EFF0400002C07D101230DF109
:10138000010217212800FEF705FF0400002C0ED1F2
:10139000B0789DF8011060F302018DF8011001236F
:1013A0000DF1010217212800FEF703FF0400002CB5
:1013B00004D100212800FFF723FA0400200076BDA5
:1013C00070B505000E0001212800FFF719FA04008E
:1013D000002C06D10123320022212800FEF7DAFE7C
:1013E0000400002C04D100212800FFF709FA0400B2
:1013F000200070BD10B5DFF8E84BDFF8E82B4FF4A4
:101400008071200001F0F2F8200001F011F90200D3
:1014100041F2883392B22100DFF8CC0B01F07BF966
:1014200010BD7CB5FF208DF801008DF80000DFF8BD
:10143000BC4B0FF6FD2020600FF629306060DFF80E
:10144000B06BA6600C2001F0FBFB05000FF64120FD
:1014500068600FF6A5102860AE606946280001F0AC
:101460007EFC9DF80000B32800D0FEE70DF10101DD
:101470002000FFF7E2F99DF801006C2800D0FEE79C
:1014800001212000FFF7E3F90DF102012000FFF731
:10149000F9F99DF802000028F6D180212000FFF71D
:1014A00000FA1221280001F019FC73BD70B52DED72
:1014B000048BB0EE408AF0EE608A04000D009FEDD0
:1014C000559A38EE680AB4EE490AF1EE10FA2DDBAF
:1014D000AC4215DADFF8086BDFF8182B4FF4807197
:1014E000300001F083F8300001F0A2F8020041F270
:1014F000883392B23100DFF8000D01F00CF92AE0D8
:10150000DFF8DC6ADFF8F02A4FF48071300001F078
:101510006DF8300001F08CF841F28833020092B28D
:101520003100DFF8D40C01F0F6F814E0DFF8B06A0F
:10153000DFF8C82C4FF48071300001F057F830000C
:1015400001F076F841F28833020092B23100DFF800
:10155000A80C01F0E0F8BDEC048B70BD2DE9F34F51
:1015600081B00500160000208DF800000027300033
:1015700001F05EF88046DFF868BA029BDFF8842C41
:101580004FF48071584601F031F8584601F050F898
:10159000DFF8549A41F2883A5346020092B2594613
:1015A000484601F0B8F84FF47A73012269462800E2
:1015B00001F021F90028F6D19DF800000D2823D173
:1015C00000200400444506D23800315DC0B2884294
:1015D00001D0641CF6E7444513D13B00DBB2DFF8D1
:1015E000282C4FF48071584601F000F8584601F05D
:1015F0001FF85346020092B25946484601F08BF854
:10160000D1E73800C0B203E09DF800000700CAE748
:10161000BDE8FE8FCDCC4C3D2DE9F84384B00400ED
:101620000D00160010275FF00008E9464246390019
:10163000484601F0ADFB0020A8422DDA142101FB41
:1016400000F22244127C3300DBB29A4222D101FB29
:1016500000F121449DED000AD1ED000A30EE200A90
:101660008DED000A9DED010AD1ED010A30EE200A50
:101670008DED010A9DED020AD1ED020A30EE200A3D
:101680008DED020A9DED030AD1ED030A30EE200A2A
:101690008DED030A401CCFE700EE105AB8EEC00AE9
:1016A000DDED000A80EE800A8DED000A00EE105A92
:1016B000B8EEC00ADDED010A80EE800A8DED010A68
:1016C00000EE105AB8EEC00ADDED020A80EE800A84
:1016D0008DED020A00EE105AB8EEC00ADDED030AE5
:1016E00080EE800A8DED030A684690EC040A05B08E
:1016F000BDE8F0832DE9F0472DED068B84B08146DF
:101700000E00B0EE408AF0EE608AB0EE419AF0EE44
:10171000619A9246102400256F462A002100380065
:1017200001F036FB0027B74280F27F80142000FBD7
:1017300007F14944097C5246D2B2914273D100FB71
:1017400007F009EB000898ED000A30EE480A10EEA9
:10175000100A01F05DFB41EC1A0B009801F058FBF8
:1017600004000D0053EC1A2B51EC1A0B01F074FB22
:1017700022002B0001F042FC01F0FEFC009098EDED
:10178000010A30EE680A10EE100A01F041FB41EC4C
:101790001A0B019801F03CFB04000D0053EC1A2BCE
:1017A00051EC1A0B01F058FB22002B0001F026FC33
:1017B00001F0E2FC019098ED020A30EE490A10EEC9
:1017C000100A01F025FB41EC1A0B029801F020FBF6
:1017D00004000D0053EC1A2B51EC1A0B01F03CFBEA
:1017E00022002B0001F00AFC01F0C6FC029098EDEB
:1017F000030A30EE690A10EE100A01F009FB41EC11
:101800001A0B039801F004FB04000D0053EC1A2B93
:1018100051EC1A0B01F020FB22002B0001F0EEFB33
:1018200001F0AAFC03907F1C7DE7701E00EE100AF9
:10183000B8EEC00ADDED000A80EE800A8DED000AE8
:10184000701E00EE100AB8EEC00ADDED010A80EE4F
:10185000800A8DED010A701E00EE100AB8EEC00A73
:10186000DDED020A80EE800A8DED020A701E00EEA8
:10187000100AB8EEC00ADDED030A80EE800A8DED95
:10188000030A009801F0C4FA41EC100B01F0A8FC27
:1018900051EC100B01F070FC0090019801F0B8FAC7
:1018A00041EC100B01F09CFC51EC100B01F064FCBE
:1018B0000190029801F0ACFA41EC100B01F090FCA1
:1018C00051EC100B01F058FC0290039801F0A0FAC3
:1018D00041EC100B01F084FC51EC100B01F04CFCBE
:1018E0000390684690EC040A04B0BDEC068BBDE89A
:1018F000F0872DE9F0472DED048BBEB0DFF8EC66E4
:10190000DFF8187C3868010089B23000FFF747FA29
:1019100001213000FFF7A6FA03213000FFF7F1F9AB
:101920000DA93000FFF75FF99DF8340050F0080072
:101930008DF834000DA93000FEF7EBFF01213000D7
:10194000FFF755FB03213000FFF78BFC012130002E
:10195000FFF750FA01213000FFF767FA5D208DF89C
:10196000280027208DF8290006208DF82A000AA9D2
:101970003000FFF7DAFC00213000FFF720FC0121E6
:101980003000FFF745FC00213000FEF72DFC06215A
:101990003000FEF790FD01213000FEF7F3FE01213B
:1019A0003000FEF73CFC01213000FEF79FFD0020D7
:1019B000ADF822000020ADF82400002400250DF130
:1019C00021013000FFF789FA9DF821000028EED0B0
:1019D0000DF122013000FFF760FABDF82200411E30
:1019E000ADF8221080B2002800F08B8009A93000E9
:1019F000FFF753FA08A93000FFF77EFA9DF82000A0
:101A0000012838D0022802D00E2844D069E05FF0C7
:101A100006085FF000090DF13C0A4A46414650466F
:101A200001F0B6F90FA93000FEF7E0FE3868032197
:101A300090FBF1F02100C9B28142CEDA5FF00008DC
:101A40004046C0B2032814DA15A82100C9B2090122
:101A500008444146C9B200EB81090FA84146C9B20A
:101A600030F91100FEF7B4FB89ED000A18F1010806
:101A7000E6E7641CB1E75FF006085FF000090DF1CE
:101A80004C0A4A464146504601F082F913A93000FB
:101A9000FEF7ACFEA1E75FF008085FF000090DF16A
:101AA0002C0A4A464146504601F072F90BA9300013
:101AB000FEF79CFE00208DF82C003868032190FB77
:101AC000F1F02900C9B2814287DA0B9801F0FAF8E7
:101AD00015A82900C9B20901084480ED030A6D1C4C
:101AE0007BE75FF006085FF000090DF1440A4A4603
:101AF0004146504601F04CF911A93000FEF776FE40
:101B00006BE728002100C0B2C9B2884201D22E0082
:101B100000E02600002738003100C0B2C9B2884278
:101B20004FD215A83900C9B2090100EB0109DFF84D
:101B3000B084D9F80C0001F06BF9CDE90601D9F8B1
:101B4000080001F065F9CDE90401D9F8040001F0BD
:101B50005FF9CDE90201D9F8000001F059F9CDE9AA
:101B600000013B00DBB25B1CDFF81C2A4FF48071E4
:101B7000404600F03BFD404600F05AFD41F28833FC
:101B8000020092B24146DFF8040A00F0C4FD99ED6C
:101B9000000A38EE000AB0EE408A99ED010A38EEEC
:101BA000800AF0EE408A99ED020A39EE000AB0EEA2
:101BB000409A99ED030A39EE800AF0EE409A7F1CB4
:101BC000A9E73000C0B200EE100AB8EE400A88EE75
:101BD000000AB0EE408A3000C0B200EE100AB8EE43
:101BE000400A88EE800AF0EE408A3000C0B200EE73
:101BF000100AB8EE400A89EE000AB0EE409A3000B2
:101C0000C0B200EE100AB8EE400A89EE800AF0EE8B
:101C1000409ADFF8CC7319EE900A01F0F9F8CDE99B
:101C2000060119EE100A01F0F3F8CDE9040118EEEF
:101C3000900A01F0EDF8CDE9020118EE100A01F06A
:101C4000E7F8CDE90001DFF848294FF4807138004A
:101C500000F0CCFC380000F0EBFC020041F28833CD
:101C600092B23900DFF8240900F055FDB0EE480AC1
:101C7000F0EE680AB0EE491AF0EE691A3EB0BDEC1B
:101C8000048BBDE8F08710B5DFF85443DFF8042972
:101C90004FF48071200000F0A9FC200000F0C8FC87
:101CA000020041F2883392B22100DFF83C0300F0D9
:101CB00032FDDFF8E448206830F0020020600121A6
:101CC000002001F00FFB206850F00200206010BDE2
:101CD000704710B586B0040000200090DFF8BC0803
:101CE000016851F400310160006810F40030009088
:101CF000009800200090DFF8A808016851F0010169
:101D00000160006810F00100009000980C20019024
:101D100002200290002003900320049007200590E9
:101D200001A9DFF8800801F0EFFA06B010BD38B560
:101D3000050000242800C0B2022803D37FF0010070
:101D4000040014E0DFF86018DFF860082A00D2B25F
:101D500050F822202B00DBB240204343CA502A0017
:101D6000D2B24020424301EB0200FFF7B2FF200055
:101D700032BD7CB501F0F6FB00F076FB01F00CFC07
:101D800001F072FC01F026FD01F0A2FDFFF7A0FFBB
:101D90000020FFF7CCFF924CDFF814284FF480713D
:101DA000200000F023FC200000F042FC02008E4DD9
:101DB00041F28836330092B22100280000F0ABFCDB
:101DC000FFF72FFBFFF75FFFDFF8E8274FF4807185
:101DD000200000F00BFC200000F02AFC3300020081
:101DE00092B22100280000F096FC012269460F20E3
:101DF00001F042FD73BD00002DE9F84384B00400FA
:101E00000D0016001F005D208DF804008DF80550B0
:101E100030788DF80600DFF8D49101A94846FFF725
:101E20004BFA804600214846FEF7F9F90121484661
:101E3000FFF7EEF904214846FEF7F1F902A94846FA
:101E4000FEF7CAFC142001F09DFD0DF1010148468A
:101E5000FEF7B3FC9DF801000028F3D0142001F038
:101E600091FD69464846FFF7ABFA9DF8000010F077
:101E700001000028F2D000214846FFF7C9F90021EF
:101E80004846FEF7CCF9404605B0BDE8F0830000B7
:101E90002DE9F84384B004000D0016001F00DFF8A0
:101EA0004C8100214046FEF7BAF95D208DF8040010
:101EB0008DF8055038008DF8060001A94046FFF75F
:101EC00034FA814600214046FFF779F90121404666
:101ED000FFF79EF904214046FEF7A1F902A940460A
:101EE000FEF77AFC142001F04DFD0DF10101404692
:101EF000FEF763FC9DF801000028F3D069464046D8
:101F0000FFF75EFA9DF8000010F001000028F5D000
:101F100000214046FFF77CF900214046FEF77FF99B
:101F200031004046FFF731F9484605B0BDE8F0837F
:101F3000FEB504000D0016001F002D4884420ED18E
:101F40004FF47A700290380080B20190009601231D
:101F50002A00D2B292B2D721200001F011FE002057
:101F6000FEBD0000FEB504000D0016001F00204855
:101F700084420ED14FF47A700290380080B2019002
:101F8000009601232A00D2B292B2D721200001F09C
:101F9000AFFE0020FEBD0000F4EE400AF1EE10FAA4
:101FA0000BD5F0EE402AB0EE600AF0EE620AB0EE19
:101FB000412AB0EE611AF0EE421A30EEC03A71EEEC
:101FC000212ADFED8F3AF4EE632AF1EE10FA02D502
:101FD000B6EE002A01E081EE222A02EE030A7047E3
:101FE00090010020406B0008E4020020A4030020C0
:101FF00090020020DC6A0008886A000870B594B07E
:1020000004000D00012229002000FFF705FB04A8B1
:1020100080EC040A002229002000FFF7FDFA684640
:1020200080EC040A012204A890EC040A2900200094
:10203000FFF760FB10A880EC040A0022684690ECD1
:10204000040A29002000FFF755FB0CA880EC040AC5
:102050000026032E1CDA0CA800EB8600D0ED001A37
:1020600010A800EB860090ED001A684600EB860091
:10207000D0ED000A04A800EB860090ED000AFFF7FF
:102080008BFF08A800EB860080ED000A761CE0E7D5
:10209000DDED0F1A9DED131ADDED030A9DED070A24
:1020A000FFF77AFF8DED0B0A08A890EC040A14B034
:1020B00070BD0A00002A022A02D9D21E05D007E00C
:1020C00000EB810090ED000A04E090ED030A01E0CE
:1020D000BFEE000A704720EE000A70472DE9F44F6A
:1020E0002DED048B04000D00B0EE408A0026002781
:1020F0005FF000085FF000095FF0000AAA4526DAE9
:102100005FF0140B04990BFB0AF02044FFF7D1FF9A
:10211000B4EE480AF1EE10FA0AD50BFB0AFB04EB09
:102120000B00007C012801D1761C0DE07F1C0BE028
:102130000BFB0AFB04EB0B00007C012802D118F119
:10214000010801E019F101091AF1010AD6E717EBBC
:10215000090ADFEDC48ABAF1010F17DB97FBFAF029
:1021600000EE100AB8EEC00AFFF7B5FFF7EE000A5E
:1021700030EEC09A99FBFAF000EE100AB8EEC00AF1
:10218000FFF7A9FF39EE400AF0EE408A16EB080B84
:102190009FEDB49ABBF1010F17DB96FBFBF000EE4D
:1021A000100AB8EEC00AFFF796FFF7EE000A70EECD
:1021B000C09A98FBFBF000EE100AB8EEC00AFFF7D9
:1021C0008AFF39EEC00AB0EE409A00EE10BAB8EEBF
:1021D000C00A20EE090A00EE90AAF8EEE00A00EE2E
:1021E000A80A00EE905AF8EEE00A80EE200ABDEC54
:1021F000048BBDE8F18F0000E4020020A46A00080F
:1022000095BFD633586B0008C06A00082DE9F84F17
:102210002DED028BB0B0FFF7ACFD502500261CACB5
:1022200032002900200000F0B3FD0024042C3DDA28
:10223000FFF75FFB14251CA805FB04F1084480ECA4
:10224000040AD24EDFF87023DFF870133000FFF776
:1022500085F907003800C0B202F039F9752805D1B8
:1022600001201CA905FB04F2114408741CA805FBFD
:1022700004F52844007C002801D0A7A300E0D04B3F
:10228000D04DD14A4FF48071280000F0AFF92800FA
:1022900000F0CEF941F28833020092B229003000FA
:1022A00000F039FAFFF7EFFC641CBFE704211CA81B
:1022B000FFF7A4FE08A880EC040AC24C0B9800F0BB
:1022C000A7FDCDE906010A9800F0A2FDCDE90401C1
:1022D000099800F09DFDCDE90201089800F098FDF5
:1022E000CDE90001B94A4FF48071200000F07EF979
:1022F000200000F09DF941F288352B00020092B2D7
:102300002100A24800F007FAFFF7BDFC0026042ECA
:102310000FDA310008A8FFF7CCFE320004211CA818
:10232000FFF7DCFE0CA800EB860080ED000A761CAF
:10233000EDE70CAEF06800F06BFDCDE90601B0688A
:1023400000F066FDCDE90401706800F061FDCDE9A3
:1023500002010C9800F05CFDCDE900019C4A4FF4AD
:102360008071200000F042F9200000F061F92B009C
:10237000020092B22100854800F0CDF9954E3078E8
:102380000028FBD05FF030095FF0000A10AF524622
:102390004946380000F0FCFC9FED7A8ADFED318A77
:1023A00000275FF000085FF0000BBBF1030F32DA8B
:1023B000FFF79FFA10A85FEA0B11084480EC040AAB
:1023C00010A85FEA0B11084490ED030AF4EE408A6E
:1023D000F1EE10FA08D510A85FEA0B11084490ED51
:1023E000030AF0EE408AD84610A85FEA0B110844B1
:1023F00090ED030AB4EE480AF1EE10FA08D510A8E1
:102400005FEA0B11084490ED030AB0EE408A5F4684
:102410001BF1010BC9E738EEC80A10EE100A00F0F4
:10242000F7FCCDE900016C4A4FF48071200000F008
:10243000DDF8200000F0FCF802002B0092B2210031
:10244000524800F068F939004046F0EE480AB0EE14
:10245000680AFFF72BF800216048FEF703FD002013
:1024600030708BE70000000010B592B030210022E0
:1024700006AC200000F08CFC1421002201AC2000EE
:1024800000F086FC002000904448016851F0805123
:102490000160006810F080500090009800200090CB
:1024A0004F48016831F4404151F400410160006837
:1024B00010F44040009000980220069001200990FE
:1024C00010200A9002200C9000200D9010200E90F9
:1024D0004FF4A8700F90042010900720119006A8C8
:1024E00002F000F8002801D0FEF784FF0F200190D1
:1024F00002200290002003904FF4805004900020AE
:102500000590022101A802F0ADF9002801D0FEF7E4
:1025100071FF12B010BD000055700000846B000800
:1025200080B502F0B1FA02BDF8B50500280080B20E
:10253000B0F5005F23D100242A4E3068002809D16D
:1025400029480068002805D1FFF7EAFF3060012024
:1025500004000EE0244FFFF7E3FF3860386831686D
:10256000411A40F22D12914203D3396831600121A2
:102570000C00002C05D001201649087001E0FEF780
:1025800039FFF1BD0024744960680008E4020020AE
:10259000AC680008606B000810E000E040380240C2
:1025A00030380240000002402403002000000020D8
:1025B000EC68000818690008686B0008F4690008F6
:1025C000706B0008900100200C6B0008146A000872
:1025D000346A0008C8030020F46A0008A40300203D
:1025E00000700040B0030020B403002008B438B5E8
:1025F00085B009AC00250494039500290EBF019510
:102600000190491E0291009504AB01A90748784446
:102610001A3002F03FFA019901B10D70002858BF3D
:10262000039806B030BC5DF808FB00BFCB07000084
:1026300000F10103810704D010F8011B820781B16A
:10264000FAD10268A2F10131914311F0803104BF47
:1026500050F8042FF6E709BAB1FA81F100EBD10086
:10266000401CC01A704730B4002513E050F8042B0A
:10267000D30744BFA9F101039A18091F042942F89E
:10268000045BFAD213468C0744BF15809B1CC90714
:1026900048BF1D7050F8041B0029E7D130BC7047BB
:1026A00010B50400002C01D1012033E0A0690028FE
:1026B000FFD194F83900002805D1002084F83800B3
:1026C000200001F01FF9242084F839002068C06838
:1026D00030F400502168C860200000F038F920680C
:1026E000006930F49040216808612068406930F04A
:1026F0002A00216848612068C06850F400502168B1
:10270000C8600020E063202084F83900202084F88D
:102710003A00002010BD2DE9FC4705000C00160012
:102720001F005FF0000A95F83900202860D1002CC6
:1027300003D0300080B2002801D1012059E095F883
:102740003800012801D1022053E0012085F838002B
:102750000020E863212085F8390002F095F98146D0
:10276000AE84EE84E88C00282FD0E88C401EE884EC
:10277000A868B0F5805F18D100974B4600228021F1
:10278000280000F0ADF8002801D0032031E0A04679
:10279000B8F80000C005C00D296848602869002805
:1027A00001D1A41CDEE7641CDCE700974B46002245
:1027B0008021280000F094F8002801D0032018E0C0
:1027C000207829684860641CCCE700974B460022BB
:1027D0004021280000F084F8002801D0032008E000
:1027E000202085F83900002085F83800002000E01E
:1027F0000220BDE8F6872DE9FC4705000C00160015
:102800001F005FF0000A95F83A00202865D1002CDF
:1028100003D0300080B2002801D101205EE095F89D
:102820003800012801D1022058E0012085F8380045
:102830000020E863222085F83A0002F025F981465D
:10284000AE85EE85E88D00283FD0E88D401EE885F6
:10285000A868B0F5805F1ED100974B46002220216A
:10286000280000F03DF8002801D0032036E0A04603
:102870002869002807D128684068C005C00DA8F85D
:102880000000A41CDEE72868406800F0FF00A8F8FC
:102890000000641CD6E700974B4600222021280048
:1028A00000F01EF8002801D0032017E02869002856
:1028B00004D1286840682070641CC3E72868406819
:1028C00010F07F002070641CBCE7202085F83A00DF
:1028D000002085F83800002000E00220BDE8F687DF
:1028E0002DE9F04105000E0090461F00069C286867
:1028F00000683040B04201D1012000E00020414694
:10290000C9B2884220D114F1010FF0D0002C04D0BC
:1029100002F0BAF8C01B8442E9D22868C06830F4DB
:10292000D0702968C860286840694008400029685C
:102930004861202085F83900202085F83A000020E1
:1029400085F83800032000E00020BDE8F0812DE983
:10295000F84304002068016931F44051E068014304
:1029600020680161A5682069054360690543E06945
:1029700005432068C168AF48014029432068C16011
:102980002068416931F44071A069014320684161C8
:10299000E069B0F5004F40F0A6802068A649884263
:1029A00003D02068A54988424ED102F008F80600FD
:1029B00002F005F8070002F002F8804601F0FFFF80
:1029C000814601F0FCFF64211922564363685B00D5
:1029D000B6FBF3F36426B3FBF6F357436668760061
:1029E000B7FBF6F602FB08F867687F00B8FBF7F75D
:1029F0005FF0640CB7FBFCF701FB1766F60032369C
:102A00006427B6FBF7F6760016F4F87616EB031695
:102A100002FB09F963685B00B9FBF3F302FB00F208
:102A200060684000B2FBF0F06422B0FBF2F001FB02
:102A30001031C80032306421B0FBF1F010F0070013
:102A4000861920688660F1E001F0AEFF060001F013
:102A5000ABFF070001F0A8FF804601F0A5FF81460B
:102A600001F0A2FF64211922564363685B00B6FBA4
:102A7000F3F36426B3FBF6F3574366687600B7FBBF
:102A8000F6F602FB08F867687F00B8FBF7F75FF01F
:102A9000640CB7FBFCF701FB1766F60032366427BF
:102AA000B6FBF7F6760016F4F87616EB031602FB83
:102AB00009F963685B00B9FBF3F302FB00F260689D
:102AC0004000B2FBF0F06422B0FBF2F001FB1031E9
:102AD000C80032306421B0FBF1F010F00700861915
:102AE00020688660A2E020685349884203D02068AD
:102AF000524988424DD101F062FF060001F05FFFAC
:102B0000070001F05CFF804601F059FF814601F0AB
:102B100056FF64211922564363689B00B6FBF3F30A
:102B20006426B3FBF6F357436668B600B7FBF6F6C8
:102B300002FB08F86768BF00B8FBF7F75FF0640CAA
:102B4000B7FBFCF701FB1766360132366427B6FB8C
:102B5000F7F616F0F00616EB031602FB09F96368A8
:102B60009B00B9FBF3F302FB00F260688000B2FB4C
:102B7000F0F06422B0FBF2F001FB103108013230BA
:102B80006421B0FBF1F010F00F0086192068866018
:102B90004CE001F009FF060001F006FF070001F01C
:102BA00003FF804601F000FF814601F0FDFE642135
:102BB0001922564363689B00B6FBF3F36426B3FB0C
:102BC000F6F357436668B600B7FBF6F602FB08F863
:102BD0006768BF00B8FBF7F75FF0640CB7FBFCF762
:102BE00001FB1766360132366427B6FBF7F616F09E
:102BF000F00616EB031602FB09F963689B00B9FBAC
:102C0000F3F302FB00F260688000B2FBF0F0642294
:102C1000B0FBF2F001FB1031080132306421B0FB4F
:102C2000F1F010F00F00861920688660BDE8F1838E
:102C300000000000F369FFFF001001400014014094
:102C400070B5C51DED08AFF30080ED00072D98BFEE
:102C500008250C4E346814B12068A84208D202F04E
:102C60007DFF00283060F4D1AFF30080002070BDFC
:102C70006119451B14BF0D6000213160AFF3008066
:102C8000204670BDC0030020F8B504000D001600FA
:102C90001F003B009BB232002900C9B2A068D4F8E3
:102CA00004C0E047F2BDF8B504000D0016001F0097
:102CB0003B009BB232002900C9B2A068D4F800C022
:102CC000E047F2BD00EE100AB8EEC00ADFED020ADE
:102CD00080EE200A70470000000080457CB50500AA
:102CE0000E0001230DF1010210212800FFF7CCFF97
:102CF0000400002C06D101236A4611212800FFF7A9
:102D0000C3FF0400002C0DD19DF8010066F30610EE
:102D10008DF8010001230DF1010210212800FFF7B9
:102D2000C2FF0400002C18D13000C0B200099DF889
:102D3000001060F341018DF800103000C0B2C008EF
:102D40009DF8001060F300018DF8001001236A4621
:102D500011212800FFF7A7FF0400200076BD38B539
:102D600004000D0001232A000F212000FFF78CFF33
:102D700032BDB1F5807F02D34FF0FF307047017054
:102D8000012070470078401E8041C043C00F70474B
:102D900062F30F2262F31F42401810F0030308D0C1
:102DA000C91A1FD3DB0748BF00F8012D28BF20F840
:102DB000022D130030B414461546103928BF20E9FF
:102DC0003C00FAD8490728BF20E90C0048BF40F86A
:102DD000042D890028BF20F8022D48BF00F8012DDE
:102DE00030BC7047C91818BF00F8012DCB0728BFA9
:102DF00000F8012D70478268521C8260426832B12F
:102E00000268531C036011704168491E416070479D
:102E1000C0F3C75181B1FF2906D0C110400721F08E
:102E2000E04101F16051704741020CBF40F4E00104
:102E30006FF000410020704700F0004100020AD00E
:102E4000B0FA80FC00FA0CF001F16051A1EB0C51DA
:102E500001EBD02140057047B0B581EA030C0CF0BE
:102E6000004C40F2FF7515EA11541DBF15EA1357C7
:102E7000AC42AF4239E0E41923EA455343F48013EE
:102E8000C90241F0004141EA505EC7021100A7FBB0
:102E9000020200284FF00000EEFB01204FF000017D
:102EA000E3FB072118BF42F001024018002149410D
:102EB000E3FB0E01A4F580640F0302D252004041EF
:102EC000494154F101046CDD470872F1004250F1B0
:102ED000000051EB0451A1F580115CBF41EA0C01E7
:102EE000B0BD4CEA05510020B0BD05EA1357AC4215
:102EF00014BFAF4241E050EA410E1CBF52EA430EFC
:102F000002E061460020B0BD24423C441BD15FEA90
:102F1000070EF6D0090302BF01460020AEF1140EE1
:102F2000B1FA81F7AEEB070401FA07FE0C37C7F1DF
:102F3000200100FA07F7C8404EEA000E23EA455385
:102F400043F48013A2E733F00043B3FA83F704BFDE
:102F5000B2FA82FE77440B3FE41BB7F1200E2FBF7D
:102F600002FA0EF3BB40C7F1200E22FA0EFE38BF64
:102F700043EA0E03BA40641C82E750EA410E14BFD4
:102F800052EA430E6FF000014FF4001717EB430FA6
:102F90008ABF194617EB410FB5E74CEA05510020EF
:102FA000B0BDD4F10104B4F120070FDAC4F1200759
:102FB000520828BF42F0010210FA07F501FA07F79C
:102FC000E1BF2A43E0403843E1400FE0352C98DC74
:102FD000C7F1200452EA400220FA07F218BF42F07B
:102FE000010231FA07F0A1400A43002172F10042C8
:102FF00050F1000051EB0C01B0BD2E0070B44FF049
:10300000004591EA030F42F1C7856B40841A71EBCA
:10301000030604D26E40001BB141121973414FF4F4
:10302000001C1CEB410F34BF7CEB430683E00C0D0E
:10303000A4EB1356362E00F37C80012E45EAC32301
:1030400041DC43EA525312BFD20292025B082405CC
:1030500045EAC12141EA5051D2EBC020994125D423
:1030600007D1B0FA80F610FA06F162D000202036BF
:1030700008E0B1FA81F6B140C6F1200220FA02F26E
:103080001143B0404FEAF474B4EB465434F00106F7
:103090004FEA74040AD8D6F50016760D04F0004401
:1030A000F04061FA06F25040F1404840C00A40EA60
:1030B000415021F0004128BF5FEA500550F1000067
:1030C00044EBD12135E0DB0A45EAC121C90AB6F15A
:1030D00020050EDD42EA0242120CC5F1200603FA79
:1030E00006F6EB4042EA06056D42984161F10001A7
:1030F0000DE062FA06F5F240554063FA06FC82EAFA
:103100000C02F3405A406D42904161EB030111F40F
:10311000801F05D1641E620502D06D004041494107
:1031200021F48011430875F1004350F1000041EB98
:10313000045170BC70471CEB410F15D223F00043C3
:1031400052EA43060BD04FEA4C0CBCEB410F04D8BB
:103150000C0D661E342EB7DDEBE7801A994150EA5C
:10316000410608BF0021E4E708BF1CEB430F28BF5E
:103170006FF00001DDE7430001F000428B1AA3F17C
:103180006051B1F5801F0ADBB1F17F6F1FD242EAB7
:10319000C102C10071F1004142EB507070470B1544
:1031A000C3F10903212B10D2890241EA9051800218
:1031B0000128494141F0004121FA03F0C3F1200305
:1031C000994071F1004150417047100070476FF015
:1031D000000013EB103F5CBF000E42EAC050704786
:1031E00051EC100B00B500F003F841EC100B00BDE2
:1031F00040F2FF7C0B0D4DD0634566D230B421EA1E
:10320000035141F4801103F2FD3C5FEA5C0C01D3F1
:1032100000184941890041EA907180004FF4401440
:103220000023E202D50AB1F5100107D46D081DD2C2
:10323000091B641900184941491BF7D56D080AD2CA
:103240000919641B00184941491BEFD56D08F7D3D4
:1032500001E0520817D0C01861419B1AAC41001818
:103260004941801AA941F4D452080AD0C01AA14198
:103270009B186C4100184941801AA941E9D45208B1
:10328000F4D15B1C6C4161084FEA330001EB0C5137
:1032900030BC704750EA0103FBD030B4B1FA81F37F
:1032A00011B9B0FA80F41B190B3BB3F120042FBF06
:1032B00000FA04F19940C3F1200420FA04F438BF65
:1032C00021439840D3F101039DE7634514BF50EAC1
:1032D000410CDEE711F5801FDBD8D943AFF3008046
:1032E00070470000074A136833F0040313600A00B4
:1032F000D2B2012A01D130BF02E040BF20BF20BFBF
:103300007047000010ED00E02DE9F8410023002493
:1033100000260025102D80F0ED80012717FA05F218
:1033200013000A681A4014009C4240F0E1804A6889
:10333000022A02D04A68122A1FD12A00D20800EBC2
:103340008202D2F820C05FF00F0E15F00702D2B251
:1033500092001EFA02FE3CEA0E0CD1F810E015F0C5
:103360000702D2B292001EFA02FE5EEA0C0C66461A
:103370002A00D20800EB82021662D0F800C05FF08B
:10338000030E2A00D2B252001EFA02F23CEA020CEC
:1033900091F8048018F003082A00D2B2520018FAFB
:1033A00002F858EA0C0CC0F800C04A68012A08D09C
:1033B0004A68022A05D04A68112A02D04A68122AAD
:1033C0001BD186682A00D2B252001EFA02F296433E
:1033D000D1F80C802A00D2B2520018FA02F858EA4A
:1033E000060686604268AF40BA434F68C7F30017CD
:1033F000AF403A439446C0F804C0C6682A00D2B22F
:1034000052001EFA02FE36EA0E068F682A00D2B279
:10341000520097403E43C6604A68D20068D50022F9
:103420000092444A176857F480471760126812F4F4
:1034300080420092009ADFF800C12A0092085CF8EE
:1034400022705FF00F0E15F00302D2B292001EFA46
:1034500002FE37EA0E07394A904201D1002614E0F5
:10346000374A904201D101260FE0364A904201D1FD
:1034700002260AE0344A904201D1032605E0334A8D
:10348000904201D1042600E00726F6B215F00302AF
:10349000D2B29200964037432A0092084CF822702C
:1034A0002B4E3268A243D1F804C05FEACC3C00D571
:1034B00022433260274F3E68A643D1F804C05FEA3A
:1034C0008C3C00D526433E60234F3A68A243D1F896
:1034D00004C05FEACC2C00D522433A601F4F3E68FF
:1034E000A643D1F804C05FEA8C2C00D526433E6089
:1034F0006D1C0FE7BDE8F1811300DBB2002B03D098
:103500000B009BB2836103E00B009BB21B04836141
:10351000704710B5040012480168220092B21142AF
:1035200006D0210089B20160200080B2FEF7FCFFC6
:1035300010BD00004438024008380140000002403D
:103540000004024000080240000C0240001002404B
:10355000003C0140043C0140083C01400C3C01405F
:10356000143C014080B50B48016851F400710160C2
:10357000016851F480610160016851F4807101605B
:10358000032002F0E7FB002002F01CFC02F040FCEC
:10359000002002BD003C024010B586B00020009023
:1035A0002A48016851F001010160016811F0010130
:1035B0000091009900210091016851F00101016022
:1035C000006810F001000090009800200090204852
:1035D000016851F400310160006810F4003000907F
:1035E0000098042001900220029000200390072000
:1035F0000590184C01A92000FFF786FE08200190D5
:103600000720059001A92000FFF77EFE124C134809
:1036100020601348006860600020A0600020E06027
:10362000002020610020A0610C2060612000FFF7D5
:1036300037F8002800D0FEE70A48A0624FF48070F7
:10364000A0850020E06306B010BD00BF3038024006
:103650004038024000000240E402002000440040E4
:10366000806B000890000020F8B586B0142100227D
:103670006C462000FFF78CFB002005904F48016846
:1036800051F004010160016811F0040105910599F0
:1036900000210591016851F080010160016811F07D
:1036A00080010591059900210591016851F0010102
:1036B0000160016811F00101059105990021059152
:1036C000016851F002010160006810F002000590ED
:1036D00005983B4C002220212000FFF70DFF394DBB
:1036E000012280212800FFF707FF01224FF4C0616B
:1036F0002000FFF701FF344E012240213000FFF788
:10370000FBFE4FF4005000903048019000200290E2
:1037100069462800FFF7F8FD012000902C4F019723
:103720000020029069462800FFF7EEFD4FF4C460C8
:103730000090012001900020029000200390694633
:103740002000FFF7E1FD8020009001200190002083
:1037500002900020039069462800FFF7D5FD202045
:10376000009001970020029069463000FFF7CCFDE1
:103770004020009001200190002002900020039042
:1037800069463000FFF7C0FD00220021062002F04C
:10379000E7FA062002F0F9FA00220021172002F0D1
:1037A000DFFA172002F0F1FA00220021282002F0AF
:1037B000D7FA282002F0E9FA07B0F0BD303802400D
:1037C00000000240000802400004024000002110F6
:1037D0000000111080B53748374901603749416012
:1037E000002181600021C1604FF48041016100210E
:1037F0004161002181610021C1610021016200F06D
:10380000D5F8002801D0FDF7F5FD01BD38B586B02B
:1038100004001421002201AD2800FFF7B9FA206846
:103820002549884226D1002000902548016851F0A2
:1038300002010160006810F00200009000984FF44F
:103840004070019012200290012003900320049008
:103850000420059001A91B48FFF756FD00200090A9
:103860001948016851F400110160006810F400105B
:103870000090009807B030BDFEB504000D001600A2
:10388000012741F288300290300080B2019000950B
:1038900001232200D2B292B20C48017889B20548C5
:1038A00000F026FA002801D1002007003800C0B23D
:1038B000FEBD00009002002000540040801A060067
:1038C0003038024000040240403802408C000020A2
:1038D00080B52748274901605FF4E131416000214C
:1038E00081600021C160002101610C214161002142
:1038F00081610021C161FEF7D3FE002801D0FDF7F0
:1039000079FD01BD38B586B004001421002201AD57
:103910002800FFF73DFA20681649884225D100208B
:1039200000901548016851F400310160006810F4FE
:10393000003000900098002000901048016851F07D
:1039400001010160006810F00100009000980C2057
:103950000190022002900020039000200490072094
:10396000059001A90648FFF7CFFC07B030BD000065
:1039700064030020004400404038024030380240D8
:103980000000024070B5040001F07EF8050026003A
:1039900016F1010F02D004480078361801F074F8CF
:1039A000401BB042FAD370BD8D00002070B50400FA
:1039B000002C01D10120D5E094F83D00002805D16C
:1039C000002084F83C002000FFF720FF242084F82A
:1039D0003D0020680068400840002168086000F051
:1039E000E3FF0100DFF880016268824208D2DFF85D
:1039F0007C21914201D2012200E00022D2B207E0F4
:103A0000DFF86C21914201D2012200E00022D2B203
:103A1000012A01D10120A5E0DFF85821B1FBF2F223
:103A200023685B689B099B01134325686B602368CF
:103A30001B6A6568854201D2551C08E04FF49675F3
:103A400005FB02F54FF47A76B5FBF6F56D1C9B0984
:103A50009B012B4325682B622368DB6965688542DF
:103A600014D2481E65686D00B0FBF5F0401C0005DF
:103A7000000D042801D204253EE0481E65686D0053
:103A8000B0FBF5F56D1C2D052D0D35E0A068002867
:103A900009D14D1E666803204643B5FBF6F0401C75
:103AA0000005000D0AE04D1E666819204643B5FB6F
:103AB000F6F0401C0005000D50F48040000501D1D7
:103AC000012519E0A068002809D14D1E6668032071
:103AD0004643B5FBF6F56D1C2D052D0D0AE04D1E78
:103AE000666819204643B5FBF6F56D1C2D052D0DB6
:103AF00055F4804555F40045DFF87C0003402B4326
:103B00002068C3612068036833F0C003E0690343A1
:103B1000206A03432068036020688368DFF85C0044
:103B2000034020690343E068034320688360206802
:103B3000C3681B0A1B02A569606905432B43206803
:103B4000C3602068006850F00100236818600020FE
:103B50002064202084F83D0000202063002084F8A9
:103B60003E00002070BD0000A186010080841E0080
:103B700000093D0040420F000030FFFF007CFFFFC6
:103B80002DE9FE4F05000E0017009846DDF8309035
:103B90000D9CDDF838A000F077FF834695F83D00D6
:103BA000202840F0A180CDF800B019230122DFF8D1
:103BB0004414280000F03CFB002801D0022094E0CF
:103BC00095F83C00012801D102208EE0012085F803
:103BD0003C0028680068C00705D42868006850F0D9
:103BE0000100296808602868006830F400602968CE
:103BF0000860212085F83D00402085F83E00002027
:103C00002864C5F824906C85688D2885DFF8E0036A
:103C1000E862CDF804B0CDF800A043469BB23A006C
:103C200092B2310089B2280000F0E8F9002801D0F2
:103C300001205AE0288D002833D05A4651462800EA
:103C400000F098FB00280AD0286C042805D12868C9
:103C5000006850F4007029680860012045E0686A37
:103C6000007829680861686A401C6862288D401ED7
:103C70002885688D401E6885286840694007D9D529
:103C8000288D0028D6D0686A007829680861686A9B
:103C9000401C6862288D401E2885688D401E6885FE
:103CA000C8E75A465146280000F090FB00280AD089
:103CB000286C042805D12868006850F40070296831
:103CC0000860012011E02868006850F4007029683D
:103CD0000860202085F83D00002085F83E00002087
:103CE00085F83C00002000E00220BDE8FE8F0000C7
:103CF0002DE9F24F82B0050016001F00DDF830807C
:103D00000D9CDDF8389000F0BFFE824695F83D002E
:103D1000202840F06A81CDF800A019230122DFF8A5
:103D2000D412280000F084FA002801D002205DE1BE
:103D300095F83C00012801D1022057E1012085F8C7
:103D40003C0028680068C00705D42868006850F067
:103D50000100296808602868006830F4006029685C
:103D60000860222085F83D00402085F83E000020B4
:103D70002864C5F824806C85688D2885DFF870027A
:103D8000E862CDF804A0CDF800903B009BB2320071
:103D900092B2BDF80810280000F09EF9002801D06A
:103DA000012023E1288D00280FD1002000902868F1
:103DB0004069009028688069009000982868006831
:103DC00050F40070296808603AE0288D012815D168
:103DD0002868006830F4806029680860002000903E
:103DE00028684069009028688069009000982868D9
:103DF000006850F400702968086021E0288D0228CE
:103E000015D12868006830F4806029680860286847
:103E1000006850F40060296808600020009028685D
:103E200040690090286880690090009808E00020B0
:103E30000090286840690090286880690090009888
:103E4000288D002800F0C680288D042880F09980F5
:103E5000288D012816D152464946280000F0E2FA82
:103E6000002801D00120C1E028680069696A087053
:103E7000686A401C6862288D401E2885688D401E37
:103E80006885DDE7288D02282DD1CDF800A04B46AE
:103E90000022DFF86411280000F0CAF9002801D0E0
:103EA0000120A3E02868006850F4007029680860C9
:103EB00028680069696A0870686A401C6862288D11
:103EC000401E2885688D401E688528680069696ADB
:103ED0000870686A401C6862288D401E2885688DBD
:103EE000401E6885ACE7DFF810B1CDF800A04B4666
:103EF00000225946280000F09BF9002801D001203B
:103F000074E02868006830F48060296808602868D8
:103F10000069696A0870686A401C6862288D401EE2
:103F20002885688D401E6885CDF800A04B4600228C
:103F30005946280000F07CF9002801D0012055E006
:103F40002868006850F400702968086028680069D3
:103F5000696A0870686A401C6862288D401E28855E
:103F6000688D401E688528680069696A0870686AFB
:103F7000401C6862288D401E2885688D401E68851B
:103F80005EE752464946280000F04CFA002801D06E
:103F900001202BE028680069696A0870686A401C83
:103FA0006862288D401E2885688D401E68852868B7
:103FB000406940077FF544AF28680069696A087066
:103FC000686A401C6862288D401E2885688D401EE6
:103FD000688535E7202085F83D00002085F83E0003
:103FE000002085F83C00002000E00220BDE8FE8FA4
:103FF0000000FFFF02001000040001002DE9F8435B
:1040000004000D0016001F00DDF82080DDF824906C
:104010002068006850F4807021680860CDF8009036
:10402000434600225FF00111200000F001F9002852
:1040300001D001204EE015F0FE00216808614B46DA
:1040400042467A49200000F038F9002801D00120CA
:1040500040E000200090206840690090206880695E
:10406000009000984A464146200000F083F900285D
:104070000AD0206C042805D12068006850F4007034
:1040800021680860012025E0380080B2012804D1B1
:104090003000C0B2216808611BE0300080B2000A25
:1040A000C0B2216808614A464146200000F062F92A
:1040B00000280AD0206C042805D12068006850F43C
:1040C000007021680860012004E03000C0B221685F
:1040D00008610020BDE8F2832DE9FC4704000D00D3
:1040E00016001F00DDF82880DDF82C90206800689D
:1040F00050F48060216808602068006850F4807087
:1041000021680860CDF80090434600225FF001115D
:10411000200000F08DF8002801D0012084E015F087
:10412000FE0021680861DFF804A14B464246514673
:10413000200000F0C2F8002801D0012074E0002027
:104140000090206840690090206880690090009885
:104150004A464146200000F00DF900280AD0206CA4
:10416000042805D12068006850F4007021680860B8
:10417000012059E0380080B2012804D13000C0B2DB
:10418000216808611BE0300080B2000AC0B22168DB
:1041900008614A464146200000F0ECF800280AD0A9
:1041A000206C042805D12068006850F40070216854
:1041B0000860012038E03000C0B2216808614A463A
:1041C0004146200000F0D6F800280AD0206C0428D0
:1041D00005D12068006850F4007021680860012053
:1041E00022E02068006850F4807021680860CDF8F3
:1041F0000090434600225FF00111200000F018F803
:10420000002801D001200FE055F00100C0B2216864
:1042100008614B4642465146200000F04EF8002807
:1042200001D0012000E00020BDE8F6870200010077
:104230002DE9F04105000E0017001C00DDF8188084
:104240003000000CC0B201280AD128684069304013
:1042500080B2B1B2884201D101200BE0002009E018
:1042600028688069304080B2B1B2884201D1012013
:1042700000E000203900C9B288421BD114F1010FBF
:10428000DED000F001FCB0EB0800844201D3002C2A
:10429000D6D100202863202085F83D00002085F835
:1042A0003E00286C50F020002864002085F83C0077
:1042B000012000E00020BDE8F081F8B505000E0007
:1042C00014001F003000000CC0B201280AD1286879
:1042D0004069304080B2B1B2884201D101200BE088
:1042E000002009E028688069304080B2B1B288427D
:1042F00001D1012000E00020002839D12868406960
:1043000040051AD52868006850F4007029680860D4
:104310007FF480602968486100202863202085F8A8
:104320003D00002085F83E00286C50F00400286411
:10433000002085F83C0001201BE014F1010FC1D0E2
:1043400000F0A2FBC01B844201D3002CBAD1002094
:104350002863202085F83D00002085F83E00286C69
:1043600050F020002864002085F83C00012000E087
:104370000020F2BD70B505000C00160028684069E9
:10438000000621D4280000F086F8002801D0012082
:104390001BE014F1010FF1D000F076FB801B84428A
:1043A00001D3002CEAD100202863202085F83D00AD
:1043B000002085F83E00286C50F020002864002082
:1043C00085F83C00012000E0002070BD70B50500BC
:1043D0000C00160028684069400721D4280000F02E
:1043E0005AF8002801D001201BE014F1010FF1D090
:1043F00000F04AFB801B844201D3002CEAD100204C
:104400002863202085F83D00002085F83E00286CB8
:1044100050F020002864002085F83C00012000E0D6
:10442000002070BD70B505000C00160028684069BA
:1044300040062ED428684069C00612D57FF01000CF
:104440002968486100202863202085F83D0000206D
:1044500085F83E00286C2864002085F83C00012087
:1044600018E000F011FB801B844201D3002CDDD149
:1044700000202863202085F83D00002085F83E00BC
:10448000286C50F020002864002085F83C000120B2
:1044900000E0002070BD010008684069400514D5A7
:1044A0007FF480600A68506100200863202081F852
:1044B0003D00002081F83E00086C50F004000864C4
:1044C000002081F83C00012000E00020704710B57A
:1044D000044601F0C9FC01462046896ABDE8104047
:1044E000084700002DE9FC410400002C01D1012007
:1044F000A2E12078C0075CD5DFF84003016811F025
:104500000C01042909D0006810F00C0008280ED115
:10451000DFF82C030068400209D5DFF828030068A3
:10452000800346D56068002843D1012084E160689B
:10453000B0F5803F06D1DFF80C03016851F48031FB
:10454000016017E06068B0F5A02F0AD1DFF8F4022F
:10455000016851F480210160016851F480310160EB
:1045600008E0B848016831F480310160016831F435
:1045700080210160606800280DD000F085FA0500F8
:10458000B0480068800314D400F07EFA401B652810
:10459000F6D3032050E100F077FA0500A94800683F
:1045A000800306D500F070FA401B6528F6D303207F
:1045B00042E1207880074BD5A048016811F00C0F2C
:1045C00008D0006810F00C00082814D19C4800683E
:1045D000400210D49B480168890704D5E16801298D
:1045E00001D0012028E1016831F0F801226951EA87
:1045F000C20101602CE0E068002818D00120924937
:10460000086000F041FA05008E480168890706D469
:1046100000F03AFA401B0328F6D303200CE10168AE
:1046200031F0F801226951EAC201016010E0002076
:104630008549086000F028FA050082480068800774
:1046400006D500F021FA401B0328F6D30320F3E03F
:104650002078000724D56069002810D001207B490C
:10466000086000F011FA050079480068800717D447
:1046700000F00AFA401B0328F6D30320DCE00020F8
:104680007249086000F000FA050071480068800770
:1046900006D500F0F9F9401B0328F6D30320CBE040
:1046A0002078400775D500266A4F3868C0000CD4C2
:1046B00000200090386850F080503860386810F062
:1046C00080500090009801200600DFF88C81D8F817
:1046D0000000C00513D4D8F8000050F48070C8F86A
:1046E000000000F0D1F90500D8F80000C00506D49C
:1046F00000F0CAF9401B0328F6D303209CE0A06811
:10470000012805D15548016851F00101016015E00B
:10471000A068052809D15148016851F004010160E1
:10472000016851F00101016008E04C480168490846
:1047300049000160016831F004010160A0680028AF
:104740000FD000F0A1F9050044480068800718D494
:1047500000F09AF9401B41F289318842F4D30320DA
:104760006AE000F091F905003C480068800708D530
:1047700000F08AF9401B41F289318842F4D30320CA
:104780005AE03000C0B2012803D1386830F08050C0
:104790003860A06900284ED02848006810F00C004E
:1047A000082846D0A069022832D12D4E0020306062
:1047B00000F06AF90700DFF88C80D8F8000080016B
:1047C00006D500F061F9C01B0328F4D3032033E0C1
:1047D000E169206A0143606A51EA8011A06A4008D9
:1047E000401E51EA0041E06A51EA0061144801604C
:1047F0000120306000F048F90500D8F80000800181
:1048000019D400F041F9401B0328F6D3032013E02C
:1048100000201349086000F037F9050009480068D6
:10482000800108D500F030F9401B0328F6D303209F
:1048300002E0012000E00020BDE8F68108380240D7
:10484000043802400038024000004742800E4742D0
:104850007438024040380240007000407038024016
:10486000600047422DE9F04104000D00002C01D109
:10487000012094E0574F386810F00F00A84207D28B
:104880003D70386810F00F00A84201D0012086E08A
:104890002078800716D52078400704D54E48016857
:1048A00051F4E05101602078000704D54A480168BE
:1048B00051F46041016048490A6832F0F002A06892
:1048C00002430A602078C00738D56068012805D106
:1048D00042480068800313D4012060E06068022829
:1048E00002D06068032805D13C480068800107D4E5
:1048F000012054E039480068800701D401204EE0CF
:10490000DFF8D480D8F80010890889006068014376
:10491000C8F8001000F0B8F80600D8F8000010F051
:104920000C006168B0EB810F08D000F0ADF8801B7F
:1049300041F289318842F0D3032030E0386810F02A
:104940000F00854207D23D70386810F00F00A84272
:1049500001D0012023E02078400706D51E490A68CF
:1049600032F4E052E06802430A602078000707D57D
:104970001948016831F46041226951EAC2010160BD
:1049800000F034F81649144A1268C2F30312895C25
:10499000C84014490860002001F014FA0020BDE866
:1049A000F08110480068704780B5FFF7FAFF0E49A4
:1049B000094A1268C2F38222895CC84002BD80B5F0
:1049C000FFF7EFFF0849044A1268C2F34232895CDC
:1049D000C84002BD003C0240083802400038024096
:1049E000206B000808000020786B00082DE9F041DA
:1049F00000240025002600271F48006810F00C0046
:104A0000002804D0042804D0082804D031E01B4832
:104A100030E01B482EE0DFF86C80D8F8000010F082
:104A20003F000400D8F8000040020CD5D8F8000080
:104A3000C0F388101249A1FB00012200002301F0FD
:104A400051FA05000BE0D8F80000C0F388100B49BC
:104A5000A1FB00012200002301F044FA0500D8F870
:104A60000000C0F30140401C40000600B5FBF6F01A
:104A700000E00248BDE8F081083802400024F4005C
:104A800000127A000438024001480068704700BFF5
:104A9000B80300202DE9F14FB2B0994692460023A9
:104AA0000691CDE900333C9A0F930DF14A01149120
:104AB0004A7011E0329E57462C4617F8011B0698A3
:104AC000B0470028069000F026810F98401C641E15
:104AD0000F90F2D13296AA449AF80000252808D106
:104AE0000021002209910A920B910C920D910E92D5
:104AF0000FE06A464FF0FF31504601F0E9F905003A
:104B000002D10F9800F066BED4D50125E3E741F04D
:104B100001011AF8010F2028F9D023280CD02B28E6
:104B200004D02D2805D0302809D00BE041F0020137
:104B3000EFE741F00401ECE741F00801E9E741F05B
:104B40001001E6E72A280FD1D9F8002052F8040B0B
:104B5000C9F800200028119003D54042119041F07F
:104B600004010AF1010A14E01192DFF8EC3B0AE0BB
:104B70001198984205DA00EB800402EB4402303AC7
:104B800011920AF1010A9AF80020A2F130000A28D5
:104B9000EED39AF800002E2803D04FF0FF32109287
:104BA00029E01AF8010F2A2809D1D9F8000050F895
:104BB000042BC9F8000010920AF1010A1BE02D280D
:104BC0000CBF0AF1010A002000221092DFF8882BA6
:104BD0000BE040B9109B934205DA03EB830504EB2D
:104BE0004504303C10940AF1010A9AF80040A4F1FF
:104BF00030030A2BEDD3ADF848100FF660309AF869
:104C0000001001F087FA08B11AF8010B8DF84A007C
:104C10009DF84A00682805D19AF8000068280CD150
:104C2000622106E06C2804BF9AF800006C2804D1C9
:104C300071218DF84A100AF1010A1FA808901AF88C
:104C400001BBBBF125012DD01C3900F06181091F8A
:104C5000022940F25D810E392AD0491F00F0B38449
:104C6000093900F05581891E00F04985491E00F080
:104C7000F584491E022940F24B81091F00F0EE84A1
:104C8000491F00F0BA80491E00F09D84491E65D07E
:104C9000C91E21D0891E00F09684C91E00F093849D
:104CA00000F04CBD25238DF87C30012109912AE0CC
:104CB0006C208DF84A00D9F8000050F8042BC9F890
:104CC0000000002A43D11499487800283DD04FF0C5
:104CD000FF340FF6902012E09DF84A006C28EAD0CD
:104CE000D9F8000050F8044BC9F800000794D4B973
:104CF0001499487898B14FF0FF340FF6842001F0F2
:104D000015FA201A07D132981FAA04A900F065FDF0
:104D100000287FF5E1AE4FF0FF3000F05BBD0FF6ED
:104D20007C200790EFE7109D002D04D52046FDF76D
:104D30007FFC044607E02A46204601F017FA0028C7
:104D400014BF041B2C460A94DDE70FF65422329858
:104D500004A900F0C8FD0028D5D5DCE7D9F800107B
:104D600051F8040BC9F8001020F00004002121F0D4
:104D7000FF351FABCDE904450793DDE9042308990E
:104D80003C2413B90AB9109898B102F00F053035D8
:104D9000641EEEB23A2EA8BF2735120942EA03720A
:104DA0001B090D5508BF002A03D007980D19A8420A
:104DB000EBD308190790C4F13C0210980A92824282
:104DC00009DABDF84810821A4FF6EF7001400C92D4
:104DD000ADF8481097E7002895D59DF8480000F0F9
:104DE000140010288FD1119B09990C985B1A1B1A7B
:104DF0009A1A002A87DD0C9285E71499487820B129
:104E00004FF0FF340FF69C1079E79DF84A006228B6
:104E100062D0682819D06A2840D06C2806D0712842
:104E20004DD074282DD07A281ED064E0D9F8001017
:104E300051F8040BC9F8001020B94FF0FF340FF6F9
:104E40007C105CE70F9901605DE7D9F8001051F81C
:104E5000040BC9F8001020B94FF0FF340FF65C10B6
:104E60004DE70F9901804EE7D9F8001051F8040B77
:104E7000C9F800100028E5D14FF0FF340FF63C10C0
:104E80003DE7D9F8001051F8040BC9F800100028CC
:104E9000D8D14FF0FF340FF6241030E7D9F80010C6
:104EA00051F8040BC9F8001020B94FF0FF340FF689
:104EB0000C1024E70F9AD317C0E9002323E7D9F891
:104EC000001051F8040BC9F800100028F2D14FF07F
:104ED000FF340FF6E80012E7D9F8001051F8040B80
:104EE000C9F8001020B94FF0FF340FF6D00006E7E4
:104EF0000F99017007E7D9F8001051F8040BC9F8B1
:104F0000001000289ED14FF0FF340FF6B000F6E6F7
:104F1000D9F80020D21D22F00702C9F80020D2E9FA
:104F200000010832C9F80020CDE90401C80F02D001
:104F300009982D210AE0BDF84800810702D509989B
:104F40002B2103E0C00705D5099820211FAA115481
:104F5000401C0990DDE9042309991FA8CDE92E23FF
:104F600008444BF020016129079015AC0BD0109933
:104F7000002902D50621109105E001BF4BF0200168
:104F8000672901221092DDE9042359004915491CC3
:104F900010D11A030ED0ABF1610503211A2D0A912D
:104FA00002D20FF6A43101E00FF6A031032201F086
:104FB00009F9A8E659004915491C0AD11A0308D174
:104FC000ABF1610503211A2D0A9116D30FF6843136
:104FD000ECE7DDE90401CDE93001DDE9302323F020
:104FE0000047B7F5801F22F000060DD20022002FE7
:104FF00008BF002E029203D116E00FF65431D5E718
:1050000002AA01F033F90FE0DFF8EC0ADFF8EC1A3E
:1050100000EB17500290DDE930234FF0FF301940CC
:10502000DFF8DC7A10403943CDE904014BF0200071
:1050300061280DD1079830210170821CBBF1610FEE
:1050400007920CBF7821582141700998801C099063
:10505000DDE9040120F0000231F0004308BF002A1E
:1050600002D10026002571E14BF02008B8F1610F54
:1050700040F0BE801098002847BF21210391401CBA
:105080000390039FDDE92E017F1C00220023DDE950
:10509000044501F023F902998DF8542038BF85F0BA
:1050A0000045091F002F02910DF155065DDDDFF867
:1050B000541ACDE9302140F2FF732E932046294641
:1050C0000022002301F022F94FD24800400D00F1E8
:1050D0001C0215D0002A13DD2E9B9A420ADBDDE963
:1050E000300121F0004205F000400243DDE93001CB
:1050F000114611E06FF31E5141EA025120460BE0C8
:1051000024F0000035F0004108BF00280FBF2946F9
:105110001C22294601F012F904460D4601F0ACF9B3
:10512000FF1F002F804609DD01F0C4F902460B463F
:105130002046294600F028FD04460D46F01D0721B3
:10514000B8F1000F0CDD491E5EBF08F00F0200F839
:10515000012D4FEA2818F3D502E0002200F8012DB6
:10516000491EFAD5C61D002FA8DC0DF15500361AD0
:1051700003988642D8BF304600280DF1550430D43C
:10518000B04206DA0DF155010A5C082AA8BF0F21CA
:1051900000DA0021024615AB134400E0401E13F86C
:1051A0000159521E8D42F9D00F2904D10DF155013C
:1051B0008B5C5B1C8B54002A04D50299091D15AC2D
:1051C000401C0291411E0CD46218ABF13A061378D0
:1051D0003033DDB23A2DA8BFF318491E02F8013969
:1051E000F5D51099002940F1AF80421E1092ABE036
:1051F0000299DFF8142947F29750414391FBF2F2EC
:10520000DDE92E45029225F00045D2F1070204DDCA
:105210002046294600F04CFC0BE052420020DFF80B
:10522000EC1800F045FC02460B462046294601F0EA
:1052300053F90446B8F1660F109806BF029F0A376B
:1052400006273F18142FC8BF142730208DF85400AC
:105250000D460020DFF8B818CDE92E010DF15506F6
:10526000002F33DD2046294601F05AFA01460A464E
:1052700006F1080304200A26B2FBF6F606EB860EBA
:10528000A2EB4E02303203F8012C0A22B6FBF2F2F6
:1052900002EB820EA6EB4E063036401E03F8026D7E
:1052A000E9D1083F002F03F10806D9DD084601F0D7
:1052B0004BFA02460B462046294600F065FCDDE924
:1052C0002E23FDF7C9FD04460D46CBE70DF1550031
:1052D000361A0DF1550404E00298401E761E029025
:1052E000641C20783028F7D0B8F1660F02D10299FB
:1052F000491C04E0B8F1650F0CBF01210021109892
:1053000008188642B8BF701E00281DD4B04204DAC7
:10531000215C3429C8BF392100DC30210246631EDC
:105320009D1800E0401E15F80169521E8E42F9D00A
:10533000392902D1A15C491CA154002A04D5029943
:10534000491C1C46401C02910646029D00F0C4FD0B
:10535000406A0778DDF8408030B2002802DC012680
:105360000FF2F4744BF02000662808BF6D1C16D0B5
:10537000672846D128B210F1040F48DB404546DAD1
:105380009DF848006D1C010703D430B24045B8BFFA
:10539000804628B2B8EB000848BF4FF000080FFA6B
:1053A00085FB07980A99BBF1000F00F3B2804A1CF5
:1053B0000A9230234354B8F1000F03DC9DF84800F3
:1053C000010704D50A98411C0A9107990F5418EB5C
:1053D0000B0FB8BFC8F100052DB268420D90A8446C
:1053E00032B29045B8BF4646079B0A9836B20B9634
:1053F00032462146184400F0E5FEA8EB06000E9068
:10540000CBE0BBF1610F17D14FF0700B19E030B258
:10541000404504DA9DF848100A0758BF8046B8F1A5
:10542000010848BF4FF00008BBF1670F14BF4FF0F1
:10543000450B4FF0650B04E0BBF1410F08BF4FF087
:10544000500B0A98411C0A91B8F1000F079914F803
:10545000012B0A5403DC9DF8480001071AD50A986D
:10546000411C0A91B8F1000F07990F5412DD761E06
:1054700030B2804507980A9BB8BF464632B22146F3
:10548000184400F09FFE0A9936B271180A91A8EBF1
:1054900006000D9007980A9908442AB2002A80F85D
:1054A00000B003D42B224270811C04E02D214170F6
:1054B0001546811C6D4200202EAA0A2409E02B46C5
:1054C00093FBF4F505EB8506A3EB460302F8013BDD
:1054D000401C2DB2002DF2DC012806DC4BF020022E
:1054E000652A04BF302201F8012B00282EAA08D11A
:1054F000302001F8010B06E0401E135C303301F848
:10550000013B0028F8DC079A0A981044091A0B910D
:1055100043E0084431B22AB2914219DA32B221464C
:1055200000F050FE0A9936B27118ABEB0606B8F1DE
:10553000000F0A910D9603DC9DF84800020704D580
:10554000079847540B99491C0B91CDF8388024E0FB
:10555000214600F037FE0A98761B5844B8F1000F38
:105560000A9003DC9DF848100A0703D5411C0A91F4
:1055700007990F5430B2804507980A9BB8BF46463A
:1055800032B204EB0B01184400F01CFE0A9836B24C
:1055900030180A90A8EB06000D909DF8480000F026
:1055A000140010287FF4AFAB099A0A990D988A1855
:1055B0000B9982180E988A18821811988242BFF6A9
:1055C000A2AB821A17E49DF84A00622808D0682826
:1055D0000ED06A2814D06C281FD0712810D01CE07F
:1055E000D9F8001051F8040BC9F80010C0B21AE045
:1055F000D9F8001051F8040BC9F8001080B212E07D
:10560000D9F80020D21D22F00702C9F80020D2E903
:1056100000010832C9F8002006E0D9F8001051F85E
:10562000040BC9F800100021CDE904019DF84800E1
:1056300001075AD5DDE90423002B08BF002A54D006
:105640004BF02000782850D109981FA930220A5425
:10565000401C431C099301F800B046E09DF84A0045
:10566000622808D068280ED06A2814D06C281FD071
:10567000712810D01CE0D9F8001051F8040BC9F8BB
:10568000001040B21AE0D9F8001051F8040BC9F824
:10569000001000B212E0D9F80020D21D22F007025B
:1056A000C9F80020D2E900010832C9F8002006E05C
:1056B000D9F8001051F8040BC9F80010C117CDE952
:1056C0000401002902D509982D210AE0BDF84800FF
:1056D000810702D509982B2103E0C00705D5099859
:1056E00020211FAA1154401C09901FA809990144A8
:1056F000079104A8594600F056F9FFF704BB9DF83E
:105700004A006C280BD001210991D9F8000050F80B
:10571000041BC9F800008DF87C10FFF7F4BAD9F823
:10572000000050F8041BC9F8000015914FF0FF323B
:1057300010920021169115AAFFF709BB252101221D
:10574000BBF1000F8DF87C1009923FF4DCAA8DF8B4
:105750007DB00221FFF7AABACBCCCC0C686A6C747E
:105760007A4C00007072696E74665F733A206261F1
:105770006420256C7320617267756D656E7400001E
:105780007072696E74665F733A206261642025737B
:1057900020617267756D656E740000000000000086
:1057A000000000007072696E74665F733A20256EA7
:1057B00020646973616C6C6F776564007072696EE8
:1057C00074663A2062616420256E20617267756D8F
:1057D000656E740033B0BDE8F08F2DE9FC410F46D3
:1057E000064690467A6B7869396ABC6A121AB869BB
:1057F000521A796A121AF869521A121A97F838006E
:10580000141B41070FD42020002C8DF800000ADD66
:10581000254601236A463946304600F07DF90028C6
:105820005DD16D1EF5D17B6942463946304600F0A8
:1058300073F9002853D130208DF800003D6A002D07
:1058400009DD01236A463946304600F065F9002833
:1058500045D16D1EF5D1BB69FA683946304600F076
:105860005BF900283BD130208DF800007D6A002DC7
:1058700008DD01236A463946304600F04DF970BB19
:105880006D1EF6D1F868B969FB6942183946304691
:1058900000F042F918BB30208DF80000BD6A002DE1
:1058A00008DD01236A463946304600F035F9B0B9C3
:1058B0006D1EF6D197F8380041070DD52020002C39
:1058C0008DF8000008DD01236A463946304600F0B5
:1058D00023F920B9641EF6D10020BDE8F6814FF00F
:1058E000FF30BDE8F6812DE9F8470D46A3B02F6BD8
:1058F000002F8246904648BF6FF0004700F031FF0E
:10590000696B401801AA0021C2E90011812828BF53
:105910004FF0FF3044D289461EE0A74230DB686971
:10592000201881280BD30021696303AA2946504619
:10593000FFF753FF5FEA000922D40020686103AB40
:105940006E6922466946981900F03CFCA6196E6102
:1059500058F8040BA0B13F1B002F11DDD8F8001040
:1059600001AA684600F0B6FA0446002C05D4D8F81F
:1059700000000028D1D1641ECFD54FF0FF390EE0D2
:10598000B9F1000F504604D103AA2946FFF725FFBD
:105990008146B9F1000F02D1002068616863484672
:1059A00024B0BDE8F0872DE9FC4307466F293E6926
:1059B00008BF082405D041F02000782814BF0A242D
:1059C00010243C25D7E90023642918BF6929904693
:1059D000994605D1002B03D5D8F1000869EB490998
:1059E000B9F1000F08BFB8F1000F0CD1386B50B9F6
:1059F000082C39D197F83800010735D530203B25E0
:105A000086F83B0030E08DF80010404649462246BB
:105A1000E31700F067FA3032D0B26D1E3A280195D4
:105A200004DB9DF80000A0F151018A187255404630
:105A300049462246E31700F055FA80465FEA01091D
:105A400008BFB8F1000F03D0F86871198842DCD3A1
:105A5000082C09D197F83800010705D5705D30286A
:105A600002D06D1E30207055C5F13C02BA6171192B
:105A7000F960386B824208DA821A3A624FF6EF70A8
:105A8000398F01403987BDE8F38300280ED597F898
:105A9000380000F01400102808D17B6B7969386A4F
:105AA0005B1A1B1A9A1A002AC8BF3A62BDE8F38330
:105AB0002DE9D04306460F4614464FF00008DFF8A4
:105AC000549012E0E00707D542464B46304639462F
:105AD000FDF7C2F906460F464046494642464B4648
