:020000040800F2
:10000000000C002031750008D1750008D575000876
:10001000D9750008DD750008E175000800000000D2
:10002000000000000000000000000000F97200085D
:10003000E575000800000000FB720008FD72000872
:10004000E9750008ED750008F1750008F575000800
:10005000F9750008FD750008057300080F730008A6
:100060000176000805760008097600080D7600087C
:100070001176000815760008197600081D7600082C
:100080002176000825760008297600080000000087
:1000900000000000000000000000000019730008CC
:1000A0002D7600083176000835760008397600088C
:1000B0003D7600084176000845760008497600083C
:1000C0004D760008517600085576000859760008EC
:1000D0005D76000861760008657600080000000083
:1000E00023730008697600086D76000800000000A0
:1000F0000000000000000000000000007176000811
:100100000000000075760008797600087D7600080A
:1001100000000000000000000000000000000000DF
:100120008176000885760008897600088D760008BB
:1001300091760008000000000000000000000000B0
:10014000000000000000000000000000957600089C
:10015000997600089D760008A1760008A57600082B
:10016000A9760008AD76000800000000000000003D
:10017000000000000000000000000000000000007F
:1001800000000000B1760008000000000000000040
:10019000B576000870B40822082391FBF3F3082415
:1001A00091FBF4F4045D012591FBF2F602FB1612BB
:1001B00015FA02F22243C25470BC704770B4082290
:1001C000082391FBF3F3082491FBF4F4045D01256B
:1001D00091FBF2F602FB161215FA02F234EA020261
:1001E000C25470BC704710B40822082391FBF3F38B
:1001F000C05C012391FBF2F402FB141113FA01F12C
:10020000084201D0012000E00020C0B210BC7047BD
:1002100010B5DFF8C04ADFF8C02A4FF48071200023
:1002200001F0CCFC200001F0EBFC020041F288332D
:1002300092B22100DFF8A40A01F055FD10BD7CB593
:10024000FF208DF801008DF80000DFF8944A0FF6CA
:10025000D51020600FF601206060DFF8886AA66084
:100260000C2001F0D5FF05000FF6191068600FF69D
:100270007D002860AE606946280002F0D6F89DF83F
:100280000000B32800D0FEE70DF10101200002F0CC
:1002900038FC9DF801006C2800D0FEE70121200009
:1002A00002F039FC0DF10201200002F04FFC9DF834
:1002B00002000028F6D18021200002F056FC122115
:1002C000280002F071F873BD2DE9F34F81B00500ED
:1002D000160000208DF800000027300001F090FC8F
:1002E0008046DFF8F0B9029BDFF8002A4FF48071F6
:1002F000584601F063FC584601F082FCDFF8DC99B7
:1003000041F2883A5346020092B25946484601F0FB
:10031000EAFC4FF47A7301226946280001F053FD8C
:100320000028F6D19DF800000D2823D100200400FC
:10033000444506D23800315DC0B2884201D0641C09
:10034000F6E7444513D13B00DBB2DFF8242D4FF430
:100350008071584601F032FC584601F051FC53467A
:10036000020092B25946484601F0BDFCD1E7380080
:10037000C0B203E09DF800000700CAE7BDE8FE8FA9
:100380002DE9F84384B004000D005FF010085FF021
:1003900000096E464A464146300003F007FA00263F
:1003A0000027042F39DA5FF01408A06A08FB07F170
:1003B0000844007C2900C9B2884206D1390014F1F2
:1003C0002400FFF710FF002800D124E0A06A08FBFA
:1003D00007F840449DED000AD0ED000A30EE200AF7
:1003E0008DED000A9DED010AD0ED010A30EE200AE4
:1003F0008DED010A9DED020AD0ED020A30EE200AD1
:100400008DED020A9DED030AD0ED030A30EE200ABD
:100410008DED030A761C7F1CC3E700EE106AB8EE70
:10042000C00ADDED000A80EE800A8DED000A00EEC4
:10043000106AB8EEC00ADDED010A80EE800A8DED8B
:10044000010A00EE106AB8EEC00ADDED020A80EE85
:10045000800A8DED020A00EE106AB8EEC00ADDEDEA
:10046000030A80EE800A8DED030A684690EC040AC8
:1004700005B0BDE8F0832DE9F8432DED048B84B081
:100480000400B0EE408AF0EE608AB0EE419AF0EEE1
:10049000619A0D005FF010085FF000096E464A4651
:1004A0004146300003F082F900260027042F49DA84
:1004B0005FF01408A06A08FB07F10844007C2900DB
:1004C000C9B2884206D1390014F12400FFF78BFE2F
:1004D000002800D134E0A06A08FB07F8804498EDBA
:1004E000000A30EE480A00F00AFDDDED000A30EEA9
:1004F000800A8DED000A98ED010A30EE680A00F0DE
:10050000FEFCDDED010A30EE800A8DED010A98ED6A
:10051000020A30EE490A00F0F2FCDDED020A30EE8C
:10052000800A8DED020A98ED030A30EE690A00F0A8
:10053000E6FCDDED030A30EE800A8DED030A761C41
:100540007F1CB3E7022E5BDB701E00EE100AB8EED4
:10055000C00ADDED000A80EE800A8DED000A701EF3
:1005600000EE100AB8EEC00ADDED010A80EE800A46
:100570008DED010A701E00EE100AB8EEC00ADDED26
:10058000020A80EE800A8DED020A701E00EE100A4B
:10059000B8EEC00ADDED030A80EE800A8DED030A95
:1005A000009803F043F941EC100B03F063F951ECB0
:1005B000100B03F0E1F90090019803F037F941ECDA
:1005C000100B03F057F951EC100B03F0D5F9019023
:1005D000029803F02BF941EC100B03F04BF951ECAE
:1005E000100B03F0C9F90290039803F01FF941ECD6
:1005F000100B03F03FF951EC100B03F0BDF9039021
:10060000684690EC040A04B0BDEC048BBDE8F183AD
:100610002DE9F84FEAB0040010200B90002703AD3D
:100620003A000B99280003F0C1F85FF010085FF062
:10063000000912AD4A464146280003F0B7F85FF0C2
:10064000B00A5FF0000B16AD5A465146280003F081
:10065000ADF8DFF88C56DFF8206A3068010089B207
:10066000280002F000FD0121280002F05FFD0321B7
:10067000280002F0AAFC09A9280002F018FC9DF845
:10068000240050F008008DF8240009A9280002F089
:10069000A4FA0121280002F00EFE0321280002F036
:1006A000BCFF0121280002F009FD0121280002F011
:1006B00020FD5D208DF8080027208DF80900062018
:1006C0008DF80A0002A9280003F00BF80021280089
:1006D00002F051FF0121280002F076FF00212800DE
:1006E00001F0E6FE0621280002F049F80121280069
:1006F00002F0ACF90121280001F0F5FE01212800EB
:1007000002F058F80020ADF802000020ADF8040017
:100710005FF0000800270DF10101280002F041FD03
:100720009DF801000028EDD00DF10201280002F033
:1007300018FDBDF80200411EADF8021080B200287D
:1007400000F08C8001A9280002F00BFD694628000A
:1007500002F036FD9DF80000012839D0022802D0B1
:100760000E2845D06AE05FF006095FF0000A0DF13F
:10077000300B52464946584603F018F80CA9280099
:1007800002F098F93068032190FBF1F04146C9B2BC
:100790008142CEDA5FF000094846C0B2032814DA7D
:1007A00042A84146C9B2090108444946C9B200EB12
:1007B000810A0CA84946C9B230F9110001F06CFE5B
:1007C0008AED000A19F10109E6E718F10108B0E71E
:1007D0005FF006095FF0000A0DF1400B52464946F2
:1007E000584602F0E3FF10A9280002F063F9A0E7E1
:1007F0005FF008095FF0000A0DF11C0B52464946F4
:10080000584602F0D3FF07A9280002F053F9002050
:100810008DF81C003068032190FBF1F03900C9B25B
:10082000814286DA079801F0ADFD42A83900C9B2CD
:100830000901084480ED030A7F1C7AE75FF006098E
:100840005FF0000A0DF1380B52464946584602F057
:10085000ADFF0EA9280002F02DF96AE738004146E5
:10086000C0B2C9B2884201D23D0000E04546002036
:1008700001002A00C9B2D2B2914241D242A902007B
:10088000D2B21201114416AA0300DBB21B010E689A
:10089000D65016AA0300DBB21B011A444B68536002
:1008A00016AA0300DBB21B011A448B68936016AAD8
:1008B0000300DBB21B011A44CB68D3609DED030A31
:1008C000D1ED000A30EE200A8DED030A9DED040AF9
:1008D000D1ED010A30EE200A8DED040A9DED050AE6
:1008E000D1ED020A30EE200A8DED050A9DED060AD3
:1008F000D1ED030A30EE200A8DED060A401CB7E761
:100900002800C0B200EE100AB8EE400ADDED030A7E
:1009100080EE800A8DED030A2800C0B200EE100AB6
:10092000B8EE400ADDED040A80EE800A8DED040A7F
:100930002800C0B200EE100AB8EE400ADDED050A4C
:1009400080EE800A8DED050A2800C0B200EE100A84
:10095000B8EE400ADDED060A80EE800A8DED060A4B
:100960003EA803A991EC040A80EC040A200016A911
:10097000B02203F045F86BB0BDE8F08F10B5DFF89A
:100980005443DFF8382B4FF48071200001F016F942
:10099000200001F035F9020041F2883392B22100C3
:1009A000DFF8380301F09FF9DFF8144B206830F0CE
:1009B000020020600121002003F066F8206850F05A
:1009C0000200206010BD704710B586B00400002002
:1009D0000090DFF8F00A016851F40031016000680E
:1009E00010F400300090009800200090DFF8D80A42
:1009F000016851F001010160006810F001000090F1
:100A000000980C2001900220029000200390032007
:100A100004900720059001A9DFF8B00A03F046F81A
:100A200006B010BD38B5050000242800C0B2022869
:100A300003D37FF00100040014E0DFF8941ADFF81C
:100A4000940A2A00D2B250F822202B00DBB24020B8
:100A50004343CA502A00D2B24020424301EB020075
:100A6000FFF7B2FF200032BD7CB503F04DF900F076
:100A7000E6FF03F063F903F0C9F903F087FA03F026
:100A800003FBFFF7A0FF0020FFF7CCFF914CDFF83E
:100A9000742D4FF48071200001F090F8200001F0D7
:100AA000AFF802008D4D41F28836330092B221003A
:100AB000280001F018F9FFF7C2FBFFF75FFFDFF82E
:100AC000482D4FF48071200001F078F8200001F0EB
:100AD00097F83300020092B22100280001F003F9D8
:100AE000012269460F2003F0A3FA73BD2DE9F843F4
:100AF00084B004000D0016001F005D208DF8040076
:100B00008DF8055030788DF80600DFF8D49101A9F2
:100B1000484602F0ADFD80460021484601F0E3FC66
:100B20000121484602F050FD0421484601F0DBFC5B
:100B300002A9484601F0B4FF142003F0FFFA0DF1BA
:100B40000101484601F09DFF9DF801000028F3D007
:100B5000142003F0F3FA6946484602F00DFE9DF8B2
:100B6000000010F001000028F2D00021484602F0F9
:100B70002BFD0021484601F0B6FC404605B0BDE81B
:100B8000F08300002DE9F84384B004000D00160046
:100B90001F00DFF84C810021404601F0A4FC5D20DD
:100BA0008DF804008DF8055038008DF8060001A975
:100BB000404602F096FD81460021404602F0DBFCF3
:100BC0000121404602F000FD0421404601F08BFC6B
:100BD00002A9404601F064FF142003F0AFFA0DF1C2
:100BE0000101404601F04DFF9DF801000028F3D0BF
:100BF0006946404602F0C0FD9DF8000010F001007B
:100C00000028F5D00021404602F0DEFC00214046DD
:100C100001F069FC3100404602F093FC484605B003
:100C2000BDE8F083FEB504000D0016001F002D483E
:100C300084420ED14FF47A700290380080B2019055
:100C4000009601232A00D2B292B2D721200003F0ED
:100C500073FB0020FEBD0000FEB504000D00160071
:100C60001F00204884420ED14FF47A700290380061
:100C700080B20190009601232A00D2B292B2D7210D
:100C8000200003F011FC0020FEBD0000F4EE400A3D
:100C9000F1EE10FA0BD5F0EE402AB0EE600AF0EE5D
:100CA000620AB0EE412AB0EE611AF0EE421A30EE5E
:100CB000C03A71EE212ADFED0C3AF4EE632AF1EE30
:100CC00010FA02D5B6EE002A01E081EE222A02EEE9
:100CD000030A7047C00100204C750008140300206F
:100CE000D4030020C002002095BFD633A0750008B1
:100CF00070B5BCB004000D0000212800FFF740FBD8
:100D000014A880EC040A01212800FFF739FB10A881
:100D100080EC040A02212800FFF732FB0CA880ECCB
:100D2000040A03212800FFF72BFB08A880EC040A23
:100D3000002114A890EC040A2800FFF79CFB2CA8C3
:100D400080EC040A012110A890EC040A2800FFF7A7
:100D500092FB28A880EC040A02210CA890EC040A5B
:100D60002800FFF788FB24A880EC040A032108A8C8
:100D700090EC040A2800FFF77EFB20A880EC040A10
:100D80000026032E1CDA28A800EB8600D0ED001AFE
:100D90002CA800EB860090ED001A10A800EB86004E
:100DA000D0ED000A14A800EB860090ED000AFFF7D2
:100DB0006DFF30A800EB860080ED000A761CE0E7AE
:100DC000DDED2B1A9DED2F1ADDED130A9DED170AAF
:100DD000FFF75CFF8DED330A0026032E1CDA20A8F6
:100DE00000EB8600D0ED001A24A800EB860090ED01
:100DF000001A08A800EB8600D0ED000A0CA800EB52
:100E0000860090ED000AFFF741FF30A800EB860056
:100E100080ED040A761CE0E7DDED231A9DED271A2C
:100E2000DDED0B0A9DED0F0AFFF730FF8DED370A60
:100E300002212800FFF7A4FA04A880EC040A00218C
:100E40002800FFF79DFA684680EC040A022104A8F6
:100E500090EC040A2800FFF70EFB1CA880EC040AA3
:100E60000021684690EC040A2800FFF704FB18A84C
:100E700080EC040A0026032E1CDA1CA800EB860076
:100E8000D0ED001A18A800EB860090ED001A04A817
:100E900000EB8600D0ED000A684600EB860090ED7E
:100EA000000AFFF7F3FE30A800EB860080ED080A89
:100EB000761CE0E7DDED1F1A9DED1B1ADDED070A3C
:100EC0009DED030AFFF7E2FE8DED3B0A200030A9FD
:100ED000302202F095FD3CB070BD0A00002A022AC3
:100EE00002D9D21E05D007E000EB810090ED000A88
:100EF00004E090ED030A01E0BFEE000A704720EE27
:100F0000000A70472DE9F24F2DED048B0400B0EE7E
:100F1000408A0025002600275FF000085FF0000AE5
:100F20005FF00009B9F1040F4DDA494614F12400CD
:100F3000FFF759F9002843D01AF1010A5FF0140BAA
:100F40000499A06A0BFB09F21044FFF7C6FFB4EE48
:100F5000480AF1EE10FA33D5A06A0BFB09F10844F8
:100F6000007C002801D16D1C03E0761C7F1C18F169
:100F70000108A06A0BFB09F10844007C012801D19B
:100F8000761C03E06D1C7F1C18F10108A06A0BFBA6
:100F900009F10844007C022801D17F1C03E06D1C8C
:100FA000761C18F10108A06A0BFB09FB5844007C71
:100FB000032802D118F1010802E06D1C7F1C761C89
:100FC00019F10109AEE716EB0509DFED2A8AB9F13F
:100FD000010F17DB96FBF9F000EE100AB8EEC00A1D
:100FE000FFF78DFFF7EE000A30EEC09A95FBF9F09F
:100FF00000EE100AB8EEC00AFFF781FF39EE400A92
:10100000F0EE408A18EB070B9FED1A9ABBF1010F27
:1010100017DB97FBFBF000EE100AB8EEC00AFFF7F3
:101020006EFFF7EE000A70EEC09A98FBFBF000EE40
:10103000100AB8EEC00AFFF762FF39EEC00AB0EE40
:10104000409A00EE109AB8EEC00A20EE280A00EE90
:1010500090BAF8EEE00A00EE890A00EE90AAF8EEE7
:10106000E00A80EE200ABDEC048BBDE8F18F0000A1
:101070006874000800000000CC75000838B584B022
:101080000400102100226D46280002F08FFB00258D
:10109000042D19DA290014F12400FFF7A4F8002820
:1010A00010D014216846A26A01FB05F31A44127C91
:1010B000A36A01FB05F11944097C50F82110491C71
:1010C00040F822106D1CE3E7002200230025042DC8
:1010D00012DA694651F82500C31851F825008242FA
:1010E00003DA51F825000200657351F8250004EB7E
:1010F000850148616D1CEAE7981A00EE100AB8EE07
:10110000C00A00EE903AF8EEE00A80EE200A84ED84
:10111000040A05B030BD00002DE9F84F2DED048B19
:101120009CB0040021000FA8FFF7E2FD13A890EC8B
:10113000040A03A880EC040A21000FA8FFF7D8FDD9
:101140000BA80FA991EC040A80EC040A21000FA857
:10115000FFF7CEFD17A890EC040A07A880EC040A5C
:101160009FED109AB0EE498AF0EE498AFF273D00C4
:101170008DF801508DF800500326002E14D4310054
:1011800003A8FFF7AAFE31002000FFF7BBFEB4EE74
:10119000490AF1EE10FA03D5B0EE409A300005008E
:1011A000761EEAE70000C8420326002E13D4310061
:1011B00003A8FFF792FE31002000FFF7A3FEB4EE74
:1011C000680AF1EE10FA04D5F0EE408A30008DF88E
:1011D0000000761EE9E70326002E13D4310003A891
:1011E000FFF77BFE31002000FFF78CFEB4EE480ACB
:1011F000F1EE10FA04D5B0EE408A30008DF801000F
:10120000761EE9E79DF800002900C9B2884208D39C
:101210009DF801002900C9B2884202D32E00F6B21F
:1012200010E028009DF80010C0B2884208D39DF855
:1012300001009DF80010884202D39DF8006001E093
:101240009DF8016026732900C9B203A8FFF745FE87
:1012500084ED000A9DF800100BA8FFF73EFE84ED18
:10126000010A9DF8011007A8FFF737FE84ED020A76
:1012700000202063206BE062342000F0C9FF0700EB
:101280000020F862F86A38639FED8B0A87ED020A46
:1012900087ED010A87ED000A00203873A06AB86262
:1012A0005FF0010914F1240B17F124084A4659464E
:1012B000404602F095FB5FF0000A5FF00008B8F1CD
:1012C000040F3DDA5FF01409217BB86A09FB08F2CC
:1012D0001044FFF702FED4ED000AB4EE600AF1EE0E
:1012E00010FA1BDA217BB86A09FB08F21044FFF7F9
:1012F000F4FDD4ED010AB4EE600AF1EE10FA0DDA55
:10130000217BB86A09FB08F94844FFF7E6FDD4EDF4
:10131000020AB4EE600AF1EE10FA05DB414617F15D
:101320002400FEF74BFF08E0414617F12400FEF7CA
:101330005AFF002801D01AF1010A18F10108BEE78E
:101340005046C0B2002804D0E7623800FFF796FE8E
:1013500004E0380003F097FC00200700342000F080
:1013600057FF80460020C8F82C00D8F82C00C8F899
:1013700030009FED510A88ED020A88ED010A88EDE0
:10138000000A002088F80C00A06AC8F82800012094
:10139000029014F12400019018F12409029A019995
:1013A000484602F01DFB5FF000095FF0000BBBF147
:1013B000040F40DA5FF0140A217BD8F828000AFBFA
:1013C0000BF21044FFF789FDD4ED000AB4EE600A79
:1013D000F1EE10FA1DD4217BD8F828000AFB0BF29D
:1013E0001044FFF77AFDD4ED010AB4EE600AF1EE85
:1013F00010FA0ED4217BD8F828000AFB0BFA5044CF
:10140000FFF76BFDD4ED020AB4EE600AF1EE10FABC
:1014100005D5594618F12400FEF7D0FE08E05946DC
:1014200018F12400FEF7DFFE002801D019F10109B0
:101430001BF1010BBBE74846C0B2002805D0C4F839
:1014400030804046FFF71AFE04E0404603F01BFCE4
:1014500000208046B5EE409AF1EE10FA09D0F5EE84
:10146000408AF1EE10FA04D0B5EE408AF1EE10FA9F
:1014700000D11BE0E06A00280AD0E06A90ED040A7F
:10148000B5EE400AF1EE10FA02DDE06AFFF744FE25
:10149000206B00280AD0206B90ED040AB5EE400ABC
:1014A000F1EE10FA02DD206BFFF736FE1CB0BDEC4A
:1014B000048BBDE8F18F000000000000A875000853
:1014C00010E000E0403802403038024000000240A6
:1014D00054030020000000202DE9F04104003420D6
:1014E00000F096FE050034275FF000082E0042460B
:1014F0003900300002F05AF9AC620026042E06DAF8
:10150000310015F12400FEF745FE761CF6E72800B1
:10151000FFF7B4FD2800FFF7FFFD2800BDE8F081CC
:1015200010B50400002C05D0E06AFFF7F9FF206B2E
:10153000FFF7F6FF10BD020000200023042B05DAA0
:1015400002EB8301496908185B1CF7E770472DE936
:10155000F24F88B00400E06A216B884203D1012079
:101560008DF8080002E000208DF8080000274FF4F5
:101570008075A8465FF00009DFF8E865B2464A4684
:101580004146504602F012F99DF8080000284CD060
:101590002000FFF7D0FF80460025042D0BDA607B8A
:1015A000A84206D1DFF8C00550F8251003A803F0C3
:1015B0006DFB6D1CF1E7CDF8008003ABDFF8AC25C7
:1015C0004FF48071300000F0F9FA300000F018FBA1
:1015D000050094ED040AB5EE400AF1EE10FA10D0C1
:1015E00094ED040ABDEEC00A10EE103A08FB03F3B6
:1015F000DFF87C25D5F5807106EB050000F0DEFAFA
:1016000006E082A2D5F5807106EB050000F0D6FA5F
:10161000300000F0F5FA020041F2883392B2310056
:10162000DFF8500500F05FFBE8E0E06A002869D0D1
:101630000D20F0557F1C0A20F0557F1C00200899D2
:10164000884207DA7C21F1557F1C0921F1557F1C66
:10165000401CF4E7DFF82085DFF82095206802F0D1
:10166000E5F8CDE90001207B59F820304246D7F556
:10167000807106EB070000F0A1FA300000F0C0FA1C
:10168000DFF8F0B441F2883A5346020092B23100DA
:10169000584600F028FB606802F0C8F8CDE9000168
:1016A000207B59F820304246D7F5807106EB0700C1
:1016B00000F084FA300000F0A3FA5346020092B220
:1016C0003100584600F00FFBA06802F0AFF8CDE9FA
:1016D0000001207B59F820304246D7F5807106EB97
:1016E000070000F06BFA300000F08AFA534602005F
:1016F00092B23100584600F0F6FA0899491CE06AA7
:10170000FFF725FF206B002878D05FF000085FF01E
:101710000009B2464A462900504602F047F80D201B
:1017200006F8080018F101080A2006F8080018F168
:101730000108474600200899884207DA7C21F155C4
:101740007F1C0921F1557F1C401CF4E7DFF8305461
:10175000DFF82884206802F069F8CDE90001207BD9
:1017600058F820302A00D7F5807106EB070000F00A
:1017700025FA300000F044FADFF8F8A341F2883986
:101780004B46020092B23100504600F0ACFA60685D
:1017900002F04CF8CDE90001207B58F820302A00F7
:1017A000D7F5807106EB070000F008FA300000F072
:1017B00027FA4B46020092B23100504600F093FAED
:1017C000A06802F033F8CDE90001207B58F8203002
:1017D0002A00D7F5807106EB070000F0EFF9300022
:1017E00000F00EFA4B46020092B23100504600F073
:1017F0007AFA0899491C206BFFF7A9FE09B0BDE8E9
:10180000F08F00004873000874730008290000007E
:101810002DE9F847F5B0FFF727F95025002661AC10
:1018200032002900200001F0C1FF0024042C48DA16
:1018300009A8FEF7EDFE142561A805FB04F1084494
:1018400031A991EC040A80EC040ACA4ECD4ACE4973
:101850003000FEF739FD0700B7F1300061A905FB44
:1018600004F2114408745FF00008B8F1040F11DAB3
:1018700061A805FB04F10844007C4146C9B28842D6
:1018800005D1C24850F82810684603F0FFF918F156
:101890000108EAE7B34D6B46BD4A4FF4807128005A
:1018A00000F08CF9280000F0ABF9020041F2883317
:1018B00092B22900300000F016FAFFF75FF8641CBE
:1018C000B4E761A8FFF708FE82465046FFF728FEFE
:1018D00000215046FFF73BFEFFF750F8AD4C0121C9
:1018E000200001F061FD0221200001F0CBFDB026B7
:1018F000002735AD3A003100280001F057FF0025E0
:1019000008A9200001F0B4FD9DF8206016F0010642
:10191000B54215D0934F9DF8203013F001039E4A35
:101920004FF48071380000F049F9380000F068F990
:1019300041F28833020092B239008E4800F0D3F9A8
:10194000964F3878002814D0DFF81882944A4FF464
:101950008071404600F032F9404600F051F941F202
:101960008833020092B24146824800F0BCF9002060
:10197000387035008B4F38780028C1D009A8FEF7A1
:1019800047FE35A809A9B02202F03AF85FF0000836
:10199000B8F10A0F39DADFF8CC9135A85FEA0811FF
:1019A0000844C06801F042FFCDE9060135A85FEAAE
:1019B00008110844806801F039FFCDE9040135A819
:1019C0005FEA08110844406801F030FFCDE90201E8
:1019D00035A85FEA0811405801F028FFCDE9000161
:1019E0004346714A4FF48071484600F0E7F8484694
:1019F00000F006F941F28833020092B249465D4890
:101A000000F071F918F10108C2E7DFF8588154A21B
:101A10004FF48071404600F0D1F8404600F0F0F8F5
:101A200041F28833020092B24146524800F05BF91D
:101A30000021200001F07AFB0020387060E710B52B
:101A400092B03021002206AC200001F0AFFE14213C
:101A5000002201AC200001F0A9FE002000905348B4
:101A6000016851F080510160006810F080500090D2
:101A70000098002000904E48016831F4404151F434
:101A800000410160006810F440400090009802207E
:101A900006900120099010200A9002200C9000204E
:101AA0000D9010200E904FF4A8700F90042010900D
:101AB0000720119006A803F0F5F8002801D0FEF7E2
:101AC000A7FB0F20019002200290002003904FF40A
:101AD0008050049000200590022101A803F0A2FA92
:101AE000002801D0FEF794FB12B010BD80B503F0C2
:101AF000ABFB02BDF8B50500280080B2022802D178
:101B0000012026490870280080B2B0F5005F23D17B
:101B10000024284E3068002809D127480068002892
:101B200005D1FFF7E3FF3060012004000EE0224FF3
:101B3000FFF7DCFF386038683168411A40F22D1237
:101B4000914203D33968316001210C00002C05D08B
:101B500001201449087001E0FEF75AFBF1BD0000B6
:101B60000D0A0000C0010020140000205875000874
:101B7000B0750008140300206475000804000020FC
:101B800070750008B87500089871000824000020DE
:101B90000C750008D403002084740008FD030020A5
:101BA000B8740008FC030020A0730008403802400D
:101BB00000700040E8030020EC03002008B438B5B2
:101BC00085B009AC00250494039500290EBF01954A
:101BD0000190491E0291009504AB01A90748784481
:101BE0001A3003F037FB019901B10D70002858BF7E
:101BF000039806B030BC5DF808FB00BF171C00005E
:101C000000F10103810704D010F8011B820781B1A4
:101C1000FAD10268A2F10131914311F0803104BF81
:101C200050F8042FF6E709BAB1FA81F100EBD100C0
:101C3000401CC01A704730B4002513E050F8042B44
:101C4000D30744BFA9F101039A18091F042942F8D8
:101C5000045BFAD213468C0744BF15809B1CC9074E
:101C600048BF1D7050F8041B0029E7D130BC7047F5
:101C700010B50400002C01D1012033E0A069002838
:101C8000FFD194F83900002805D1002084F83800ED
:101C9000200002F013FA242084F839002068C0687C
:101CA00030F400502168C860200000F038F9206846
:101CB000006930F49040216808612068406930F084
:101CC0002A00216848612068C06850F400502168EB
:101CD000C8600020E063202084F83900202084F8C8
:101CE0003A00002010BD2DE9FC4705000C0016004D
:101CF0001F005FF0000A95F83900202860D1002C01
:101D000003D0300080B2002801D1012059E095F8BD
:101D10003800012801D1022053E0012085F8380065
:101D20000020E863212085F8390003F08DFA814610
:101D3000AE84EE84E88C00282FD0E88C401EE88426
:101D4000A868B0F5805F18D100974B46002280212B
:101D5000280000F0ADF8002801D0032031E0A046B3
:101D6000B8F80000C005C00D29684860286900283F
:101D700001D1A41CDEE7641CDCE700974B4600227F
:101D80008021280000F094F8002801D0032018E0FA
:101D9000207829684860641CCCE700974B460022F5
:101DA0004021280000F084F8002801D0032008E03A
:101DB000202085F83900002085F83800002000E058
:101DC0000220BDE8F6872DE9FC4705000C0016004F
:101DD0001F005FF0000A95F83A00202865D1002C1A
:101DE00003D0300080B2002801D101205EE095F8D8
:101DF0003800012801D1022058E0012085F8380080
:101E00000020E863222085F83A0003F01DFA81469D
:101E1000AE85EE85E88D00283FD0E88D401EE88530
:101E2000A868B0F5805F1ED100974B4600222021A4
:101E3000280000F03DF8002801D0032036E0A0463D
:101E40002869002807D128684068C005C00DA8F897
:101E50000000A41CDEE72868406800F0FF00A8F836
:101E60000000641CD6E700974B4600222021280082
:101E700000F01EF8002801D0032017E02869002890
:101E800004D1286840682070641CC3E72868406853
:101E900010F07F002070641CBCE7202085F83A0019
:101EA000002085F83800002000E00220BDE8F68719
:101EB0002DE9F04105000E0090461F00069C2868A1
:101EC00000683040B04201D1012000E000204146CE
:101ED000C9B2884220D114F1010FF0D0002C04D0F7
:101EE00003F0B2F9C01B8442E9D22868C06830F41C
:101EF000D0702968C8602868406940084000296897
:101F00004861202085F83900202085F83A0000201B
:101F100085F83800032000E00020BDE8F0812DE9BD
:101F2000F84304002068016931F44051E06801433E
:101F300020680161A5682069054360690543E0697F
:101F400005432068C168AF48014029432068C1604B
:101F50002068416931F44071A06901432068416102
:101F6000E069B0F5004F40F0A6802068A64988429D
:101F700003D02068A54988424ED103F000F906003D
:101F800003F0FDF8070003F0FAF8804603F0F7F8D5
:101F9000814603F0F4F864211922564363685B001C
:101FA000B6FBF3F36426B3FBF6F35743666876009B
:101FB000B7FBF6F602FB08F867687F00B8FBF7F797
:101FC0005FF0640CB7FBFCF701FB1766F6003236D6
:101FD0006427B6FBF7F6760016F4F87616EB0316D0
:101FE00002FB09F963685B00B9FBF3F302FB00F243
:101FF00060684000B2FBF0F06422B0FBF2F001FB3D
:102000001031C80032306421B0FBF1F010F007004D
:10201000861920688660F1E003F0A6F8060003F058
:10202000A3F8070003F0A0F8804603F09DF881466E
:1020300003F09AF864211922564363685B00B6FBEB
:10204000F3F36426B3FBF6F3574366687600B7FBF9
:10205000F6F602FB08F867687F00B8FBF7F75FF059
:10206000640CB7FBFCF701FB1766F60032366427F9
:10207000B6FBF7F6760016F4F87616EB031602FBBD
:1020800009F963685B00B9FBF3F302FB00F26068D7
:102090004000B2FBF0F06422B0FBF2F001FB103123
:1020A000C80032306421B0FBF1F010F0070086194F
:1020B00020688660A2E020685349884203D02068E7
:1020C000524988424DD103F05AF8060003F057F800
:1020D000070003F054F8804603F051F8814603F0FE
:1020E0004EF864211922564363689B00B6FBF3F354
:1020F0006426B3FBF6F357436668B600B7FBF6F603
:1021000002FB08F86768BF00B8FBF7F75FF0640CE4
:10211000B7FBFCF701FB1766360132366427B6FBC6
:10212000F7F616F0F00616EB031602FB09F96368E2
:102130009B00B9FBF3F302FB00F260688000B2FB86
:10214000F0F06422B0FBF2F001FB103108013230F4
:102150006421B0FBF1F010F00F0086192068866052
:102160004CE003F001F8060002F0FEFF070002F069
:10217000FBFF804602F0F8FF814602F0F5FF642184
:102180001922564363689B00B6FBF3F36426B3FB46
:10219000F6F357436668B600B7FBF6F602FB08F89D
:1021A0006768BF00B8FBF7F75FF0640CB7FBFCF79C
:1021B00001FB1766360132366427B6FBF7F616F0D8
:1021C000F00616EB031602FB09F963689B00B9FBE6
:1021D000F3F302FB00F260688000B2FBF0F06422CF
:1021E000B0FBF2F001FB1031080132306421B0FB8A
:1021F000F1F010F00F00861920688660BDE8F183C9
:1022000000000000F369FFFF0010014000140140CE
:1022100010B50446AFF30080204600F005F80446F0
:10222000AFF30080204610BD70B500F10F04E40844
:10223000E400A0422CD2082C04D2082402E008308A
:1022400000F046F8DFF8FC201368190005D10020E3
:1022500007E00568A5420DD2011D08680028F8D1E5
:102260001868111D00E0191D0B6883420CD01D6811
:10227000A542F8D361B10B681868A0F10805A54222
:1022800008D2586808600DE004F048F80028D6D15C
:10229000002070BD1D190D60001B5E686E600D682A
:1022A00028601C60096800291DBF48680028081DB7
:1022B0000020106003F1080070BD10B5040006D0C6
:1022C000AFF30080204600F003F8AFF3008010BDAC
:1022D000002800D1704770B4A0F108021368072BE2
:1022E0002ED913F0070F2BD1DFF85840616809B1E0
:1022F0008A4203D25160626015E00146486808B125
:102300009042FAD308680E18B24219D3964203D10C
:102310001B180B600A4606E0486810B11344984247
:102320000ED350604A60506850B11368D51885428A
:1023300006D1002626600168CB1813604068506003
:1023400070BC7047E0030020F8B504000D001600D3
:102350001F003B009BB232002900C9B2A068D4F82C
:1023600004C0E047F2BDF8B504000D0016001F00E0
:102370003B009BB232002900C9B2A068D4F800C06B
:10238000E047F2BD00EE100AB8EEC00ADFED040A25
:1023900080EE200ADFED030A80EE200A704700007D
:1023A00000008045000080437CB505000E0001233D
:1023B0000DF1010210212800FFF7C6FF0400002CD8
:1023C00006D101236A4611212800FFF7BDFF040052
:1023D000002C0DD19DF8010066F306108DF8010068
:1023E00001230DF1010210212800FFF7BCFF0400BA
:1023F000002C18D13000C0B200099DF8001060F325
:1024000041018DF800103000C0B2C0089DF80010E6
:1024100060F300018DF8001001236A4611212800A5
:10242000FFF7A1FF0400200076BD38B504000D00C1
:1024300001232A000F212000FFF786FF32BDB1F5EE
:10244000807F02D34FF0FF3070470170012070474A
:102450000078401E8041C043C00F7047F8B50400AB
:102460000D0016001F003B009BB232002900C9B2CC
:10247000A068D4F804C0E047F2BDF8B504000D0030
:1024800016001F003B009BB232002900C9B2A068B1
:10249000D4F800C0E047F2BD00B200EE100AB8EE7A
:1024A000C00ADFED020A20EE200A704723DB793DE7
:1024B0007CB505000E0001236A4610212800FFF7B5
:1024C000CDFF0400002C0CD19DF8000066F38300C2
:1024D0008DF8000001236A4610212800FFF7CDFF88
:1024E0000400200076BDFEB505000E0037006946E9
:1024F000280000F009FF0400002C40F0B3809DF894
:10250000001011F001019DF80000C0F340000143EC
:102510009DF80000C0F3800001439DF80000C0F367
:10252000C00001439DF80000C0F3001001439DF876
:102530000000C0F3401001439DF80000C0F380107C
:1025400001439DF80000C0B251EAD0119DF801008E
:1025500010F0010001439DF80100C0F34000014369
:102560009DF80100C0F3800001439DF80100C0F315
:10257000C00001439DF80100C0F3001001439DF825
:102580000100C0F3401001439DF80100C0F380102A
:1025900001439DF80100C0B251EAD011C9B201292E
:1025A00060D10DF10501280000F0C8FE0400002CE8
:1025B00058D19DF80500002805D002281CD00BD367
:1025C000032830D04DE03000C0B2002802D10120F5
:1025D000070000E0370045E03000C0B2002802D11B
:1025E0000220070007E03000C0B2012802D102201B
:1025F000070000E0370035E03000C0B2002802D10B
:10260000032007000EE03000C0B2012802D10320F1
:10261000070007E03000C0B2022802D10320070003
:1026200000E037001EE03000C0B2002802D10420D4
:10263000070015E03000C0B2012802D104200700D5
:102640000EE03000C0B2022802D10420070007E0EB
:102650003000C0B2032802D10420070000E0370098
:1026600000E0370000208DF80300002C69D10DF147
:102670000301280000F0DDFE04009DF8030001289E
:102680005FD101A9280000F026FF0400002C58D1DA
:102690009DF80400002805D002281CD00BD3032885
:1026A00030D04DE03000C0B2002802D10120070038
:1026B00000E0370045E03000C0B2002802D102201F
:1026C000070007E03000C0B2012802D10220070055
:1026D00000E0370035E03000C0B2002802D103200E
:1026E00007000EE03000C0B2012802D1032007002D
:1026F00007E03000C0B2022802D10320070000E04A
:1027000037001EE03000C0B2002802D104200700CC
:1027100015E03000C0B2012802D1042007000EE00D
:102720003000C0B2022802D10420070007E03000C8
:10273000C0B2032802D10420070000E0370000E007
:102740003700002C07D101230DF1020210212800CF
:10275000FFF784FE0400002C0FD19DF8020010F05A
:102760000F0050EA07108DF8020001230DF102025C
:1027700010212800FFF781FE04002000FEBD7CB57B
:1027800005000E0001236A4611212800FFF766FEAE
:102790000400002C0CD19DF8000066F343008DF876
:1027A000000001236A4611212800FFF766FE04009D
:1027B000200076BDFEB505000E00370069462800F2
:1027C00000F0A2FD0400002C40F0B3809DF8001042
:1027D00011F001019DF80000C0F3400001439DF895
:1027E0000000C0F3800001439DF80000C0F3C0006A
:1027F00001439DF80000C0F3001001439DF8000064
:10280000C0F3401001439DF80000C0F38010014365
:102810009DF80000C0B251EAD0119DF8010010F0FF
:10282000010001439DF80100C0F3400001439DF801
:102830000100C0F3800001439DF80100C0F3C00017
:1028400001439DF80100C0F3001001439DF8010011
:10285000C0F3401001439DF80100C0F38010014314
:102860009DF80100C0B251EAD011C9B2012960D16E
:102870000DF10501280000F061FD0400002C58D185
:102880009DF80500002805D002281CD00BD3032892
:1028900030D04DE03000C0B2002802D10120070046
:1028A00000E0370045E03000C0B2002802D102202D
:1028B000070007E03000C0B2012802D10220070063
:1028C00000E0370035E03000C0B2002802D103201C
:1028D00007000EE03000C0B2012802D1032007003B
:1028E00007E03000C0B2022802D10320070000E058
:1028F00037001EE03000C0B2002802D104200700DB
:1029000015E03000C0B2012802D1042007000EE01B
:102910003000C0B2022802D10420070007E03000D6
:10292000C0B2032802D10420070000E0370000E015
:10293000370000208DF80300002C69D10DF1030150
:10294000280000F076FD04009DF8030001285FD107
:1029500001A9280000F0BFFD0400002C58D19DF80B
:102960000400002805D002281CD00BD3032830D047
:102970004DE03000C0B2002802D10120070000E085
:10298000370045E03000C0B2002802D10220070025
:1029900007E03000C0B2012802D10220070000E0A9
:1029A000370035E03000C0B2002802D10320070014
:1029B0000EE03000C0B2012802D10320070007E07A
:1029C0003000C0B2022802D10320070000E0370027
:1029D0001EE03000C0B2002802D10420070015E03C
:1029E0003000C0B2012802D1042007000EE0300000
:1029F000C0B2022802D10420070007E03000C0B2B4
:102A0000032802D10420070000E0370000E037006F
:102A1000002C07D101230DF1020211212800FFF73C
:102A20001DFD0400002C0FD19DF8020010F00F00D6
:102A300050EA07108DF8020001230DF10202112166
:102A40002800FFF71AFD04002000FEBD7CB505003C
:102A50000E0001236A4612212800FFF7FFFC040044
:102A6000002C0CD19DF8000066F386108DF8000054
:102A700001236A4612212800FFF7FFFC0400200012
:102A800076BD38B504000D0001236A461E212000E2
:102A9000FFF7E4FC9DF8001011F00101297032BD30
:102AA00038B504000D0006232A0028212000FFF776
:102AB000D5FC32BD38B504000D0006232A0079216B
:102AC0002000FFF7CBFC32BD7CB505000E000123D2
:102AD0006A4601212800FFF7C1FC0400002C0ED13A
:102AE0009DF8000010F03F0050EA86108DF80000BD
:102AF00001236A4601212800FFF7BFFC04002000E3
:102B000076BD38B504000D0001232A000F212000F6
:102B1000FFF7A4FC32BD7CB505000E0001236A4618
:102B200012212800FFF79AFC0400002C0CD19DF81C
:102B3000000066F300008DF8000001236A461221B0
:102B40002800FFF79AFC0400200076BD38B5040089
:102B50000D0001236A4612212000FFF77FFC9DF83B
:102B6000001011F00101297032BD7CB505000E0086
:102B700001236A4618212800FFF770FC0400002C8E
:102B80000FD13000C0B2C0099DF8001060F34101C0
:102B90008DF8001001236A4618212800FFF76DFC0C
:102BA0000400002C07D101230DF10102622128004D
:102BB000FFF754FC0400002C0DD19DF8010066F3D2
:102BC000C4008DF8010001230DF1010262212800EB
:102BD000FFF753FC0400200076BD7FB505000E0012
:102BE00002212800FFF770FF0400002C06D101230A
:102BF000721D0D212800FFF740FC0400002C06D1B7
:102C00000123B21C0A212800FFF737FC0400002C26
:102C100006D10123F21C0B212800FFF72EFC040033
:102C2000002C06D10123321D0C212800FFF725FCC2
:102C30000400002C04D100212800FFF745FF040008
:102C4000002C40F08280B078C0B2B178C1F340115E
:102C500051EAD011B078C0F3C0000143B078C0F39E
:102C600000100143F07810F001000143F078C0F348
:102C700040000143F078C0F380000143F078C0F3D6
:102C8000C0000143F078C0F300100143F078C0F3B6
:102C900040100143F078C0F380100143F078C0B2D7
:102CA00051EAD011307910F0010001433079C0F3BE
:102CB000400001433079C0F3800001433079C0F314
:102CC000C00001433079C0F3001001433079C0F3F4
:102CD000401001433079C0F3801001433079C0B215
:102CE00051EAD011707910F0010001437079C0F3FE
:102CF000400001437079C0F3800001437079C0F354
:102D0000C00001437079C0F3001001437079C0F333
:102D1000401001437079C0F3801001437079C0B254
:102D200051EAD011C9B2002904D0707850F00200E5
:102D3000707003E0707810F0FD00707001233200B5
:102D40000D212800FFF799FB0400002C06D1012378
:102D5000721C5E212800FFF790FB0400002C06D1B6
:102D600001236A4658212800FFF778FB0400002C55
:102D700004D101A9280000F0E1F80400002C40F083
:102D800093809DF80400C0F380119DF80400C0F307
:102D9000400001439DF80400C0F3800001439DF80A
:102DA000040010F0010001439DF80400C0F340103E
:102DB00001439DF80400C0F3001001439DF8040096
:102DC000C0F3C00001439DF80500C0F3800001433B
:102DD0009DF80500C0F3C00001439DF80500C0F355
:102DE000001001439DF80500C0F3401001439DF819
:102DF0000500C0F3801001439DF80500C0B251EA00
:102E0000D0113078C0B251EAD0113078C0F38000D0
:102E100001433078C0F3801001433078C0F34000A4
:102E20000143307810F0010001433078C0F34010C6
:102E300001433078C0F3001001433078C0F3C00084
:102E40000143707810F0010001437078C0F38000F6
:102E500001437078C0F3C00001437078C0F30010E4
:102E600001437078C0F3401001437078C0F38010C4
:102E700001437078C0B251EAD011C9B2002906D01E
:102E80009DF8000050F080008DF8000005E09DF8EE
:102E9000000010F07F008DF8000001236A465821E1
:102EA0002800FFF7EAFA0400200004B070BD70B5F6
:102EB00005000E0002212800FFF706FE0400002C8A
:102EC00006D10123721D0D212800FFF7C7FA040067
:102ED000002C06D10123B21C0A212800FFF7BEFAFC
:102EE0000400002C06D10123F21C0B212800FFF75F
:102EF000B5FA0400002C06D10123321D0C21280054
:102F0000FFF7ACFA0400002C04D100212800FFF7E1
:102F1000DBFD0400002C06D1012332000D21280026
:102F2000FFF79CFA0400002C06D10123721C5E21DD
:102F30002800FFF793FA0400200070BD70B505006B
:102F40000E0002212800FFF7BFFD0400002C06D16F
:102F50000123721D11212800FFF780FA0400002CC4
:102F600006D10123B21C0E212800FFF777FA0400D6
:102F7000002C06D10123F21C0F212800FFF76EFA66
:102F80000400002C06D10123321D10212800FFF778
:102F900065FA0400002C04D100212800FFF794FDFD
:102FA0000400002C06D1012332000E212800FFF777
:102FB00055FA0400002C06D10123721C5F21280061
:102FC000FFF74CFA0400200070BD7CB505000E0030
:102FD00001236A4656212800FFF740FA0400002C1E
:102FE00012D19DF8000066F300008DF800009DF8F6
:102FF000000066F386108DF8000001236A46562112
:103000002800FFF73AFA0400002C04D1022128001E
:10301000FFF75AFD0400002C07D101230DF1010236
:1030200017212800FFF71AFA0400002C12D19DF88E
:10303000010010F07F003100C9B2490850EAC11008
:103040008DF8010001230DF1010217212800FFF77F
:1030500014FA0400002C04D100212800FFF734FDED
:103060000400200076BD7CB505000E0001236A46F1
:1030700008212800FFF7F2F90400002C13D13000DA
:103080008DF80100300080B2000A9DF8001060F356
:1030900000018DF8001001230DF101020721280025
:1030A000FFF7EBF90400002C06D101236A46082142
:1030B0002800FFF7E2F90400200076BD7CB505008A
:1030C0000E0001236A4609212800FFF7C7F9040012
:1030D000002C0CD19DF8000066F303008DF8000071
:1030E00001236A4609212800FFF7C7F904002000E0
:1030F00076BD7CB505000E0001236A460921280033
:10310000FFF7ACF90400002C0ED19DF8000010F080
:103110000F0050EA06108DF8000001236A460921CD
:103120002800FFF7AAF90400200076BD7CB5050051
:103130000E0001236A460A212800FFF78FF90400D8
:10314000002C0CD19DF8000066F302008DF8000001
:1031500001236A460A212800FFF78FF904002000A6
:1031600076BD7CB505000E0001230DF101023A2168
:103170002800FFF773F90400002C10D101236A46E0
:103180003B212800FFF76AF904009DF8000010F0C9
:10319000030000029DF8011050FA81F030802000F9
:1031A00076BD38B504000D0001236A463B2120009E
:1031B000FFF754F99DF80010C9B2C909297032BD52
:1031C00038B504000D0001236A4678212000FFF77E
:1031D00045F99DF80010C9B2C908C9B2012928D023
:1031E000022929D003292AD005292BD006292CD041
:1031F00007292DD008292ED009292FD00A2930D00F
:103200000B2931D00C2932D00D2933D00E2934D0DE
:103210000F2935D0102936D0112937D0122938D0AE
:10322000132939D014293AD015293BD019293CD07B
:103230003EE0012129703DE0022129703AE003219E
:10324000297037E00521297034E00621297031E02A
:10325000072129702EE0082129702BE0092129700F
:1032600028E00A21297025E00B21297022E00C2199
:1032700029701FE00D2129701CE00E21297019E032
:103280000F21297016E01021297013E011212970F7
:1032900010E0122129700DE0132129700AE0142199
:1032A000297007E01521297004E01921297001E037
:1032B0000121297032BD7CB505000E0001212800D6
:1032C000FFF702FC0400002C06D101236A461721F7
:1032D0002800FFF7C3F80400002C0CD19DF8000073
:1032E00066F3C3008DF8000001236A461721280009
:1032F000FFF7C3F80400002C04D100212800FFF7D9
:10330000E3FB0400200076BD70B505000E0002212D
:103310002800FFF7D9FB0400002C06D1022332005D
:1033200046212800FFF79AF80400002C04D1002160
:103330002800FFF7C9FB0400200070BD7CB5050024
:103340000E0002212800FFF7BFFB0400002C06D16D
:1033500001236A465F212800FFF780F80400002C53
:1033600020D19DF80000C0B2C00810F00300002872
:1033700005D0022809D005D3032809D00BE000208E
:1033800030700AE00120307007E00220307004E065
:103390000320307001E00020307000212800FFF78A
:1033A00093FB0400200076BD7CB505000E000221D1
:1033B0002800FFF789FB0400002C06D101236A4690
:1033C00005212800FFF74AF80400002C0CD19DF8D5
:1033D000000066F304108DF8000001236A46052101
:1033E0002800FFF74AF804003000C0B2002817D0C8
:1033F000002C15D101236A4667212800FFF72EF81B
:103400000400002C0CD19DF8000066F304108DF828
:10341000000001236A4667212800FFF72EF8040008
:10342000002C04D100212800FFF74EFB04002000EF
:1034300076BD7CB505000E0002212800FFF744FB95
:103440000400002C06D101236A4605212800FFF75D
:1034500005F80400002C09D100212800FFF734FBF7
:1034600004009DF80000C0F300103070200076BD0D
:1034700038B504000D0001232A0038212000FEF792
:10348000EDFF32BD7CB505000E0002212800FFF7DC
:103490001BFB0400002C06D101236A466021280092
:1034A000FEF7DCFF0400002C0CD19DF8000066F351
:1034B00005108DF8000001236A4660212800FEF700
:1034C000DCFF0400002C04D100212800FFF7FCFAE7
:1034D0000400200076BD7CB505000E000221280006
:1034E000FFF7F2FA0400002C06D101236A4660219E
:1034F0002800FEF7B3FF0400002C20D19DF8000047
:10350000C0B2000910F00300002805D0022809D03D
:1035100005D3032809D00BE0002030700AE0012019
:10352000307007E00220307004E00320307001E0CA
:103530000020307000212800FFF7C6FA04002000A8
:1035400076BD70B505000E0001212800FFF7BCFA1A
:103550000400002C06D11223320002212800FEF7BD
:103560007DFF0400002C04D100212800FFF7ACFAF5
:103570000400200070BD7CB505000E00012128006C
:10358000FFF7A2FA0400002C06D101236A46142199
:103590002800FEF763FF0400002C0CD19DF800000A
:1035A00066F301008DF8000001236A46142128000B
:1035B000FEF763FF0400002C04D100212800FFF770
:1035C00083FA0400200076BD7CB505000E000121C1
:1035D0002800FFF779FA0400002C06D101236A467F
:1035E00014212800FEF73AFF0400002C0CD19DF8AE
:1035F000000066F382008DF8000001236A46142162
:103600002800FEF73AFF0400002C04D10021280016
:10361000FFF75AFA0400200076BD7CB505000E00C5
:1036200001212800FFF750FA0400002C06D10123E5
:103630006A461A212800FEF711FF0400002C0ED163
:103640009DF8000010F03F0050EA86108DF8000051
:1036500001236A461A212800FEF70FFF0400002C00
:1036600004D100212800FFF72FFA0400200076BDC6
:103670007CB505000E0001212800FFF725FA0400A3
:10368000002C13D130789DF80010490840418DF886
:1036900000009DF8000010F0FE008DF800000123EE
:1036A0006A4615212800FEF7E8FE0400002C06D12A
:1036B0000123721C16212800FEF7DFFE0400002CF7
:1036C00006D10123B21C21212800FEF7D6FE0400FA
:1036D000002C04D100212800FFF7F6F90400200097
:1036E00076BD7CB505000E0001212800FFF7ECF93E
:1036F0000400002C13D130789DF800104908404197
:103700008DF800009DF8000050F001008DF80000D9
:1037100001236A4615212800FEF7AFFE0400002CA5
:1037200006D10123721C16212800FEF7A6FE040014
:10373000002C07D101230DF1010217212800FEF70B
:103740008DFE0400002C0ED1B0789DF8011060F3BE
:1037500002018DF8011001230DF10102172128004B
:10376000FEF78BFE0400002C04D100212800FFF797
:10377000ABF90400200076BD70B505000E000121F4
:103780002800FFF7A1F90400002C06D10123320024
:1037900022212800FEF762FE0400002C04D1002143
:1037A0002800FFF791F90400200070BD62F30F229A
:1037B00062F31F42401810F0030308D0C91A1FD348
:1037C000DB0748BF00F8012D28BF20F8022D1300A9
:1037D00030B414461546103928BF20E93C00FAD809
:1037E000490728BF20E90C0048BF40F8042D890094
:1037F00028BF20F8022D48BF00F8012D30BC7047CB
:10380000C91818BF00F8012DCB0728BF00F8012DFB
:1038100070478268521C8260426832B10268531C51
:10382000036011704168491E41607047C0F3C75181
:1038300081B1FF2906D0C110400721F0E04101F11C
:103840006051704741020CBF40F4E0016FF000414D
:103850000020704700F0004100020AD0B0FA80FC5E
:1038600000FA0CF001F16051A1EB0C5101EBD021F9
:103870004005704751EC100B00B500F003F841EC27
:10388000100B00BD40F2FF7C0B0D4DD0634566D29E
:1038900030B421EA035141F4801103F2FD3C5FEAA8
:1038A0005C0C01D300184941890041EA9071800005
:1038B0004FF440140023E202D50AB1F5100107D4F9
:1038C0006D081DD2091B641900184941491BF7D521
:1038D0006D080AD20919641B00184941491BEFD52C
:1038E0006D08F7D301E0520817D0C01861419B1A48
:1038F000AC4100184941801AA941F4D452080AD0B9
:10390000C01AA1419B186C4100184941801AA94175
:10391000E9D45208F4D15B1C6C4161084FEA3300D2
:1039200001EB0C5130BC704750EA0103FBD030B4BE
:10393000B1FA81F311B9B0FA80F41B190B3BB3F162
:1039400020042FBF00FA04F19940C3F1200420FAAB
:1039500004F438BF21439840D3F101039DE7634548
:1039600014BF50EA410CDEE711F5801FDBD8D943C4
:10397000AFF3008070472E0001F000428B1AA3F1D4
:103980006051B1F5801F0ADBB1F17F6F1FD242EAAF
:10399000C102C10071F1004142EB507070470B153C
:1039A000C3F10903212B10D2890241EA9051800210
:1039B0000128494141F0004121FA03F0C3F12003FD
:1039C000994071F1004150417047100070476FF00D
:1039D000000013EB103F5CBF000E42EAC05070477E
:1039E00062B38B0708D0521E11F8013B00F8013B6F
:1039F00000F024808B07F6D1830740F0208000BFC1
:103A0000103A07D330B4B1E83810103AA0E83810B3
:103A1000F9D230BC530724BFB1E80810A0E8081061
:103A200044BF51F8043B40F8043BD20724BF31F8AF
:103A3000022B20F8022B44BF0B7803707047121F33
:103A400017D35B0009D151F8043B20F8023B1B0C53
:103A5000121F20F8023BF6D20BE051F8043B00F8AD
:103A6000013B1B0A20F8023B1B0C121F00F8013B14
:103A7000F3D238BF121D521E24BF11F8013B00F8CB
:103A8000013BF8D870474300074A136833F004033A
:103A900013600A00D2B2012A01D130BF02E040BF58
:103AA00020BF20BF7047000010ED00E02DE9F84175
:103AB0000023002400260025102D80F0ED80012732
:103AC00017FA05F213000A681A4014009C4240F0ED
:103AD000E1804A68022A02D04A68122A1FD12A00CD
:103AE000D20800EB8202D2F820C05FF00F0E15F072
:103AF0000702D2B292001EFA02FE3CEA0E0CD1F886
:103B000010E015F00702D2B292001EFA02FE5EEA41
:103B10000C0C66462A00D20800EB82021662D0F82E
:103B200000C05FF0030E2A00D2B252001EFA02F269
:103B30003CEA020C91F8048018F003082A00D2B283
:103B4000520018FA02F858EA0C0CC0F800C04A6893
:103B5000012A08D04A68022A05D04A68112A02D0F0
:103B60004A68122A1BD186682A00D2B252001EFA75
:103B700002F29643D1F80C802A00D2B2520018FA11
:103B800002F858EA060686604268AF40BA434F68BA
:103B9000C7F30017AF403A439446C0F804C0C66864
:103BA0002A00D2B252001EFA02FE36EA0E068F68D2
:103BB0002A00D2B2520097403E43C6604A68D20003
:103BC00068D500220092444A176857F4804717606E
:103BD000126812F480420092009ADFF800C12A00B5
:103BE00092085CF822705FF00F0E15F00302D2B25B
:103BF00092001EFA02FE37EA0E07394A904201D1BE
:103C0000002614E0374A904201D101260FE0364ADF
:103C1000904201D102260AE0344A904201D10326A3
:103C200005E0334A904201D1042600E00726F6B2AF
:103C300015F00302D2B29200964037432A00920850
:103C40004CF822702B4E3268A243D1F804C05FEAD0
:103C5000CC3C00D522433260274F3E68A643D1F8C2
:103C600004C05FEA8C3C00D526433E60234F3A688F
:103C7000A243D1F804C05FEACC2C00D522433A60BD
:103C80001F4F3E68A643D1F804C05FEA8C2C00D5D4
:103C900026433E606D1C0FE7BDE8F1811300DBB2E7
:103CA000002B03D00B009BB2836103E00B009BB29F
:103CB0001B048361704710B504001248016822009C
:103CC00092B2114206D0210089B20160200080B278
:103CD000FDF710FF10BD00004438024008380140D5
:103CE000000002400004024000080240000C0240B4
:103CF00000100240003C0140043C0140083C0140EF
:103D00000C3C0140143C014080B50B48016851F463
:103D100000710160016851F480610160016851F433
:103D200080710160032002F083FB002002F0B8FBE9
:103D300002F0DCFB002002BD003C024010B586B062
:103D4000002000902A48016851F0010101600168DB
:103D500011F001010091009900210091016851F0DA
:103D600001010160006810F001000090009800203F
:103D700000902048016851F400310160006810F49F
:103D80000030009000980420019002200290002052
:103D9000039007200590184C01A92000FFF786FE2C
:103DA000082001900720059001A92000FFF77EFE62
:103DB000124C134820601348006860600020A06027
:103DC0000020E060002020610020A0610C206061E4
:103DD0002000FDF74DFF002800D0FEE70A48A06252
:103DE0004FF48070A0850020E06306B010BD00BFD6
:103DF00030380240403802400000024014030020E6
:103E000000440040C8750008C0000020F8B586B026
:103E1000142100226C462000FFF7C8FC002005900A
:103E20005448016851F004010160016811F0040177
:103E30000591059900210591016851F0800101600B
:103E4000016811F080010591059900210591016833
:103E500051F001010160016811F00101059105991E
:103E600000210591016851F002010160006810F025
:103E7000020005900598404C002220212000FFF709
:103E80000DFF3E4D012280212800FFF707FF012290
:103E90004FF4C0612000FFF701FF394E012240219D
:103EA0003000FFF7FBFE4FF40050009035480190C2
:103EB0000020029069462800FFF7F8FD01200090DD
:103EC000314F01970020029069462800FFF7EEFD70
:103ED0000220009001970020029069462800FFF719
:103EE000E5FD4FF4C4600090012001900020029095
:103EF0000020039069462000FFF7D8FD8020009045
:103F000001200190002002900020039069462800C3
:103F1000FFF7CCFD20200090019700200290694619
:103F20003000FFF7C3FD40200090012001900020E9
:103F300002900020039069463000FFF7B7FD002291
:103F40000021062002F07AFA062002F08CFA002204
:103F50000021172002F072FA172002F084FA0022E2
:103F60000021282002F06AFA282002F07CFA07B02B
:103F7000F0BD00BF3038024000000240000802409F
:103F800000040240000021100000111080B53748E5
:103F90003749016037494160002181600021C160DB
:103FA0004FF48041016100214161002181610021C4
:103FB000C1610021016200F0D5F8002801D0FCF7B2
:103FC00027F901BD38B586B004001421002201ADE7
:103FD0002800FFF7EBFB20682549884226D1002006
:103FE00000902548016851F002010160006810F05E
:103FF0000200009000984FF440700190122002904F
:1040000001200390032004900420059001A91B487F
:10401000FFF74CFD002000901948016851F4001191
:104020000160006810F400100090009807B030BDE7
:10403000FEB504000D001600012741F28830029001
:10404000300080B20190009501232200D2B292B2DA
:104050000C48017889B2054800F026FA002801D101
:10406000002007003800C0B2FEBD0000C0020020E2
:1040700000540040801A060030380240000402401C
:1040800040380240BC00002080B527482749016025
:104090005FF4E1314160002181600021C1600021B5
:1040A00001610C214161002181610021C161FDF7A5
:1040B000DFFD002801D0FCF7ABF801BD38B586B0B4
:1040C00004001421002201AD2800FFF76FFB2068D7
:1040D0001649884225D1002000901548016851F406
:1040E00000310160006810F400300090009800205A
:1040F00000901048016851F001010160006810F063
:104100000100009000980C200190022002900020F5
:104110000390002004900720059001A90648FFF7AE
:10412000C5FC07B030BD00009403002000440040EF
:1041300040380240303802400000024070B50400B0
:1041400001F082F80500260016F1010F02D00448A4
:104150000078361801F078F8401BB042FAD370BDF1
:10416000BD00002070B50400002C01D10120D5E075
:1041700094F83D00002805D1002084F83C00200080
:10418000FFF720FF242084F83D00206800684008E5
:1041900040002168086000F0E7FF0100DFF88001BF
:1041A0006268824208D2DFF87C21914201D201226A
:1041B00000E00022D2B207E0DFF86C21914201D288
:1041C000012200E00022D2B2012A01D10120A5E0A3
:1041D000DFF85821B1FBF2F223685B689B099B0171
:1041E000134325686B6023681B6A6568854201D2AA
:1041F000551C08E04FF4967505FB02F54FF47A76EE
:10420000B5FBF6F56D1C9B099B012B4325682B62C2
:104210002368DB696568854214D2481E65686D00B5
:10422000B0FBF5F0401C0005000D042801D2042568
:104230003EE0481E65686D00B0FBF5F56D1C2D0570
:104240002D0D35E0A068002809D14D1E66680320B9
:104250004643B5FBF6F0401C0005000D0AE04D1E7C
:10426000666819204643B5FBF6F0401C0005000DBA
:1042700050F48040000501D1012519E0A068002814
:1042800009D14D1E666803204643B5FBF6F56D1C4B
:104290002D052D0D0AE04D1E666819204643B5FB1D
:1042A000F6F56D1C2D052D0D55F4804555F4004592
:1042B000DFF87C0003402B432068C361206803685B
:1042C00033F0C003E0690343206A034320680360BE
:1042D00020688368DFF85C00034020690343E068DE
:1042E0000343206883602068C3681B0A1B02A5691A
:1042F000606905432B432068C3602068006850F064
:1043000001002368186000202064202084F83D000C
:1043100000202063002084F83E00002070BD0000D3
:10432000A186010080841E0000093D0040420F006C
:104330000030FFFF007CFFFF2DE9FE4F05000E005F
:1043400017009846DDF830900D9CDDF838A000F09D
:104350007BFF834695F83D00202840F0A180CDF8F2
:1043600000B019230122DFF84414280000F03CFBC0
:10437000002801D0022094E095F83C00012801D1EA
:1043800002208EE0012085F83C0028680068C00704
:1043900005D42868006850F0010029680860286882
:1043A000006830F4006029680860212085F83D002D
:1043B000402085F83E0000202864C5F824906C85D4
:1043C000688D2885DFF8E003E862CDF804B0CDF809
:1043D00000A043469BB23A0092B2310089B2280055
:1043E00000F0E8F9002801D001205AE0288D0028CB
:1043F00033D05A465146280000F098FB00280AD0D6
:10440000286C042805D12868006850F400702968D9
:104410000860012045E0686A007829680861686AD8
:10442000401C6862288D401E2885688D401E688566
:10443000286840694007D9D5288D0028D6D0686AF9
:10444000007829680861686A401C6862288D401EEF
:104450002885688D401E6885C8E75A465146280061
:1044600000F090FB00280AD0286C042805D12868A9
:10447000006850F4007029680860012011E0286885
:10448000006850F4007029680860202085F83D001D
:10449000002085F83E00002085F83C00002000E068
:1044A0000220BDE8FE8F00002DE9F24F82B005002A
:1044B00016001F00DDF830800D9CDDF8389000F00C
:1044C000C3FE824695F83D00202840F06A81CDF871
:1044D00000A019230122DFF8D412280000F084FA8A
:1044E000002801D002205DE195F83C00012801D1AF
:1044F000022057E1012085F83C0028680068C007C9
:1045000005D42868006850F0010029680860286810
:10451000006830F4006029680860222085F83D00BA
:10452000402085F83E0000202864C5F824806C8572
:10453000688D2885DFF87002E862CDF804A0CDF818
:1045400000903B009BB2320092B2BDF808102800E8
:1045500000F09EF9002801D0012023E1288D0028D9
:104560000FD1002000902868406900902868806979
:10457000009000982868006850F40070296808606E
:104580003AE0288D012815D12868006830F4806051
:104590002968086000200090286840690090286819
:1045A0008069009000982868006850F400702968BD
:1045B000086021E0288D022815D12868006830F4B1
:1045C0008060296808602868006850F400602968E5
:1045D0000860002000902868406900902868806981
:1045E0000090009808E00020009028684069009042
:1045F0002868806900900098288D002800F0C68007
:10460000288D042880F09980288D012816D15246E3
:104610004946280000F0E2FA002801D00120C1E05C
:1046200028680069696A0870686A401C6862288D99
:10463000401E2885688D401E6885DDE7288D02288C
:104640002DD1CDF800A04B460022DFF864112800E0
:1046500000F0CAF9002801D00120A3E02868006812
:1046600050F400702968086028680069696A087059
:10467000686A401C6862288D401E2885688D401E2F
:10468000688528680069696A0870686A401C686201
:10469000288D401E2885688D401E6885ACE7DFF8B0
:1046A00010B1CDF800A04B4600225946280000F07A
:1046B0009BF9002801D0012074E02868006830F4DC
:1046C00080602968086028680069696A0870686AFB
:1046D000401C6862288D401E2885688D401E6885B4
:1046E000CDF800A04B4600225946280000F07CF986
:1046F000002801D0012055E02868006850F40070BF
:104700002968086028680069696A0870686A401C3E
:104710006862288D401E2885688D401E688528683F
:104720000069696A0870686A401C6862288D401ECA
:104730002885688D401E68855EE7524649462800F8
:1047400000F04CFA002801D001202BE02868006915
:10475000696A0870686A401C6862288D401E288556
:10476000688D401E68852868406940077FF544AF22
:1047700028680069696A0870686A401C6862288D48
:10478000401E2885688D401E688535E7202085F805
:104790003D00002085F83E00002085F83C00002008
:1047A00000E00220BDE8FE8F0000FFFF02001000C5
:1047B000040001002DE9F84304000D0016001F005D
:1047C000DDF82080DDF824902068006850F48070C7
:1047D00021680860CDF80090434600225FF0011187
:1047E000200000F001F9002801D001204EE015F072
:1047F000FE00216808614B4642467A49200000F0DD
:1048000038F9002801D0012040E000200090206805
:104810004069009020688069009000984A464146AF
:10482000200000F083F900280AD0206C042805D16C
:104830002068006850F4007021680860012025E0BD
:10484000380080B2012804D13000C0B2216808616C
:104850001BE0300080B2000AC0B2216808614A46FD
:104860004146200000F062F900280AD0206C04289C
:1048700005D12068006850F40070216808600120AC
:1048800004E03000C0B2216808610020BDE8F28376
:104890002DE9FC4704000D0016001F00DDF82880FC
:1048A000DDF82C902068006850F480602168086072
:1048B0002068006850F4807021680860CDF800908E
:1048C000434600225FF00111200000F08DF800281F
:1048D00001D0012084E015F0FE0021680861DFF8B6
:1048E00004A14B4642465146200000F0C2F8002881
:1048F00001D0012074E00020009020684069009001
:1049000020688069009000984A464146200000F0E7
:104910000DF900280AD0206C042805D12068006811
:1049200050F4007021680860012059E0380080B21E
:10493000012804D13000C0B2216808611BE03000BA
:1049400080B2000AC0B2216808614A464146200090
:1049500000F0ECF800280AD0206C042805D120686B
:10496000006850F4007021680860012038E03000D1
:10497000C0B2216808614A464146200000F0D6F8DE
:1049800000280AD0206C042805D12068006850F463
:10499000007021680860012022E02068006850F45F
:1049A000807021680860CDF80090434600225FF0D7
:1049B0000111200000F018F8002801D001200FE0BC
:1049C00055F00100C0B2216808614B46424651468D
:1049D000200000F04EF8002801D0012000E0002067
:1049E000BDE8F687020001002DE9F04105000E0048
:1049F00017001C00DDF818803000000CC0B2012840
:104A00000AD128684069304080B2B1B2884201D1F1
:104A100001200BE0002009E028688069304080B266
:104A2000B1B2884201D1012000E000203900C9B2B2
:104A300088421BD114F1010FDED000F005FCB0EB71
:104A40000800844201D3002CD6D100202863202006
:104A500085F83D00002085F83E00286C50F02000CD
:104A60002864002085F83C00012000E00020BDE81B
:104A7000F081F8B505000E0014001F003000000C96
:104A8000C0B201280AD128684069304080B2B1B272
:104A9000884201D101200BE0002009E028688069EC
:104AA000304080B2B1B2884201D1012000E0002044
:104AB000002839D12868406940051AD5286800685F
:104AC00050F40070296808607FF4806029684861AC
:104AD00000202863202085F83D00002085F83E0056
:104AE000286C50F004002864002085F83C00012068
:104AF0001BE014F1010FC1D000F0A6FBC01B8442E3
:104B000001D3002CBAD100202863202085F83D0075
:104B1000002085F83E00286C50F02000286400201A
:104B200085F83C00012000E00020F2BD70B50500D2
:104B30000C00160028684069000621D4280000F007
:104B400086F8002801D001201BE014F1010FF1D0FC
:104B500000F07AFB801B844201D3002CEAD10020B4
:104B60002863202085F83D00002085F83E00286C51
:104B700050F020002864002085F83C00012000E06F
:104B8000002070BD70B505000C0016002868406953
:104B9000400721D4280000F05AF8002801D0012055
:104BA0001BE014F1010FF1D000F04EFB801B84429A
:104BB00001D3002CEAD100202863202085F83D0095
:104BC000002085F83E00286C50F02000286400206A
:104BD00085F83C00012000E0002070BD70B50500A4
:104BE0000C0016002868406940062ED428684069E9
:104BF000C00612D57FF010002968486100202863A4
:104C0000202085F83D00002085F83E00286C2864AF
:104C1000002085F83C00012018E000F015FB801B07
:104C2000844201D3002CDDD100202863202085F8A8
:104C30003D00002085F83E00286C50F020002864DC
:104C4000002085F83C00012000E0002070BD01003C
:104C500008684069400514D57FF480600A68506197
:104C600000200863202081F83D00002081F83E00EC
:104C7000086C50F004000864002081F83C0001201A
:104C800000E000207047FDF718BB00005FEA000C51
:104C900011F8012B00F8012B12B111F8012BF9E7E3
:104CA000604670472DE9FC410400002C01D1012031
:104CB000A2E12078C0075CD5DFF84003016811F05D
:104CC0000C01042909D0006810F00C0008280ED14E
:104CD000DFF82C030068400209D5DFF828030068DC
:104CE000800346D56068002843D1012084E16068D4
:104CF000B0F5803F06D1DFF80C03016851F4803134
:104D0000016017E06068B0F5A02F0AD1DFF8F40267
:104D1000016851F480210160016851F48031016023
:104D200008E0B848016831F480310160016831F46D
:104D300080210160606800280DD000F085FA050030
:104D4000B0480068800314D400F07EFA401B652848
:104D5000F6D3032050E100F077FA0500A948006877
:104D6000800306D500F070FA401B6528F6D30320B7
:104D700042E1207880074BD5A048016811F00C0F64
:104D800008D0006810F00C00082814D19C48006876
:104D9000400210D49B480168890704D5E1680129C5
:104DA00001D0012028E1016831F0F801226951EABF
:104DB000C20101602CE0E068002818D0012092496F
:104DC000086000F041FA05008E480168890706D4A2
:104DD00000F03AFA401B0328F6D303200CE10168E7
:104DE00031F0F801226951EAC201016010E00020AF
:104DF0008549086000F028FA0500824800688007AD
:104E000006D500F021FA401B0328F6D30320F3E077
:104E10002078000724D56069002810D001207B4944
:104E2000086000F011FA050079480068800717D47F
:104E300000F00AFA401B0328F6D30320DCE0002030
:104E40007249086000F000FA0500714800688007A8
:104E500006D500F0F9F9401B0328F6D30320CBE078
:104E60002078400775D500266A4F3868C0000CD4FA
:104E700000200090386850F080503860386810F09A
:104E800080500090009801200600DFF88C81D8F84F
:104E90000000C00513D4D8F8000050F48070C8F8A2
:104EA000000000F0D1F90500D8F80000C00506D4D4
:104EB00000F0CAF9401B0328F6D303209CE0A06849
:104EC000012805D15548016851F00101016015E044
:104ED000A068052809D15148016851F0040101601A
:104EE000016851F00101016008E04C48016849087F
:104EF00049000160016831F004010160A0680028E8
:104F00000FD000F0A1F9050044480068800718D4CC
:104F100000F09AF9401B41F289318842F4D3032012
:104F20006AE000F091F905003C480068800708D568
:104F300000F08AF9401B41F289318842F4D3032002
:104F40005AE03000C0B2012803D1386830F08050F8
:104F50003860A06900284ED02848006810F00C0086
:104F6000082846D0A069022832D12D4E002030609A
:104F700000F06AF90700DFF88C80D8F800008001A3
:104F800006D500F061F9C01B0328F4D3032033E0F9
:104F9000E169206A0143606A51EA8011A06A400811
:104FA000401E51EA0041E06A51EA00611448016084
:104FB0000120306000F048F90500D8F800008001B9
:104FC00019D400F041F9401B0328F6D3032013E065
:104FD00000201349086000F037F90500094800680F
:104FE000800108D500F030F9401B0328F6D30320D8
:104FF00002E0012000E00020BDE8F6810838024010
:10500000043802400038024000004742800E474208
:10501000743802404038024000700040703802404E
:10502000600047422DE9F04104000D00002C01D141
:10503000012094E0574F386810F00F00A84207D2C3
:105040003D70386810F00F00A84201D0012086E0C2
:105050002078800716D52078400704D54E4801688F
:1050600051F4E05101602078000704D54A480168F6
:1050700051F46041016048490A6832F0F002A068CA
:1050800002430A602078C00738D56068012805D13E
:1050900042480068800313D4012060E06068022861
:1050A00002D06068032805D13C480068800107D41D
:1050B000012054E039480068800701D401204EE007
:1050C000DFF8D480D8F800108908890060680143AF
:1050D000C8F8001000F0B8F80600D8F8000010F08A
:1050E0000C006168B0EB810F08D000F0ADF8801BB8
:1050F00041F289318842F0D3032030E0386810F063
:105100000F00854207D23D70386810F00F00A842AA
:1051100001D0012023E02078400706D51E490A6807
:1051200032F4E052E06802430A602078000707D5B5
:105130001948016831F46041226951EAC2010160F5
:1051400000F034F81649144A1268C2F30312895C5D
:10515000C84014490860002001F0A2F90020BDE811
:10516000F08110480068704780B5FFF7FAFF0E49DC
:10517000094A1268C2F38222895CC84002BD80B528
:10518000FFF7EFFF0849044A1268C2F34232895C14
:10519000C84002BD003C02400838024000380240CE
:1051A0002075000838000020C07500082DE9F04186
:1051B00000240025002600271F48006810F00C007E
:1051C000002804D0042804D0082804D031E01B486B
:1051D00030E01B482EE0DFF86C80D8F8000010F0BB
:1051E0003F000400D8F8000040020CD5D8F80000B9
:1051F000C0F388101249A1FB00012200002301F036
:1052000095F905000BE0D8F80000C0F388100B49B1
:10521000A1FB00012200002301F088F90500D8F865
:105220000000C0F30140401C40000600B5FBF6F052
:1052300000E00248BDE8F081083802400024F40094
:1052400000127A000438024001480068704700BF2D
:10525000F00300202DE9F14FB2B0994692460023A9
:105260000691CDE900333C9A0F930DF14A01149158
:105270004A7011E0329E57462C4617F8011B0698DB
:10528000B0470028069000F026810F98401C641E4D
:105290000F90F2D13296AA449AF80000252808D13E
:1052A0000021002209910A920B910C920D910E920D
:1052B0000FE06A464FF0FF31504601F083FA0500D7
:1052C00002D10F9800F066BED4D50125E3E741F086
:1052D00001011AF8010F2028F9D023280CD02B281F
:1052E00004D02D2805D0302809D00BE041F0020170
:1052F000EFE741F00401ECE741F00801E9E741F094
:105300001001E6E72A280FD1D9F8002052F8040B43
:10531000C9F800200028119003D54042119041F0B7
:1053200004010AF1010A14E01192DFF8EC3B0AE0F3
:105330001198984205DA00EB800402EB4402303AFF
:1053400011920AF1010A9AF80020A2F130000A280D
:10535000EED39AF800002E2803D04FF0FF321092BF
:1053600029E01AF8010F2A2809D1D9F8000050F8CD
:10537000042BC9F8000010920AF1010A1BE02D2845
:105380000CBF0AF1010A002000221092DFF8882BDE
:105390000BE040B9109B934205DA03EB830504EB65
:1053A0004504303C10940AF1010A9AF80040A4F137
:1053B00030030A2BEDD3ADF848100FF660309AF8A1
:1053C000001001F009FA08B11AF8010B8DF84A0033
:1053D0009DF84A00682805D19AF8000068280CD189
:1053E000622106E06C2804BF9AF800006C2804D102
:1053F00071218DF84A100AF1010A1FA808901AF8C5
:1054000001BBBBF125012DD01C3900F06181091FC2
:10541000022940F25D810E392AD0491F00F0B38481
:10542000093900F05581891E00F04985491E00F0B8
:10543000F584491E022940F24B81091F00F0EE84D9
:10544000491F00F0BA80491E00F09D84491E65D0B6
:10545000C91E21D0891E00F09684C91E00F09384D5
:1054600000F04CBD25238DF87C30012109912AE004
:105470006C208DF84A00D9F8000050F8042BC9F8C8
:105480000000002A43D11499487800283DD04FF0FD
:10549000FF340FF6902012E09DF84A006C28EAD005
:1054A000D9F8000050F8044BC9F800000794D4B9AB
:1054B0001499487898B14FF0FF340FF6842001F02A
:1054C00097F9201A07D132981FAA04A900F065FDA8
:1054D00000287FF5E1AE4FF0FF3000F05BBD0FF626
:1054E0007C200790EFE7109D002D04D52046FCF7A7
:1054F00087FB044607E02A46204601F099F9002878
:1055000014BF041B2C460A94DDE70FF65422329890
:1055100004A900F0C8FD0028D5D5DCE7D9F80010B3
:1055200051F8040BC9F8001020F00004002121F00C
:10553000FF351FABCDE904450793DDE90423089946
:105540003C2413B90AB9109898B102F00F05303510
:10555000641EEEB23A2EA8BF2735120942EA037242
:105560001B090D5508BF002A03D007980D19A84242
:10557000EBD308190790C4F13C0210980A928242BA
:1055800009DABDF84810821A4FF6EF7001400C920C
:10559000ADF8481097E7002895D59DF8480000F031
:1055A000140010288FD1119B09990C985B1A1B1AB3
:1055B0009A1A002A87DD0C9285E71499487820B161
:1055C0004FF0FF340FF69C1079E79DF84A006228EF
:1055D00062D0682819D06A2840D06C2806D071287B
:1055E0004DD074282DD07A281ED064E0D9F8001050
:1055F00051F8040BC9F8001020B94FF0FF340FF632
:105600007C105CE70F9901605DE7D9F8001051F854
:10561000040BC9F8001020B94FF0FF340FF65C10EE
:105620004DE70F9901804EE7D9F8001051F8040BAF
:10563000C9F800100028E5D14FF0FF340FF63C10F8
:105640003DE7D9F8001051F8040BC9F80010002804
:10565000D8D14FF0FF340FF6241030E7D9F80010FE
:1056600051F8040BC9F8001020B94FF0FF340FF6C1
:105670000C1024E70F9AD317C0E9002323E7D9F8C9
:10568000001051F8040BC9F800100028F2D14FF0B7
:10569000FF340FF6E80012E7D9F8001051F8040BB8
:1056A000C9F8001020B94FF0FF340FF6D00006E71C
:1056B0000F99017007E7D9F8001051F8040BC9F8E9
:1056C000001000289ED14FF0FF340FF6B000F6E630
:1056D000D9F80020D21D22F00702C9F80020D2E933
:1056E00000010832C9F80020CDE90401C80F02D03A
:1056F00009982D210AE0BDF84800810702D50998D4
:105700002B2103E0C00705D5099820211FAA1154B9
:10571000401C0990DDE9042309991FA8CDE92E2337
:1057200008444BF020016129079015AC0BD010996B
:10573000002902D50621109105E001BF4BF02001A0
:10574000672901221092DDE9042359004915491CFB
:1057500010D11A030ED0ABF1610503211A2D0A9165
:1057600002D20FF6A43101E00FF6A0310322FEF7BA
:1057700037F9A8E659004915491C0AD11A0308D17E
:10578000ABF1610503211A2D0A9116D30FF684316E
:10579000ECE7DDE90401CDE93001DDE9302323F058
:1057A0000047B7F5801F22F000060DD20022002F1F
:1057B00008BF002E029203D116E00FF65431D5E750
:1057C00002AA01F061F80FE0DFF8EC0ADFF8EC1A4A
:1057D00000EB17500290DDE930234FF0FF30194005
:1057E000DFF8DC7A10403943CDE904014BF02000AA
:1057F00061280DD1079830210170821CBBF1610F27
:1058000007920CBF7821582141700998801C09909B
:10581000DDE9040120F0000231F0004308BF002A56
:1058200002D10026002571E14BF02008B8F1610F8C
:1058300040F0BE801098002847BF21210391401CF2
:105840000390039FDDE92E017F1C00220023DDE988
:10585000044501F051F802998DF8542038BF85F0C5
:105860000045091F002F02910DF155065DDDDFF89F
:10587000541ACDE9302140F2FF732E932046294679
:105880000022002301F050F84FD24800400D00F1F3
:105890001C0215D0002A13DD2E9B9A420ADBDDE99B
:1058A000300121F0004205F000400243DDE9300103
:1058B000114611E06FF31E5141EA025120460BE000
:1058C00024F0000035F0004108BF00280FBF294632
:1058D0001C22294601F040F804460D4601F0DAF892
:1058E000FF1F002F804609DD01F0F2F802460B464B
:1058F0002046294601F0FEF804460D46F01D07211A
:10590000B8F1000F0CDD491E5EBF08F00F0200F871
:10591000012D4FEA2818F3D502E0002200F8012DEE
:10592000491EFAD5C61D002FA8DC0DF15500361A08
:1059300003988642D8BF304600280DF1550430D474
:10594000B04206DA0DF155010A5C082AA8BF0F2102
:1059500000DA0021024615AB134400E0401E13F8A4
:105960000159521E8D42F9D00F2904D10DF1550174
:105970008B5C5B1C8B54002A04D50299091D15AC65
:10598000401C0291411E0CD46218ABF13A06137808
:105990003033DDB23A2DA8BFF318491E02F80139A1
:1059A000F5D51099002940F1AF80421E1092ABE06E
:1059B0000299DFF8142947F29750414391FBF2F224
:1059C000DDE92E45029225F00045D2F1070204DD03
:1059D0002046294600F04CFC0BE052420020DFF844
:1059E000EC1800F045FC02460B462046294601F023
:1059F000F3F80446B8F1660F109806BF029F0A3705
:105A000006273F18142FC8BF142730208DF85400E4
:105A10000D460020DFF8B818CDE92E010DF155062E
:105A2000002F33DD2046294601F0FAF901460A46E7
:105A300006F1080304200A26B2FBF6F606EB860EF2
:105A4000A2EB4E02303203F8012C0A22B6FBF2F22E
:105A500002EB820EA6EB4E063036401E03F8026DB6
:105A6000E9D1083F002F03F10806D9DD084601F00F
:105A7000EBF902460B462046294601F03BF8DDE9EA
:105A80002E2301F0EFF904460D46CBE70DF155004A
:105A9000361A0DF1550404E00298401E761E02905D
:105AA000641C20783028F7D0B8F1660F02D1029933
:105AB000491C04E0B8F1650F0CBF012100211098CA
:105AC00008188642B8BF701E00281DD4B04204DA00
:105AD000215C3429C8BF392100DC30210246631E15
